{
  "_format": "hh-sol-artifact-1",
  "contractName": "sbLending",
  "sourceName": "contracts/sbLending-V0.sol",
  "abi": [
    {
      "inputs": [],
      "stateMutability": "nonpayable",
      "type": "constructor"
    },
    {
      "inputs": [
        {
          "internalType": "address",
          "name": "",
          "type": "address"
        },
        {
          "internalType": "address",
          "name": "",
          "type": "address"
        }
      ],
      "name": "ERC20BorrowList",
      "outputs": [
        {
          "internalType": "uint256",
          "name": "",
          "type": "uint256"
        }
      ],
      "stateMutability": "view",
      "type": "function"
    },
    {
      "inputs": [
        {
          "internalType": "uint256",
          "name": "",
          "type": "uint256"
        }
      ],
      "name": "ERC20BorrowTokens",
      "outputs": [
        {
          "internalType": "address",
          "name": "",
          "type": "address"
        }
      ],
      "stateMutability": "view",
      "type": "function"
    },
    {
      "inputs": [
        {
          "internalType": "address",
          "name": "",
          "type": "address"
        },
        {
          "internalType": "address",
          "name": "",
          "type": "address"
        }
      ],
      "name": "ERC20DepositList",
      "outputs": [
        {
          "internalType": "uint256",
          "name": "",
          "type": "uint256"
        }
      ],
      "stateMutability": "view",
      "type": "function"
    },
    {
      "inputs": [
        {
          "internalType": "uint256",
          "name": "",
          "type": "uint256"
        }
      ],
      "name": "ERC20DepositTokens",
      "outputs": [
        {
          "internalType": "address",
          "name": "",
          "type": "address"
        }
      ],
      "stateMutability": "view",
      "type": "function"
    },
    {
      "inputs": [
        {
          "internalType": "address",
          "name": "",
          "type": "address"
        }
      ],
      "name": "ERC20Oracles",
      "outputs": [
        {
          "internalType": "address",
          "name": "",
          "type": "address"
        }
      ],
      "stateMutability": "view",
      "type": "function"
    },
    {
      "inputs": [
        {
          "internalType": "address",
          "name": "_token",
          "type": "address"
        }
      ],
      "name": "addBorrowToken",
      "outputs": [],
      "stateMutability": "nonpayable",
      "type": "function"
    },
    {
      "inputs": [
        {
          "internalType": "address",
          "name": "_token",
          "type": "address"
        }
      ],
      "name": "addDepositToken",
      "outputs": [],
      "stateMutability": "nonpayable",
      "type": "function"
    },
    {
      "inputs": [
        {
          "internalType": "address",
          "name": "_token",
          "type": "address"
        },
        {
          "internalType": "address",
          "name": "_oracle",
          "type": "address"
        }
      ],
      "name": "addOracle",
      "outputs": [],
      "stateMutability": "nonpayable",
      "type": "function"
    },
    {
      "inputs": [
        {
          "internalType": "address",
          "name": "_token",
          "type": "address"
        },
        {
          "internalType": "uint8",
          "name": "_category",
          "type": "uint8"
        },
        {
          "internalType": "uint256",
          "name": "_power",
          "type": "uint256"
        }
      ],
      "name": "addSoulBoundToken",
      "outputs": [],
      "stateMutability": "nonpayable",
      "type": "function"
    },
    {
      "inputs": [
        {
          "internalType": "address",
          "name": "_token",
          "type": "address"
        },
        {
          "internalType": "uint256",
          "name": "_interestRate",
          "type": "uint256"
        }
      ],
      "name": "addTokenInterestFixedInterestRate",
      "outputs": [],
      "stateMutability": "nonpayable",
      "type": "function"
    },
    {
      "inputs": [
        {
          "internalType": "address",
          "name": "",
          "type": "address"
        }
      ],
      "name": "allowedBorrowedTokens",
      "outputs": [
        {
          "internalType": "bool",
          "name": "",
          "type": "bool"
        }
      ],
      "stateMutability": "view",
      "type": "function"
    },
    {
      "inputs": [
        {
          "internalType": "address",
          "name": "",
          "type": "address"
        }
      ],
      "name": "allowedDepositTokens",
      "outputs": [
        {
          "internalType": "bool",
          "name": "",
          "type": "bool"
        }
      ],
      "stateMutability": "view",
      "type": "function"
    },
    {
      "inputs": [],
      "name": "baseMaxBorrow",
      "outputs": [
        {
          "internalType": "uint256",
          "name": "",
          "type": "uint256"
        }
      ],
      "stateMutability": "view",
      "type": "function"
    },
    {
      "inputs": [
        {
          "internalType": "address",
          "name": "_token",
          "type": "address"
        },
        {
          "internalType": "uint256",
          "name": "_value",
          "type": "uint256"
        }
      ],
      "name": "borrowERC20",
      "outputs": [],
      "stateMutability": "nonpayable",
      "type": "function"
    },
    {
      "inputs": [
        {
          "internalType": "address",
          "name": "_user",
          "type": "address"
        }
      ],
      "name": "calculateCollateralPercentage",
      "outputs": [
        {
          "internalType": "uint256",
          "name": "",
          "type": "uint256"
        }
      ],
      "stateMutability": "view",
      "type": "function"
    },
    {
      "inputs": [
        {
          "internalType": "address",
          "name": "_user",
          "type": "address"
        }
      ],
      "name": "calculateMaxBorrow",
      "outputs": [
        {
          "internalType": "uint256",
          "name": "",
          "type": "uint256"
        }
      ],
      "stateMutability": "view",
      "type": "function"
    },
    {
      "inputs": [
        {
          "internalType": "address",
          "name": "_user",
          "type": "address"
        }
      ],
      "name": "calculateMaxBorrowPercentage",
      "outputs": [
        {
          "internalType": "uint256",
          "name": "",
          "type": "uint256"
        }
      ],
      "stateMutability": "view",
      "type": "function"
    },
    {
      "inputs": [
        {
          "internalType": "address",
          "name": "_user",
          "type": "address"
        }
      ],
      "name": "calculateTotalBorrowed",
      "outputs": [
        {
          "internalType": "uint256",
          "name": "",
          "type": "uint256"
        }
      ],
      "stateMutability": "view",
      "type": "function"
    },
    {
      "inputs": [
        {
          "internalType": "address",
          "name": "_user",
          "type": "address"
        }
      ],
      "name": "calculateTotalDeposit",
      "outputs": [
        {
          "internalType": "uint256",
          "name": "",
          "type": "uint256"
        }
      ],
      "stateMutability": "view",
      "type": "function"
    },
    {
      "inputs": [
        {
          "internalType": "uint8",
          "name": "",
          "type": "uint8"
        }
      ],
      "name": "categoryPower",
      "outputs": [
        {
          "internalType": "uint256",
          "name": "",
          "type": "uint256"
        }
      ],
      "stateMutability": "view",
      "type": "function"
    },
    {
      "inputs": [],
      "name": "decimals",
      "outputs": [
        {
          "internalType": "uint8",
          "name": "",
          "type": "uint8"
        }
      ],
      "stateMutability": "view",
      "type": "function"
    },
    {
      "inputs": [
        {
          "internalType": "address",
          "name": "_token",
          "type": "address"
        },
        {
          "internalType": "uint256",
          "name": "_value",
          "type": "uint256"
        }
      ],
      "name": "depositERC20",
      "outputs": [],
      "stateMutability": "nonpayable",
      "type": "function"
    },
    {
      "inputs": [
        {
          "internalType": "address",
          "name": "_token",
          "type": "address"
        }
      ],
      "name": "getInterestRate",
      "outputs": [
        {
          "internalType": "uint256",
          "name": "",
          "type": "uint256"
        }
      ],
      "stateMutability": "view",
      "type": "function"
    },
    {
      "inputs": [
        {
          "internalType": "address",
          "name": "_token",
          "type": "address"
        }
      ],
      "name": "getLatestPrice",
      "outputs": [
        {
          "internalType": "uint256",
          "name": "",
          "type": "uint256"
        }
      ],
      "stateMutability": "view",
      "type": "function"
    },
    {
      "inputs": [
        {
          "internalType": "address",
          "name": "collateralAsset",
          "type": "address"
        },
        {
          "internalType": "address",
          "name": "debtAsset",
          "type": "address"
        },
        {
          "internalType": "address",
          "name": "user",
          "type": "address"
        },
        {
          "internalType": "uint256",
          "name": "debtToCover",
          "type": "uint256"
        }
      ],
      "name": "liquidationCall",
      "outputs": [],
      "stateMutability": "nonpayable",
      "type": "function"
    },
    {
      "inputs": [
        {
          "internalType": "address",
          "name": "_token",
          "type": "address"
        },
        {
          "internalType": "uint256",
          "name": "_value",
          "type": "uint256"
        }
      ],
      "name": "payBackERC20",
      "outputs": [],
      "stateMutability": "nonpayable",
      "type": "function"
    },
    {
      "inputs": [
        {
          "internalType": "uint256",
          "name": "_value",
          "type": "uint256"
        }
      ],
      "name": "setBaseMaxBorrow",
      "outputs": [],
      "stateMutability": "nonpayable",
      "type": "function"
    },
    {
      "inputs": [
        {
          "internalType": "address",
          "name": "",
          "type": "address"
        }
      ],
      "name": "soulBoundCategories",
      "outputs": [
        {
          "internalType": "uint8",
          "name": "",
          "type": "uint8"
        }
      ],
      "stateMutability": "view",
      "type": "function"
    },
    {
      "inputs": [
        {
          "internalType": "uint256",
          "name": "",
          "type": "uint256"
        }
      ],
      "name": "soulBoundList",
      "outputs": [
        {
          "internalType": "address",
          "name": "",
          "type": "address"
        }
      ],
      "stateMutability": "view",
      "type": "function"
    },
    {
      "inputs": [
        {
          "internalType": "address",
          "name": "",
          "type": "address"
        }
      ],
      "name": "tokenFixedInterestRate",
      "outputs": [
        {
          "internalType": "uint256",
          "name": "",
          "type": "uint256"
        }
      ],
      "stateMutability": "view",
      "type": "function"
    },
    {
      "inputs": [
        {
          "internalType": "address",
          "name": "",
          "type": "address"
        }
      ],
      "name": "tokenToOracleToken",
      "outputs": [
        {
          "internalType": "address",
          "name": "",
          "type": "address"
        }
      ],
      "stateMutability": "view",
      "type": "function"
    },
    {
      "inputs": [],
      "name": "updateAllBalances",
      "outputs": [],
      "stateMutability": "nonpayable",
      "type": "function"
    },
    {
      "inputs": [
        {
          "internalType": "address",
          "name": "_token",
          "type": "address"
        }
      ],
      "name": "updateBalanceWithInterestRate",
      "outputs": [],
      "stateMutability": "nonpayable",
      "type": "function"
    },
    {
      "inputs": [
        {
          "internalType": "address",
          "name": "",
          "type": "address"
        },
        {
          "internalType": "address",
          "name": "",
          "type": "address"
        }
      ],
      "name": "userLastTokenUpdate",
      "outputs": [
        {
          "internalType": "uint256",
          "name": "",
          "type": "uint256"
        }
      ],
      "stateMutability": "view",
      "type": "function"
    },
    {
      "inputs": [
        {
          "internalType": "address",
          "name": "_token",
          "type": "address"
        },
        {
          "internalType": "uint256",
          "name": "_value",
          "type": "uint256"
        }
      ],
      "name": "withdrawERC20",
      "outputs": [],
      "stateMutability": "nonpayable",
      "type": "function"
    }
  ],
  "bytecode": "0x60806040526046600c5534801561001557600080fd5b5033600e60006101000a81548173ffffffffffffffffffffffffffffffffffffffff021916908373ffffffffffffffffffffffffffffffffffffffff160217905550612fe6806100666000396000f3fe608060405234801561001057600080fd5b50600436106102115760003560e01c80639a0325bb11610125578063d3ea0f89116100ad578063eac9168b1161007c578063eac9168b146106b8578063efcf9312146106e8578063f0ca4adb14610704578063f35ffb6314610720578063f84228d11461075057610211565b8063d3ea0f891461061e578063d925d62b1461064e578063dfa811ba1461067e578063e10cb6c01461068857610211565b8063a9c51c04116100f4578063a9c51c0414610540578063b8c5c79314610570578063c085eb9b146105a0578063c8ce4d0e146105d0578063c9e1fbf61461060057610211565b80639a0325bb146104945780639ff0fbe9146104c4578063a1db9782146104f4578063a24a7c301461051057610211565b80634c879f85116101a857806371ab77851161017757806371ab7785146103e057806379e40cba146104105780638e827bde1461042c5780638f7c25101461045c57806397feb9261461047857610211565b80634c879f85146103345780634ddb38df146103645780634ec4d2d31461038057806355c81369146103b057610211565b8063267c3542116101e4578063267c35421461029a578063313ce567146102b65780633ab5f744146102d45780633bb228111461030457610211565b80630567d9e61461021657806316345f1814610232578063186f926314610262578063240a51be1461027e575b600080fd5b610230600480360381019061022b919061277b565b61076c565b005b61024c6004803603810190610247919061277b565b610884565b6040516102599190612b0d565b60405180910390f35b61027c6004803603810190610277919061277b565b610a7f565b005b61029860048036038101906102939190612843565b610e8c565b005b6102b460048036038101906102af9190612843565b6110da565b005b6102be611122565b6040516102cb9190612b28565b60405180910390f35b6102ee60048036038101906102e9919061277b565b611127565b6040516102fb9190612a4e565b60405180910390f35b61031e600480360381019061031991906128f7565b61115a565b60405161032b9190612a4e565b60405180910390f35b61034e6004803603810190610349919061277b565b611199565b60405161035b9190612b0d565b60405180910390f35b61037e600480360381019061037991906128f7565b611495565b005b61039a6004803603810190610395919061277b565b61149f565b6040516103a79190612b0d565b60405180910390f35b6103ca60048036038101906103c5919061277b565b61164c565b6040516103d79190612b0d565b60405180910390f35b6103fa60048036038101906103f591906127a4565b611689565b6040516104079190612b0d565b60405180910390f35b61042a6004803603810190610425919061277b565b6116ae565b005b610446600480360381019061044191906127a4565b61176c565b6040516104539190612b0d565b60405180910390f35b610476600480360381019061047191906127e0565b611791565b005b610492600480360381019061048d9190612843565b611aab565b005b6104ae60048036038101906104a991906128f7565b611d05565b6040516104bb9190612a4e565b60405180910390f35b6104de60048036038101906104d99190612949565b611d44565b6040516104eb9190612b0d565b60405180910390f35b61050e60048036038101906105099190612843565b611d5c565b005b61052a6004803603810190610525919061277b565b611f14565b6040516105379190612b0d565b60405180910390f35b61055a6004803603810190610555919061277b565b611f2c565b6040516105679190612b0d565b60405180910390f35b61058a6004803603810190610585919061277b565b6120c1565b6040516105979190612a4e565b60405180910390f35b6105ba60048036038101906105b5919061277b565b6120f4565b6040516105c79190612b0d565b60405180910390f35b6105ea60048036038101906105e591906127a4565b61213a565b6040516105f79190612b0d565b60405180910390f35b61060861215f565b6040516106159190612b0d565b60405180910390f35b6106386004803603810190610633919061277b565b612165565b6040516106459190612b0d565b60405180910390f35b610668600480360381019061066391906128f7565b6121ae565b6040516106759190612a4e565b60405180910390f35b6106866121ed565b005b6106a2600480360381019061069d919061277b565b612280565b6040516106af9190612b28565b60405180910390f35b6106d260048036038101906106cd919061277b565b6122a0565b6040516106df9190612af2565b60405180910390f35b61070260048036038101906106fd919061287f565b6122c0565b005b61071e600480360381019061071991906127a4565b612408565b005b61073a6004803603810190610735919061277b565b61248a565b6040516107479190612af2565b60405180910390f35b61076a60048036038101906107659190612843565b6124aa565b005b600e60009054906101000a900473ffffffffffffffffffffffffffffffffffffffff1673ffffffffffffffffffffffffffffffffffffffff163373ffffffffffffffffffffffffffffffffffffffff16146107c657600080fd5b600a819080600181540180825580915050600190039060005260206000200160009091909190916101000a81548173ffffffffffffffffffffffffffffffffffffffff021916908373ffffffffffffffffffffffffffffffffffffffff1602179055506001600760008373ffffffffffffffffffffffffffffffffffffffff1673ffffffffffffffffffffffffffffffffffffffff16815260200190815260200160002060006101000a81548160ff02191690831515021790555050565b600080600360008473ffffffffffffffffffffffffffffffffffffffff1673ffffffffffffffffffffffffffffffffffffffff16815260200190815260200160002060009054906101000a900473ffffffffffffffffffffffffffffffffffffffff1673ffffffffffffffffffffffffffffffffffffffff1663feaf968c6040518163ffffffff1660e01b815260040160a06040518083038186803b15801561092c57600080fd5b505afa158015610940573d6000803e3d6000fd5b505050506040513d601f19601f820116820180604052508101906109649190612972565b5050509150506000600360008573ffffffffffffffffffffffffffffffffffffffff1673ffffffffffffffffffffffffffffffffffffffff16815260200190815260200160002060009054906101000a900473ffffffffffffffffffffffffffffffffffffffff1673ffffffffffffffffffffffffffffffffffffffff1663313ce5676040518163ffffffff1660e01b815260040160206040518083038186803b158015610a1157600080fd5b505afa158015610a25573d6000803e3d6000fd5b505050506040513d601f19601f82011682018060405250810190610a4991906129e9565b9050610a76816012610a5b9190612dc9565b600a610a679190612c1d565b836126a790919063ffffffff16565b92505050919050565b6000600960003373ffffffffffffffffffffffffffffffffffffffff1673ffffffffffffffffffffffffffffffffffffffff16815260200190815260200160002060008373ffffffffffffffffffffffffffffffffffffffff1673ffffffffffffffffffffffffffffffffffffffff16815260200190815260200160002054905042600960003373ffffffffffffffffffffffffffffffffffffffff1673ffffffffffffffffffffffffffffffffffffffff16815260200190815260200160002060008473ffffffffffffffffffffffffffffffffffffffff1673ffffffffffffffffffffffffffffffffffffffff168152602001908152602001600020819055506000610ba56301e133808342610b979190612d95565b6126bd90919063ffffffff16565b90506000600660008573ffffffffffffffffffffffffffffffffffffffff1673ffffffffffffffffffffffffffffffffffffffff16815260200190815260200160002060003373ffffffffffffffffffffffffffffffffffffffff1673ffffffffffffffffffffffffffffffffffffffff16815260200190815260200160002054600d60008673ffffffffffffffffffffffffffffffffffffffff1673ffffffffffffffffffffffffffffffffffffffff1681526020019081526020016000205483610c719190612d3b565b610c7b9190612d3b565b90506000600660008673ffffffffffffffffffffffffffffffffffffffff1673ffffffffffffffffffffffffffffffffffffffff16815260200190815260200160002060003373ffffffffffffffffffffffffffffffffffffffff1673ffffffffffffffffffffffffffffffffffffffff168152602001908152602001600020546002600d60008873ffffffffffffffffffffffffffffffffffffffff1673ffffffffffffffffffffffffffffffffffffffff16815260200190815260200160002054610d489190612b43565b84610d539190612d3b565b610d5d9190612d3b565b905081600660008773ffffffffffffffffffffffffffffffffffffffff1673ffffffffffffffffffffffffffffffffffffffff16815260200190815260200160002060003373ffffffffffffffffffffffffffffffffffffffff1673ffffffffffffffffffffffffffffffffffffffff1681526020019081526020016000206000828254610deb9190612b43565b9250508190555081600560008773ffffffffffffffffffffffffffffffffffffffff1673ffffffffffffffffffffffffffffffffffffffff16815260200190815260200160002060003373ffffffffffffffffffffffffffffffffffffffff1673ffffffffffffffffffffffffffffffffffffffff1681526020019081526020016000206000828254610e7e9190612b43565b925050819055505050505050565b808273ffffffffffffffffffffffffffffffffffffffff1663dd62ed3e33306040518363ffffffff1660e01b8152600401610ec8929190612a69565b60206040518083038186803b158015610ee057600080fd5b505afa158015610ef4573d6000803e3d6000fd5b505050506040513d601f19601f82011682018060405250810190610f189190612920565b11610f2257600080fd5b610f2a6121ed565b80600560008473ffffffffffffffffffffffffffffffffffffffff1673ffffffffffffffffffffffffffffffffffffffff16815260200190815260200160002060003373ffffffffffffffffffffffffffffffffffffffff1673ffffffffffffffffffffffffffffffffffffffff168152602001908152602001600020541015610fb357600080fd5b8173ffffffffffffffffffffffffffffffffffffffff166323b872dd3330846040518463ffffffff1660e01b8152600401610ff093929190612a92565b602060405180830381600087803b15801561100a57600080fd5b505af115801561101e573d6000803e3d6000fd5b505050506040513d601f19601f8201168201806040525081019061104291906128ce565b5080600560008473ffffffffffffffffffffffffffffffffffffffff1673ffffffffffffffffffffffffffffffffffffffff16815260200190815260200160002060003373ffffffffffffffffffffffffffffffffffffffff1673ffffffffffffffffffffffffffffffffffffffff16815260200190815260200160002060008282546110cf9190612d95565b925050819055505050565b80600d60008473ffffffffffffffffffffffffffffffffffffffff1673ffffffffffffffffffffffffffffffffffffffff168152602001908152602001600020819055505050565b601281565b60036020528060005260406000206000915054906101000a900473ffffffffffffffffffffffffffffffffffffffff1681565b600b818154811061116a57600080fd5b906000526020600020016000915054906101000a900473ffffffffffffffffffffffffffffffffffffffff1681565b600080600c54905060005b60008054905081101561148b5760008082815481106111ec577f4e487b7100000000000000000000000000000000000000000000000000000000600052603260045260246000fd5b9060005260206000200160009054906101000a900473ffffffffffffffffffffffffffffffffffffffff1673ffffffffffffffffffffffffffffffffffffffff166370a08231866040518263ffffffff1660e01b815260040161124f9190612a4e565b60206040518083038186803b15801561126757600080fd5b505afa15801561127b573d6000803e3d6000fd5b505050506040513d601f19601f8201168201806040525081019061129f9190612920565b905060008083815481106112dc577f4e487b7100000000000000000000000000000000000000000000000000000000600052603260045260246000fd5b9060005260206000200160009054906101000a900473ffffffffffffffffffffffffffffffffffffffff1673ffffffffffffffffffffffffffffffffffffffff166370a08231876040518263ffffffff1660e01b815260040161133f9190612a4e565b60206040518083038186803b15801561135757600080fd5b505afa15801561136b573d6000803e3d6000fd5b505050506040513d601f19601f8201168201806040525081019061138f9190612920565b1115611477578060026000600160008087815481106113d7577f4e487b7100000000000000000000000000000000000000000000000000000000600052603260045260246000fd5b9060005260206000200160009054906101000a900473ffffffffffffffffffffffffffffffffffffffff1673ffffffffffffffffffffffffffffffffffffffff1673ffffffffffffffffffffffffffffffffffffffff16815260200190815260200160002060009054906101000a900460ff1660ff1660ff168152602001908152602001600020546114699190612d3b565b836114749190612b43565b92505b50808061148390612e72565b9150506111a4565b5080915050919050565b80600c8190555050565b60008060005b600b80549050811015611642576012600a6114c09190612c1d565b61152d600b83815481106114fd577f4e487b7100000000000000000000000000000000000000000000000000000000600052603260045260246000fd5b9060005260206000200160009054906101000a900473ffffffffffffffffffffffffffffffffffffffff16610884565b60066000600b858154811061156b577f4e487b7100000000000000000000000000000000000000000000000000000000600052603260045260246000fd5b9060005260206000200160009054906101000a900473ffffffffffffffffffffffffffffffffffffffff1673ffffffffffffffffffffffffffffffffffffffff1673ffffffffffffffffffffffffffffffffffffffff16815260200190815260200160002060008773ffffffffffffffffffffffffffffffffffffffff1673ffffffffffffffffffffffffffffffffffffffff168152602001908152602001600020546116189190612d3b565b6116229190612b99565b8261162d9190612b43565b9150808061163a90612e72565b9150506114a5565b5080915050919050565b60008061165883611199565b905061168160646116688561149f565b836116739190612d3b565b6126bd90919063ffffffff16565b915050919050565b6009602052816000526040600020602052806000526040600020600091509150505481565b600b819080600181540180825580915050600190039060005260206000200160009091909190916101000a81548173ffffffffffffffffffffffffffffffffffffffff021916908373ffffffffffffffffffffffffffffffffffffffff1602179055506001600860008373ffffffffffffffffffffffffffffffffffffffff1673ffffffffffffffffffffffffffffffffffffffff16815260200190815260200160002060006101000a81548160ff02191690831515021790555050565b6005602052816000526040600020602052806000526040600020600091509150505481565b6117996121ed565b808373ffffffffffffffffffffffffffffffffffffffff1663dd62ed3e33306040518363ffffffff1660e01b81526004016117d5929190612a69565b60206040518083038186803b1580156117ed57600080fd5b505afa158015611801573d6000803e3d6000fd5b505050506040513d601f19601f820116820180604052508101906118259190612920565b1161182f57600080fd5b80600560008573ffffffffffffffffffffffffffffffffffffffff1673ffffffffffffffffffffffffffffffffffffffff16815260200190815260200160002060008473ffffffffffffffffffffffffffffffffffffffff1673ffffffffffffffffffffffffffffffffffffffff16815260200190815260200160002060008282546118bb9190612d95565b925050819055508273ffffffffffffffffffffffffffffffffffffffff166323b872dd3330846040518463ffffffff1660e01b81526004016118ff93929190612a92565b602060405180830381600087803b15801561191957600080fd5b505af115801561192d573d6000803e3d6000fd5b505050506040513d601f19601f8201168201806040525081019061195191906128ce565b506000819050600061198060646119726069856126a790919063ffffffff16565b6126bd90919063ffffffff16565b905080600660008873ffffffffffffffffffffffffffffffffffffffff1673ffffffffffffffffffffffffffffffffffffffff16815260200190815260200160002060008673ffffffffffffffffffffffffffffffffffffffff1673ffffffffffffffffffffffffffffffffffffffff1681526020019081526020016000206000828254611a0e9190612d95565b925050819055508573ffffffffffffffffffffffffffffffffffffffff1663a9059cbb33836040518363ffffffff1660e01b8152600401611a50929190612ac9565b602060405180830381600087803b158015611a6a57600080fd5b505af1158015611a7e573d6000803e3d6000fd5b505050506040513d601f19601f82011682018060405250810190611aa291906128ce565b50505050505050565b808273ffffffffffffffffffffffffffffffffffffffff1663dd62ed3e33306040518363ffffffff1660e01b8152600401611ae7929190612a69565b60206040518083038186803b158015611aff57600080fd5b505afa158015611b13573d6000803e3d6000fd5b505050506040513d601f19601f82011682018060405250810190611b379190612920565b11611b4157600080fd5b808273ffffffffffffffffffffffffffffffffffffffff166370a08231336040518263ffffffff1660e01b8152600401611b7b9190612a4e565b60206040518083038186803b158015611b9357600080fd5b505afa158015611ba7573d6000803e3d6000fd5b505050506040513d601f19601f82011682018060405250810190611bcb9190612920565b1015611bd657600080fd5b611bde6121ed565b8173ffffffffffffffffffffffffffffffffffffffff166323b872dd3330846040518463ffffffff1660e01b8152600401611c1b93929190612a92565b602060405180830381600087803b158015611c3557600080fd5b505af1158015611c49573d6000803e3d6000fd5b505050506040513d601f19601f82011682018060405250810190611c6d91906128ce565b5080600660008473ffffffffffffffffffffffffffffffffffffffff1673ffffffffffffffffffffffffffffffffffffffff16815260200190815260200160002060003373ffffffffffffffffffffffffffffffffffffffff1673ffffffffffffffffffffffffffffffffffffffff1681526020019081526020016000206000828254611cfa9190612b43565b925050819055505050565b600a8181548110611d1557600080fd5b906000526020600020016000915054906101000a900473ffffffffffffffffffffffffffffffffffffffff1681565b60026020528060005260406000206000915090505481565b611d646121ed565b80600660008473ffffffffffffffffffffffffffffffffffffffff1673ffffffffffffffffffffffffffffffffffffffff16815260200190815260200160002060003373ffffffffffffffffffffffffffffffffffffffff1673ffffffffffffffffffffffffffffffffffffffff168152602001908152602001600020541015611ded57600080fd5b80600660008473ffffffffffffffffffffffffffffffffffffffff1673ffffffffffffffffffffffffffffffffffffffff16815260200190815260200160002060003373ffffffffffffffffffffffffffffffffffffffff1673ffffffffffffffffffffffffffffffffffffffff1681526020019081526020016000206000828254611e799190612d95565b925050819055508173ffffffffffffffffffffffffffffffffffffffff166323b872dd3330846040518463ffffffff1660e01b8152600401611ebd93929190612a92565b602060405180830381600087803b158015611ed757600080fd5b505af1158015611eeb573d6000803e3d6000fd5b505050506040513d601f19601f82011682018060405250810190611f0f91906128ce565b505050565b600d6020528060005260406000206000915090505481565b60008060005b600a805490508110156120b757611fac600a8281548110611f7c577f4e487b7100000000000000000000000000000000000000000000000000000000600052603260045260246000fd5b9060005260206000200160009054906101000a900473ffffffffffffffffffffffffffffffffffffffff16610884565b60056000600a8481548110611fea577f4e487b7100000000000000000000000000000000000000000000000000000000600052603260045260246000fd5b9060005260206000200160009054906101000a900473ffffffffffffffffffffffffffffffffffffffff1673ffffffffffffffffffffffffffffffffffffffff1673ffffffffffffffffffffffffffffffffffffffff16815260200190815260200160002060008673ffffffffffffffffffffffffffffffffffffffff1673ffffffffffffffffffffffffffffffffffffffff168152602001908152602001600020546120979190612d3b565b826120a29190612b43565b915080806120af90612e72565b915050611f32565b5080915050919050565b60046020528060005260406000206000915054906101000a900473ffffffffffffffffffffffffffffffffffffffff1681565b6000806121008361149f565b9050600061210d84611f2c565b905060008083111561212f5761212c83836126bd90919063ffffffff16565b90505b809350505050919050565b6006602052816000526040600020602052806000526040600020600091509150505481565b600c5481565b6000600d60008373ffffffffffffffffffffffffffffffffffffffff1673ffffffffffffffffffffffffffffffffffffffff168152602001908152602001600020549050919050565b600081815481106121be57600080fd5b906000526020600020016000915054906101000a900473ffffffffffffffffffffffffffffffffffffffff1681565b60005b600a8054905081101561227d5761226a600a828154811061223a577f4e487b7100000000000000000000000000000000000000000000000000000000600052603260045260246000fd5b9060005260206000200160009054906101000a900473ffffffffffffffffffffffffffffffffffffffff16610a7f565b808061227590612e72565b9150506121f0565b50565b60016020528060005260406000206000915054906101000a900460ff1681565b60086020528060005260406000206000915054906101000a900460ff1681565b600e60009054906101000a900473ffffffffffffffffffffffffffffffffffffffff1673ffffffffffffffffffffffffffffffffffffffff163373ffffffffffffffffffffffffffffffffffffffff161461231a57600080fd5b60008260ff161161232a57600080fd5b6000839080600181540180825580915050600190039060005260206000200160009091909190916101000a81548173ffffffffffffffffffffffffffffffffffffffff021916908373ffffffffffffffffffffffffffffffffffffffff16021790555081600160008573ffffffffffffffffffffffffffffffffffffffff1673ffffffffffffffffffffffffffffffffffffffff16815260200190815260200160002060006101000a81548160ff021916908360ff16021790555080600260008460ff1660ff16815260200190815260200160002081905550505050565b80600360008473ffffffffffffffffffffffffffffffffffffffff1673ffffffffffffffffffffffffffffffffffffffff16815260200190815260200160002060006101000a81548173ffffffffffffffffffffffffffffffffffffffff021916908373ffffffffffffffffffffffffffffffffffffffff1602179055505050565b60076020528060005260406000206000915054906101000a900460ff1681565b808273ffffffffffffffffffffffffffffffffffffffff166370a08231306040518263ffffffff1660e01b81526004016124e49190612a4e565b60206040518083038186803b1580156124fc57600080fd5b505afa158015612510573d6000803e3d6000fd5b505050506040513d601f19601f820116820180604052508101906125349190612920565b101561253f57600080fd5b6125476121ed565b6125503361164c565b61255983610884565b826125649190612d3b565b61256d33611f2c565b6125779190612b43565b111561258257600080fd5b80600560008473ffffffffffffffffffffffffffffffffffffffff1673ffffffffffffffffffffffffffffffffffffffff16815260200190815260200160002060003373ffffffffffffffffffffffffffffffffffffffff1673ffffffffffffffffffffffffffffffffffffffff168152602001908152602001600020600082825461260e9190612b43565b925050819055508173ffffffffffffffffffffffffffffffffffffffff1663a9059cbb33836040518363ffffffff1660e01b8152600401612650929190612ac9565b602060405180830381600087803b15801561266a57600080fd5b505af115801561267e573d6000803e3d6000fd5b505050506040513d601f19601f820116820180604052508101906126a291906128ce565b505050565b600081836126b59190612d3b565b905092915050565b600081836126cb9190612b99565b905092915050565b6000813590506126e281612f26565b92915050565b6000815190506126f781612f3d565b92915050565b60008151905061270c81612f54565b92915050565b60008135905061272181612f6b565b92915050565b60008151905061273681612f6b565b92915050565b60008135905061274b81612f82565b92915050565b60008151905061276081612f99565b92915050565b60008151905061277581612f82565b92915050565b60006020828403121561278d57600080fd5b600061279b848285016126d3565b91505092915050565b600080604083850312156127b757600080fd5b60006127c5858286016126d3565b92505060206127d6858286016126d3565b9150509250929050565b600080600080608085870312156127f657600080fd5b6000612804878288016126d3565b9450506020612815878288016126d3565b9350506040612826878288016126d3565b925050606061283787828801612712565b91505092959194509250565b6000806040838503121561285657600080fd5b6000612864858286016126d3565b925050602061287585828601612712565b9150509250929050565b60008060006060848603121561289457600080fd5b60006128a2868287016126d3565b93505060206128b38682870161273c565b92505060406128c486828701612712565b9150509250925092565b6000602082840312156128e057600080fd5b60006128ee848285016126e8565b91505092915050565b60006020828403121561290957600080fd5b600061291784828501612712565b91505092915050565b60006020828403121561293257600080fd5b600061294084828501612727565b91505092915050565b60006020828403121561295b57600080fd5b60006129698482850161273c565b91505092915050565b600080600080600060a0868803121561298a57600080fd5b600061299888828901612751565b95505060206129a9888289016126fd565b94505060406129ba88828901612727565b93505060606129cb88828901612727565b92505060806129dc88828901612751565b9150509295509295909350565b6000602082840312156129fb57600080fd5b6000612a0984828501612766565b91505092915050565b612a1b81612dfd565b82525050565b612a2a81612e0f565b82525050565b612a3981612e45565b82525050565b612a4881612e4f565b82525050565b6000602082019050612a636000830184612a12565b92915050565b6000604082019050612a7e6000830185612a12565b612a8b6020830184612a12565b9392505050565b6000606082019050612aa76000830186612a12565b612ab46020830185612a12565b612ac16040830184612a30565b949350505050565b6000604082019050612ade6000830185612a12565b612aeb6020830184612a30565b9392505050565b6000602082019050612b076000830184612a21565b92915050565b6000602082019050612b226000830184612a30565b92915050565b6000602082019050612b3d6000830184612a3f565b92915050565b6000612b4e82612e45565b9150612b5983612e45565b9250827fffffffffffffffffffffffffffffffffffffffffffffffffffffffffffffffff03821115612b8e57612b8d612ebb565b5b828201905092915050565b6000612ba482612e45565b9150612baf83612e45565b925082612bbf57612bbe612eea565b5b828204905092915050565b6000808291508390505b6001851115612c1457808604811115612bf057612bef612ebb565b5b6001851615612bff5780820291505b8081029050612c0d85612f19565b9450612bd4565b94509492505050565b6000612c2882612e45565b9150612c3383612e4f565b9250612c607fffffffffffffffffffffffffffffffffffffffffffffffffffffffffffffffff8484612c68565b905092915050565b600082612c785760019050612d34565b81612c865760009050612d34565b8160018114612c9c5760028114612ca657612cd5565b6001915050612d34565b60ff841115612cb857612cb7612ebb565b5b8360020a915084821115612ccf57612cce612ebb565b5b50612d34565b5060208310610133831016604e8410600b8410161715612d0a5782820a905083811115612d0557612d04612ebb565b5b612d34565b612d178484846001612bca565b92509050818404811115612d2e57612d2d612ebb565b5b81810290505b9392505050565b6000612d4682612e45565b9150612d5183612e45565b9250817fffffffffffffffffffffffffffffffffffffffffffffffffffffffffffffffff0483118215151615612d8a57612d89612ebb565b5b828202905092915050565b6000612da082612e45565b9150612dab83612e45565b925082821015612dbe57612dbd612ebb565b5b828203905092915050565b6000612dd482612e4f565b9150612ddf83612e4f565b925082821015612df257612df1612ebb565b5b828203905092915050565b6000612e0882612e25565b9050919050565b60008115159050919050565b6000819050919050565b600073ffffffffffffffffffffffffffffffffffffffff82169050919050565b6000819050919050565b600060ff82169050919050565b600069ffffffffffffffffffff82169050919050565b6000612e7d82612e45565b91507fffffffffffffffffffffffffffffffffffffffffffffffffffffffffffffffff821415612eb057612eaf612ebb565b5b600182019050919050565b7f4e487b7100000000000000000000000000000000000000000000000000000000600052601160045260246000fd5b7f4e487b7100000000000000000000000000000000000000000000000000000000600052601260045260246000fd5b60008160011c9050919050565b612f2f81612dfd565b8114612f3a57600080fd5b50565b612f4681612e0f565b8114612f5157600080fd5b50565b612f5d81612e1b565b8114612f6857600080fd5b50565b612f7481612e45565b8114612f7f57600080fd5b50565b612f8b81612e4f565b8114612f9657600080fd5b50565b612fa281612e5c565b8114612fad57600080fd5b5056fea2646970667358221220473d822e381086033a58d255f2b656084d361c2ebeedfd8141cadd31aadf19e864736f6c63430008040033",
  "linkReferences": {},
  "deployedLinkReferences": {}
}