{
  "_format": "hh-sol-artifact-1",
  "contractName": "sbLending",
  "sourceName": "contracts/sbLending-V0.sol",
  "abi": [
    {
      "inputs": [],
      "stateMutability": "nonpayable",
      "type": "constructor"
    },
    {
      "inputs": [
        {
          "internalType": "address",
          "name": "",
          "type": "address"
        },
        {
          "internalType": "address",
          "name": "",
          "type": "address"
        }
      ],
      "name": "ERC20BorrowList",
      "outputs": [
        {
          "internalType": "uint256",
          "name": "",
          "type": "uint256"
        }
      ],
      "stateMutability": "view",
      "type": "function"
    },
    {
      "inputs": [
        {
          "internalType": "uint256",
          "name": "",
          "type": "uint256"
        }
      ],
      "name": "ERC20BorrowTokens",
      "outputs": [
        {
          "internalType": "address",
          "name": "",
          "type": "address"
        }
      ],
      "stateMutability": "view",
      "type": "function"
    },
    {
      "inputs": [
        {
          "internalType": "address",
          "name": "",
          "type": "address"
        },
        {
          "internalType": "address",
          "name": "",
          "type": "address"
        }
      ],
      "name": "ERC20DepositList",
      "outputs": [
        {
          "internalType": "uint256",
          "name": "",
          "type": "uint256"
        }
      ],
      "stateMutability": "view",
      "type": "function"
    },
    {
      "inputs": [
        {
          "internalType": "uint256",
          "name": "",
          "type": "uint256"
        }
      ],
      "name": "ERC20DepositTokens",
      "outputs": [
        {
          "internalType": "address",
          "name": "",
          "type": "address"
        }
      ],
      "stateMutability": "view",
      "type": "function"
    },
    {
      "inputs": [
        {
          "internalType": "address",
          "name": "",
          "type": "address"
        }
      ],
      "name": "ERC20Oracles",
      "outputs": [
        {
          "internalType": "address",
          "name": "",
          "type": "address"
        }
      ],
      "stateMutability": "view",
      "type": "function"
    },
    {
      "inputs": [
        {
          "internalType": "address",
          "name": "_token",
          "type": "address"
        }
      ],
      "name": "addBorrowToken",
      "outputs": [],
      "stateMutability": "nonpayable",
      "type": "function"
    },
    {
      "inputs": [
        {
          "internalType": "address",
          "name": "_token",
          "type": "address"
        }
      ],
      "name": "addDepositToken",
      "outputs": [],
      "stateMutability": "nonpayable",
      "type": "function"
    },
    {
      "inputs": [
        {
          "internalType": "address",
          "name": "_token",
          "type": "address"
        },
        {
          "internalType": "address",
          "name": "_oracle",
          "type": "address"
        }
      ],
      "name": "addOracle",
      "outputs": [],
      "stateMutability": "nonpayable",
      "type": "function"
    },
    {
      "inputs": [
        {
          "internalType": "address",
          "name": "_token",
          "type": "address"
        },
        {
          "internalType": "uint8",
          "name": "_category",
          "type": "uint8"
        },
        {
          "internalType": "uint256",
          "name": "_power",
          "type": "uint256"
        }
      ],
      "name": "addSoulBondToken",
      "outputs": [],
      "stateMutability": "nonpayable",
      "type": "function"
    },
    {
      "inputs": [
        {
          "internalType": "address",
          "name": "_token",
          "type": "address"
        },
        {
          "internalType": "uint256",
          "name": "_interestRate",
          "type": "uint256"
        }
      ],
      "name": "addTokenInterestFixedInterestRate",
      "outputs": [],
      "stateMutability": "nonpayable",
      "type": "function"
    },
    {
      "inputs": [
        {
          "internalType": "address",
          "name": "",
          "type": "address"
        }
      ],
      "name": "allowedBorrowedTokens",
      "outputs": [
        {
          "internalType": "bool",
          "name": "",
          "type": "bool"
        }
      ],
      "stateMutability": "view",
      "type": "function"
    },
    {
      "inputs": [
        {
          "internalType": "address",
          "name": "",
          "type": "address"
        }
      ],
      "name": "allowedDepositTokens",
      "outputs": [
        {
          "internalType": "bool",
          "name": "",
          "type": "bool"
        }
      ],
      "stateMutability": "view",
      "type": "function"
    },
    {
      "inputs": [],
      "name": "baseMaxBorrow",
      "outputs": [
        {
          "internalType": "uint256",
          "name": "",
          "type": "uint256"
        }
      ],
      "stateMutability": "view",
      "type": "function"
    },
    {
      "inputs": [
        {
          "internalType": "address",
          "name": "_token",
          "type": "address"
        },
        {
          "internalType": "uint256",
          "name": "_value",
          "type": "uint256"
        }
      ],
      "name": "borrowERC20",
      "outputs": [],
      "stateMutability": "nonpayable",
      "type": "function"
    },
    {
      "inputs": [
        {
          "internalType": "address",
          "name": "_user",
          "type": "address"
        }
      ],
      "name": "calculateCollateralPercentage",
      "outputs": [
        {
          "internalType": "uint256",
          "name": "",
          "type": "uint256"
        }
      ],
      "stateMutability": "view",
      "type": "function"
    },
    {
      "inputs": [
        {
          "internalType": "address",
          "name": "_user",
          "type": "address"
        }
      ],
      "name": "calculateMaxBorrow",
      "outputs": [
        {
          "internalType": "uint256",
          "name": "",
          "type": "uint256"
        }
      ],
      "stateMutability": "view",
      "type": "function"
    },
    {
      "inputs": [
        {
          "internalType": "address",
          "name": "_user",
          "type": "address"
        }
      ],
      "name": "calculateMaxBorrowPercentage",
      "outputs": [
        {
          "internalType": "uint256",
          "name": "",
          "type": "uint256"
        }
      ],
      "stateMutability": "view",
      "type": "function"
    },
    {
      "inputs": [
        {
          "internalType": "address",
          "name": "_user",
          "type": "address"
        }
      ],
      "name": "calculateTotalBorrowed",
      "outputs": [
        {
          "internalType": "uint256",
          "name": "",
          "type": "uint256"
        }
      ],
      "stateMutability": "view",
      "type": "function"
    },
    {
      "inputs": [
        {
          "internalType": "address",
          "name": "_user",
          "type": "address"
        }
      ],
      "name": "calculateTotalDeposit",
      "outputs": [
        {
          "internalType": "uint256",
          "name": "",
          "type": "uint256"
        }
      ],
      "stateMutability": "view",
      "type": "function"
    },
    {
      "inputs": [
        {
          "internalType": "uint8",
          "name": "",
          "type": "uint8"
        }
      ],
      "name": "categoryPower",
      "outputs": [
        {
          "internalType": "uint256",
          "name": "",
          "type": "uint256"
        }
      ],
      "stateMutability": "view",
      "type": "function"
    },
    {
      "inputs": [],
      "name": "decimals",
      "outputs": [
        {
          "internalType": "uint8",
          "name": "",
          "type": "uint8"
        }
      ],
      "stateMutability": "view",
      "type": "function"
    },
    {
      "inputs": [
        {
          "internalType": "address",
          "name": "_token",
          "type": "address"
        },
        {
          "internalType": "uint256",
          "name": "_value",
          "type": "uint256"
        }
      ],
      "name": "depositERC20",
      "outputs": [],
      "stateMutability": "nonpayable",
      "type": "function"
    },
    {
      "inputs": [
        {
          "internalType": "address",
          "name": "_token",
          "type": "address"
        }
      ],
      "name": "getInterestRate",
      "outputs": [
        {
          "internalType": "uint256",
          "name": "",
          "type": "uint256"
        }
      ],
      "stateMutability": "view",
      "type": "function"
    },
    {
      "inputs": [
        {
          "internalType": "address",
          "name": "_token",
          "type": "address"
        }
      ],
      "name": "getLatestPrice",
      "outputs": [
        {
          "internalType": "uint256",
          "name": "",
          "type": "uint256"
        }
      ],
      "stateMutability": "view",
      "type": "function"
    },
    {
      "inputs": [
        {
          "internalType": "address",
          "name": "collateralAsset",
          "type": "address"
        },
        {
          "internalType": "address",
          "name": "debtAsset",
          "type": "address"
        },
        {
          "internalType": "address",
          "name": "user",
          "type": "address"
        },
        {
          "internalType": "uint256",
          "name": "debtToCover",
          "type": "uint256"
        }
      ],
      "name": "liquidationCall",
      "outputs": [],
      "stateMutability": "nonpayable",
      "type": "function"
    },
    {
      "inputs": [
        {
          "internalType": "address",
          "name": "_token",
          "type": "address"
        },
        {
          "internalType": "uint256",
          "name": "_value",
          "type": "uint256"
        }
      ],
      "name": "payBackERC20",
      "outputs": [],
      "stateMutability": "nonpayable",
      "type": "function"
    },
    {
      "inputs": [
        {
          "internalType": "uint256",
          "name": "_value",
          "type": "uint256"
        }
      ],
      "name": "setBaseMaxBorrow",
      "outputs": [],
      "stateMutability": "nonpayable",
      "type": "function"
    },
    {
      "inputs": [
        {
          "internalType": "address",
          "name": "",
          "type": "address"
        }
      ],
      "name": "soulBondCategories",
      "outputs": [
        {
          "internalType": "uint8",
          "name": "",
          "type": "uint8"
        }
      ],
      "stateMutability": "view",
      "type": "function"
    },
    {
      "inputs": [
        {
          "internalType": "uint256",
          "name": "",
          "type": "uint256"
        }
      ],
      "name": "soulBondList",
      "outputs": [
        {
          "internalType": "address",
          "name": "",
          "type": "address"
        }
      ],
      "stateMutability": "view",
      "type": "function"
    },
    {
      "inputs": [
        {
          "internalType": "address",
          "name": "",
          "type": "address"
        }
      ],
      "name": "tokenFixedInterestRate",
      "outputs": [
        {
          "internalType": "uint256",
          "name": "",
          "type": "uint256"
        }
      ],
      "stateMutability": "view",
      "type": "function"
    },
    {
      "inputs": [
        {
          "internalType": "address",
          "name": "",
          "type": "address"
        }
      ],
      "name": "tokenToOracleToken",
      "outputs": [
        {
          "internalType": "address",
          "name": "",
          "type": "address"
        }
      ],
      "stateMutability": "view",
      "type": "function"
    },
    {
      "inputs": [],
      "name": "updateAllBalances",
      "outputs": [],
      "stateMutability": "nonpayable",
      "type": "function"
    },
    {
      "inputs": [
        {
          "internalType": "address",
          "name": "_token",
          "type": "address"
        }
      ],
      "name": "updateBalanceWithInterestRate",
      "outputs": [],
      "stateMutability": "nonpayable",
      "type": "function"
    },
    {
      "inputs": [
        {
          "internalType": "address",
          "name": "",
          "type": "address"
        },
        {
          "internalType": "address",
          "name": "",
          "type": "address"
        }
      ],
      "name": "userLastTokenUpdate",
      "outputs": [
        {
          "internalType": "uint256",
          "name": "",
          "type": "uint256"
        }
      ],
      "stateMutability": "view",
      "type": "function"
    },
    {
      "inputs": [
        {
          "internalType": "address",
          "name": "_token",
          "type": "address"
        },
        {
          "internalType": "uint256",
          "name": "_value",
          "type": "uint256"
        }
      ],
      "name": "withdrawERC20",
      "outputs": [],
      "stateMutability": "nonpayable",
      "type": "function"
    }
  ],
  "bytecode": "0x60806040526046600c5534801561001557600080fd5b5033600e60006101000a81548173ffffffffffffffffffffffffffffffffffffffff021916908373ffffffffffffffffffffffffffffffffffffffff160217905550612ffe806100666000396000f3fe608060405234801561001057600080fd5b50600436106102115760003560e01c8063909046c811610125578063c085eb9b116100ad578063dfa811ba1161007c578063dfa811ba146106ca578063eac9168b146106d4578063f0ca4adb14610704578063f35ffb6314610720578063f84228d11461075057610211565b8063c085eb9b1461061c578063c8ce4d0e1461064c578063c9e1fbf61461067c578063d3ea0f891461069a57610211565b8063a1db9782116100f4578063a1db978214610540578063a24a7c301461055c578063a9c51c041461058c578063b8c5c793146105bc578063bc8b67ca146105ec57610211565b8063909046c81461049457806397feb926146104c45780639a0325bb146104e05780639ff0fbe91461051057610211565b80634c879f85116101a85780636102b707116101775780636102b707146103e057806371ab7785146103fc57806379e40cba1461042c5780638e827bde146104485780638f7c25101461047857610211565b80634c879f85146103345780634ddb38df146103645780634ec4d2d31461038057806355c81369146103b057610211565b8063267c3542116101e4578063267c35421461029a578063313ce567146102b65780633ab5f744146102d45780633bb228111461030457610211565b80630567d9e61461021657806316345f1814610232578063186f926314610262578063240a51be1461027e575b600080fd5b610230600480360381019061022b9190612793565b61076c565b005b61024c60048036038101906102479190612793565b610884565b6040516102599190612b25565b60405180910390f35b61027c60048036038101906102779190612793565b610a7f565b005b6102986004803603810190610293919061285b565b610e8c565b005b6102b460048036038101906102af919061285b565b6110da565b005b6102be611122565b6040516102cb9190612b40565b60405180910390f35b6102ee60048036038101906102e99190612793565b611127565b6040516102fb9190612a66565b60405180910390f35b61031e6004803603810190610319919061290f565b61115a565b60405161032b9190612a66565b60405180910390f35b61034e60048036038101906103499190612793565b611199565b60405161035b9190612b25565b60405180910390f35b61037e6004803603810190610379919061290f565b611495565b005b61039a60048036038101906103959190612793565b61149f565b6040516103a79190612b25565b60405180910390f35b6103ca60048036038101906103c59190612793565b611634565b6040516103d79190612b25565b60405180910390f35b6103fa60048036038101906103f59190612897565b611671565b005b610416600480360381019061041191906127bc565b6117b9565b6040516104239190612b25565b60405180910390f35b61044660048036038101906104419190612793565b6117de565b005b610462600480360381019061045d91906127bc565b61189c565b60405161046f9190612b25565b60405180910390f35b610492600480360381019061048d91906127f8565b6118c1565b005b6104ae60048036038101906104a99190612793565b611bdb565b6040516104bb9190612b40565b60405180910390f35b6104de60048036038101906104d9919061285b565b611bfb565b005b6104fa60048036038101906104f5919061290f565b611e55565b6040516105079190612a66565b60405180910390f35b61052a60048036038101906105259190612961565b611e94565b6040516105379190612b25565b60405180910390f35b61055a6004803603810190610555919061285b565b611eac565b005b61057660048036038101906105719190612793565b612080565b6040516105839190612b25565b60405180910390f35b6105a660048036038101906105a19190612793565b612098565b6040516105b39190612b25565b60405180910390f35b6105d660048036038101906105d19190612793565b61222d565b6040516105e39190612a66565b60405180910390f35b6106066004803603810190610601919061290f565b612260565b6040516106139190612a66565b60405180910390f35b61063660048036038101906106319190612793565b61229f565b6040516106439190612b25565b60405180910390f35b610666600480360381019061066191906127bc565b6122f9565b6040516106739190612b25565b60405180910390f35b61068461231e565b6040516106919190612b25565b60405180910390f35b6106b460048036038101906106af9190612793565b612324565b6040516106c19190612b25565b60405180910390f35b6106d261236d565b005b6106ee60048036038101906106e99190612793565b612400565b6040516106fb9190612b0a565b60405180910390f35b61071e600480360381019061071991906127bc565b612420565b005b61073a60048036038101906107359190612793565b6124a2565b6040516107479190612b0a565b60405180910390f35b61076a6004803603810190610765919061285b565b6124c2565b005b600e60009054906101000a900473ffffffffffffffffffffffffffffffffffffffff1673ffffffffffffffffffffffffffffffffffffffff163373ffffffffffffffffffffffffffffffffffffffff16146107c657600080fd5b600a819080600181540180825580915050600190039060005260206000200160009091909190916101000a81548173ffffffffffffffffffffffffffffffffffffffff021916908373ffffffffffffffffffffffffffffffffffffffff1602179055506001600760008373ffffffffffffffffffffffffffffffffffffffff1673ffffffffffffffffffffffffffffffffffffffff16815260200190815260200160002060006101000a81548160ff02191690831515021790555050565b600080600360008473ffffffffffffffffffffffffffffffffffffffff1673ffffffffffffffffffffffffffffffffffffffff16815260200190815260200160002060009054906101000a900473ffffffffffffffffffffffffffffffffffffffff1673ffffffffffffffffffffffffffffffffffffffff1663feaf968c6040518163ffffffff1660e01b815260040160a06040518083038186803b15801561092c57600080fd5b505afa158015610940573d6000803e3d6000fd5b505050506040513d601f19601f82011682018060405250810190610964919061298a565b5050509150506000600360008573ffffffffffffffffffffffffffffffffffffffff1673ffffffffffffffffffffffffffffffffffffffff16815260200190815260200160002060009054906101000a900473ffffffffffffffffffffffffffffffffffffffff1673ffffffffffffffffffffffffffffffffffffffff1663313ce5676040518163ffffffff1660e01b815260040160206040518083038186803b158015610a1157600080fd5b505afa158015610a25573d6000803e3d6000fd5b505050506040513d601f19601f82011682018060405250810190610a499190612a01565b9050610a76816012610a5b9190612de1565b600a610a679190612c35565b836126bf90919063ffffffff16565b92505050919050565b6000600960003373ffffffffffffffffffffffffffffffffffffffff1673ffffffffffffffffffffffffffffffffffffffff16815260200190815260200160002060008373ffffffffffffffffffffffffffffffffffffffff1673ffffffffffffffffffffffffffffffffffffffff16815260200190815260200160002054905042600960003373ffffffffffffffffffffffffffffffffffffffff1673ffffffffffffffffffffffffffffffffffffffff16815260200190815260200160002060008473ffffffffffffffffffffffffffffffffffffffff1673ffffffffffffffffffffffffffffffffffffffff168152602001908152602001600020819055506000610ba56301e133808342610b979190612dad565b6126d590919063ffffffff16565b90506000600660008573ffffffffffffffffffffffffffffffffffffffff1673ffffffffffffffffffffffffffffffffffffffff16815260200190815260200160002060003373ffffffffffffffffffffffffffffffffffffffff1673ffffffffffffffffffffffffffffffffffffffff16815260200190815260200160002054600d60008673ffffffffffffffffffffffffffffffffffffffff1673ffffffffffffffffffffffffffffffffffffffff1681526020019081526020016000205483610c719190612d53565b610c7b9190612d53565b90506000600660008673ffffffffffffffffffffffffffffffffffffffff1673ffffffffffffffffffffffffffffffffffffffff16815260200190815260200160002060003373ffffffffffffffffffffffffffffffffffffffff1673ffffffffffffffffffffffffffffffffffffffff168152602001908152602001600020546002600d60008873ffffffffffffffffffffffffffffffffffffffff1673ffffffffffffffffffffffffffffffffffffffff16815260200190815260200160002054610d489190612b5b565b84610d539190612d53565b610d5d9190612d53565b905081600660008773ffffffffffffffffffffffffffffffffffffffff1673ffffffffffffffffffffffffffffffffffffffff16815260200190815260200160002060003373ffffffffffffffffffffffffffffffffffffffff1673ffffffffffffffffffffffffffffffffffffffff1681526020019081526020016000206000828254610deb9190612b5b565b9250508190555081600560008773ffffffffffffffffffffffffffffffffffffffff1673ffffffffffffffffffffffffffffffffffffffff16815260200190815260200160002060003373ffffffffffffffffffffffffffffffffffffffff1673ffffffffffffffffffffffffffffffffffffffff1681526020019081526020016000206000828254610e7e9190612b5b565b925050819055505050505050565b808273ffffffffffffffffffffffffffffffffffffffff1663dd62ed3e33306040518363ffffffff1660e01b8152600401610ec8929190612a81565b60206040518083038186803b158015610ee057600080fd5b505afa158015610ef4573d6000803e3d6000fd5b505050506040513d601f19601f82011682018060405250810190610f189190612938565b11610f2257600080fd5b610f2a61236d565b80600560008473ffffffffffffffffffffffffffffffffffffffff1673ffffffffffffffffffffffffffffffffffffffff16815260200190815260200160002060003373ffffffffffffffffffffffffffffffffffffffff1673ffffffffffffffffffffffffffffffffffffffff168152602001908152602001600020541015610fb357600080fd5b8173ffffffffffffffffffffffffffffffffffffffff166323b872dd3330846040518463ffffffff1660e01b8152600401610ff093929190612aaa565b602060405180830381600087803b15801561100a57600080fd5b505af115801561101e573d6000803e3d6000fd5b505050506040513d601f19601f8201168201806040525081019061104291906128e6565b5080600560008473ffffffffffffffffffffffffffffffffffffffff1673ffffffffffffffffffffffffffffffffffffffff16815260200190815260200160002060003373ffffffffffffffffffffffffffffffffffffffff1673ffffffffffffffffffffffffffffffffffffffff16815260200190815260200160002060008282546110cf9190612dad565b925050819055505050565b80600d60008473ffffffffffffffffffffffffffffffffffffffff1673ffffffffffffffffffffffffffffffffffffffff168152602001908152602001600020819055505050565b601281565b60036020528060005260406000206000915054906101000a900473ffffffffffffffffffffffffffffffffffffffff1681565b600b818154811061116a57600080fd5b906000526020600020016000915054906101000a900473ffffffffffffffffffffffffffffffffffffffff1681565b600080600c54905060005b60008054905081101561148b5760008082815481106111ec577f4e487b7100000000000000000000000000000000000000000000000000000000600052603260045260246000fd5b9060005260206000200160009054906101000a900473ffffffffffffffffffffffffffffffffffffffff1673ffffffffffffffffffffffffffffffffffffffff166370a08231866040518263ffffffff1660e01b815260040161124f9190612a66565b60206040518083038186803b15801561126757600080fd5b505afa15801561127b573d6000803e3d6000fd5b505050506040513d601f19601f8201168201806040525081019061129f9190612938565b905060008083815481106112dc577f4e487b7100000000000000000000000000000000000000000000000000000000600052603260045260246000fd5b9060005260206000200160009054906101000a900473ffffffffffffffffffffffffffffffffffffffff1673ffffffffffffffffffffffffffffffffffffffff166370a08231876040518263ffffffff1660e01b815260040161133f9190612a66565b60206040518083038186803b15801561135757600080fd5b505afa15801561136b573d6000803e3d6000fd5b505050506040513d601f19601f8201168201806040525081019061138f9190612938565b1115611477578060026000600160008087815481106113d7577f4e487b7100000000000000000000000000000000000000000000000000000000600052603260045260246000fd5b9060005260206000200160009054906101000a900473ffffffffffffffffffffffffffffffffffffffff1673ffffffffffffffffffffffffffffffffffffffff1673ffffffffffffffffffffffffffffffffffffffff16815260200190815260200160002060009054906101000a900460ff1660ff1660ff168152602001908152602001600020546114699190612d53565b836114749190612b5b565b92505b50808061148390612e8a565b9150506111a4565b5080915050919050565b80600c8190555050565b60008060005b600b8054905081101561162a5761151f600b82815481106114ef577f4e487b7100000000000000000000000000000000000000000000000000000000600052603260045260246000fd5b9060005260206000200160009054906101000a900473ffffffffffffffffffffffffffffffffffffffff16610884565b60066000600b848154811061155d577f4e487b7100000000000000000000000000000000000000000000000000000000600052603260045260246000fd5b9060005260206000200160009054906101000a900473ffffffffffffffffffffffffffffffffffffffff1673ffffffffffffffffffffffffffffffffffffffff1673ffffffffffffffffffffffffffffffffffffffff16815260200190815260200160002060008673ffffffffffffffffffffffffffffffffffffffff1673ffffffffffffffffffffffffffffffffffffffff1681526020019081526020016000205461160a9190612d53565b826116159190612b5b565b9150808061162290612e8a565b9150506114a5565b5080915050919050565b60008061164083611199565b905061166960646116508561149f565b8361165b9190612d53565b6126d590919063ffffffff16565b915050919050565b600e60009054906101000a900473ffffffffffffffffffffffffffffffffffffffff1673ffffffffffffffffffffffffffffffffffffffff163373ffffffffffffffffffffffffffffffffffffffff16146116cb57600080fd5b60008260ff16116116db57600080fd5b6000839080600181540180825580915050600190039060005260206000200160009091909190916101000a81548173ffffffffffffffffffffffffffffffffffffffff021916908373ffffffffffffffffffffffffffffffffffffffff16021790555081600160008573ffffffffffffffffffffffffffffffffffffffff1673ffffffffffffffffffffffffffffffffffffffff16815260200190815260200160002060006101000a81548160ff021916908360ff16021790555080600260008460ff1660ff16815260200190815260200160002081905550505050565b6009602052816000526040600020602052806000526040600020600091509150505481565b600b819080600181540180825580915050600190039060005260206000200160009091909190916101000a81548173ffffffffffffffffffffffffffffffffffffffff021916908373ffffffffffffffffffffffffffffffffffffffff1602179055506001600860008373ffffffffffffffffffffffffffffffffffffffff1673ffffffffffffffffffffffffffffffffffffffff16815260200190815260200160002060006101000a81548160ff02191690831515021790555050565b6005602052816000526040600020602052806000526040600020600091509150505481565b6118c961236d565b808373ffffffffffffffffffffffffffffffffffffffff1663dd62ed3e33306040518363ffffffff1660e01b8152600401611905929190612a81565b60206040518083038186803b15801561191d57600080fd5b505afa158015611931573d6000803e3d6000fd5b505050506040513d601f19601f820116820180604052508101906119559190612938565b1161195f57600080fd5b80600560008573ffffffffffffffffffffffffffffffffffffffff1673ffffffffffffffffffffffffffffffffffffffff16815260200190815260200160002060008473ffffffffffffffffffffffffffffffffffffffff1673ffffffffffffffffffffffffffffffffffffffff16815260200190815260200160002060008282546119eb9190612dad565b925050819055508273ffffffffffffffffffffffffffffffffffffffff166323b872dd3330846040518463ffffffff1660e01b8152600401611a2f93929190612aaa565b602060405180830381600087803b158015611a4957600080fd5b505af1158015611a5d573d6000803e3d6000fd5b505050506040513d601f19601f82011682018060405250810190611a8191906128e6565b5060008190506000611ab06064611aa26069856126bf90919063ffffffff16565b6126d590919063ffffffff16565b905080600660008873ffffffffffffffffffffffffffffffffffffffff1673ffffffffffffffffffffffffffffffffffffffff16815260200190815260200160002060008673ffffffffffffffffffffffffffffffffffffffff1673ffffffffffffffffffffffffffffffffffffffff1681526020019081526020016000206000828254611b3e9190612dad565b925050819055508573ffffffffffffffffffffffffffffffffffffffff1663a9059cbb33836040518363ffffffff1660e01b8152600401611b80929190612ae1565b602060405180830381600087803b158015611b9a57600080fd5b505af1158015611bae573d6000803e3d6000fd5b505050506040513d601f19601f82011682018060405250810190611bd291906128e6565b50505050505050565b60016020528060005260406000206000915054906101000a900460ff1681565b808273ffffffffffffffffffffffffffffffffffffffff1663dd62ed3e33306040518363ffffffff1660e01b8152600401611c37929190612a81565b60206040518083038186803b158015611c4f57600080fd5b505afa158015611c63573d6000803e3d6000fd5b505050506040513d601f19601f82011682018060405250810190611c879190612938565b11611c9157600080fd5b808273ffffffffffffffffffffffffffffffffffffffff166370a08231336040518263ffffffff1660e01b8152600401611ccb9190612a66565b60206040518083038186803b158015611ce357600080fd5b505afa158015611cf7573d6000803e3d6000fd5b505050506040513d601f19601f82011682018060405250810190611d1b9190612938565b1015611d2657600080fd5b611d2e61236d565b8173ffffffffffffffffffffffffffffffffffffffff166323b872dd3330846040518463ffffffff1660e01b8152600401611d6b93929190612aaa565b602060405180830381600087803b158015611d8557600080fd5b505af1158015611d99573d6000803e3d6000fd5b505050506040513d601f19601f82011682018060405250810190611dbd91906128e6565b5080600660008473ffffffffffffffffffffffffffffffffffffffff1673ffffffffffffffffffffffffffffffffffffffff16815260200190815260200160002060003373ffffffffffffffffffffffffffffffffffffffff1673ffffffffffffffffffffffffffffffffffffffff1681526020019081526020016000206000828254611e4a9190612b5b565b925050819055505050565b600a8181548110611e6557600080fd5b906000526020600020016000915054906101000a900473ffffffffffffffffffffffffffffffffffffffff1681565b60026020528060005260406000206000915090505481565b611eb461236d565b80600660008473ffffffffffffffffffffffffffffffffffffffff1673ffffffffffffffffffffffffffffffffffffffff16815260200190815260200160002060003373ffffffffffffffffffffffffffffffffffffffff1673ffffffffffffffffffffffffffffffffffffffff168152602001908152602001600020541015611f3d57600080fd5b80600660008473ffffffffffffffffffffffffffffffffffffffff1673ffffffffffffffffffffffffffffffffffffffff16815260200190815260200160002060003373ffffffffffffffffffffffffffffffffffffffff1673ffffffffffffffffffffffffffffffffffffffff1681526020019081526020016000206000828254611fc99190612dad565b92505081905550611fd933611199565b611fe23361229f565b10611fec57600080fd5b8173ffffffffffffffffffffffffffffffffffffffff166323b872dd3330846040518463ffffffff1660e01b815260040161202993929190612aaa565b602060405180830381600087803b15801561204357600080fd5b505af1158015612057573d6000803e3d6000fd5b505050506040513d601f19601f8201168201806040525081019061207b91906128e6565b505050565b600d6020528060005260406000206000915090505481565b60008060005b600a8054905081101561222357612118600a82815481106120e8577f4e487b7100000000000000000000000000000000000000000000000000000000600052603260045260246000fd5b9060005260206000200160009054906101000a900473ffffffffffffffffffffffffffffffffffffffff16610884565b60056000600a8481548110612156577f4e487b7100000000000000000000000000000000000000000000000000000000600052603260045260246000fd5b9060005260206000200160009054906101000a900473ffffffffffffffffffffffffffffffffffffffff1673ffffffffffffffffffffffffffffffffffffffff1673ffffffffffffffffffffffffffffffffffffffff16815260200190815260200160002060008673ffffffffffffffffffffffffffffffffffffffff1673ffffffffffffffffffffffffffffffffffffffff168152602001908152602001600020546122039190612d53565b8261220e9190612b5b565b9150808061221b90612e8a565b91505061209e565b5080915050919050565b60046020528060005260406000206000915054906101000a900473ffffffffffffffffffffffffffffffffffffffff1681565b6000818154811061227057600080fd5b906000526020600020016000915054906101000a900473ffffffffffffffffffffffffffffffffffffffff1681565b6000806122ab8361149f565b905060006122cc6127106122be86612098565b6126bf90919063ffffffff16565b90506000808311156122ee576122eb83836126d590919063ffffffff16565b90505b809350505050919050565b6006602052816000526040600020602052806000526040600020600091509150505481565b600c5481565b6000600d60008373ffffffffffffffffffffffffffffffffffffffff1673ffffffffffffffffffffffffffffffffffffffff168152602001908152602001600020549050919050565b60005b600a805490508110156123fd576123ea600a82815481106123ba577f4e487b7100000000000000000000000000000000000000000000000000000000600052603260045260246000fd5b9060005260206000200160009054906101000a900473ffffffffffffffffffffffffffffffffffffffff16610a7f565b80806123f590612e8a565b915050612370565b50565b60086020528060005260406000206000915054906101000a900460ff1681565b80600360008473ffffffffffffffffffffffffffffffffffffffff1673ffffffffffffffffffffffffffffffffffffffff16815260200190815260200160002060006101000a81548173ffffffffffffffffffffffffffffffffffffffff021916908373ffffffffffffffffffffffffffffffffffffffff1602179055505050565b60076020528060005260406000206000915054906101000a900460ff1681565b808273ffffffffffffffffffffffffffffffffffffffff166370a08231306040518263ffffffff1660e01b81526004016124fc9190612a66565b60206040518083038186803b15801561251457600080fd5b505afa158015612528573d6000803e3d6000fd5b505050506040513d601f19601f8201168201806040525081019061254c9190612938565b101561255757600080fd5b61255f61236d565b61256833611634565b61257183610884565b8261257c9190612d53565b61258533612098565b61258f9190612b5b565b111561259a57600080fd5b80600560008473ffffffffffffffffffffffffffffffffffffffff1673ffffffffffffffffffffffffffffffffffffffff16815260200190815260200160002060003373ffffffffffffffffffffffffffffffffffffffff1673ffffffffffffffffffffffffffffffffffffffff16815260200190815260200160002060008282546126269190612b5b565b925050819055508173ffffffffffffffffffffffffffffffffffffffff1663a9059cbb33836040518363ffffffff1660e01b8152600401612668929190612ae1565b602060405180830381600087803b15801561268257600080fd5b505af1158015612696573d6000803e3d6000fd5b505050506040513d601f19601f820116820180604052508101906126ba91906128e6565b505050565b600081836126cd9190612d53565b905092915050565b600081836126e39190612bb1565b905092915050565b6000813590506126fa81612f3e565b92915050565b60008151905061270f81612f55565b92915050565b60008151905061272481612f6c565b92915050565b60008135905061273981612f83565b92915050565b60008151905061274e81612f83565b92915050565b60008135905061276381612f9a565b92915050565b60008151905061277881612fb1565b92915050565b60008151905061278d81612f9a565b92915050565b6000602082840312156127a557600080fd5b60006127b3848285016126eb565b91505092915050565b600080604083850312156127cf57600080fd5b60006127dd858286016126eb565b92505060206127ee858286016126eb565b9150509250929050565b6000806000806080858703121561280e57600080fd5b600061281c878288016126eb565b945050602061282d878288016126eb565b935050604061283e878288016126eb565b925050606061284f8782880161272a565b91505092959194509250565b6000806040838503121561286e57600080fd5b600061287c858286016126eb565b925050602061288d8582860161272a565b9150509250929050565b6000806000606084860312156128ac57600080fd5b60006128ba868287016126eb565b93505060206128cb86828701612754565b92505060406128dc8682870161272a565b9150509250925092565b6000602082840312156128f857600080fd5b600061290684828501612700565b91505092915050565b60006020828403121561292157600080fd5b600061292f8482850161272a565b91505092915050565b60006020828403121561294a57600080fd5b60006129588482850161273f565b91505092915050565b60006020828403121561297357600080fd5b600061298184828501612754565b91505092915050565b600080600080600060a086880312156129a257600080fd5b60006129b088828901612769565b95505060206129c188828901612715565b94505060406129d28882890161273f565b93505060606129e38882890161273f565b92505060806129f488828901612769565b9150509295509295909350565b600060208284031215612a1357600080fd5b6000612a218482850161277e565b91505092915050565b612a3381612e15565b82525050565b612a4281612e27565b82525050565b612a5181612e5d565b82525050565b612a6081612e67565b82525050565b6000602082019050612a7b6000830184612a2a565b92915050565b6000604082019050612a966000830185612a2a565b612aa36020830184612a2a565b9392505050565b6000606082019050612abf6000830186612a2a565b612acc6020830185612a2a565b612ad96040830184612a48565b949350505050565b6000604082019050612af66000830185612a2a565b612b036020830184612a48565b9392505050565b6000602082019050612b1f6000830184612a39565b92915050565b6000602082019050612b3a6000830184612a48565b92915050565b6000602082019050612b556000830184612a57565b92915050565b6000612b6682612e5d565b9150612b7183612e5d565b9250827fffffffffffffffffffffffffffffffffffffffffffffffffffffffffffffffff03821115612ba657612ba5612ed3565b5b828201905092915050565b6000612bbc82612e5d565b9150612bc783612e5d565b925082612bd757612bd6612f02565b5b828204905092915050565b6000808291508390505b6001851115612c2c57808604811115612c0857612c07612ed3565b5b6001851615612c175780820291505b8081029050612c2585612f31565b9450612bec565b94509492505050565b6000612c4082612e5d565b9150612c4b83612e67565b9250612c787fffffffffffffffffffffffffffffffffffffffffffffffffffffffffffffffff8484612c80565b905092915050565b600082612c905760019050612d4c565b81612c9e5760009050612d4c565b8160018114612cb45760028114612cbe57612ced565b6001915050612d4c565b60ff841115612cd057612ccf612ed3565b5b8360020a915084821115612ce757612ce6612ed3565b5b50612d4c565b5060208310610133831016604e8410600b8410161715612d225782820a905083811115612d1d57612d1c612ed3565b5b612d4c565b612d2f8484846001612be2565b92509050818404811115612d4657612d45612ed3565b5b81810290505b9392505050565b6000612d5e82612e5d565b9150612d6983612e5d565b9250817fffffffffffffffffffffffffffffffffffffffffffffffffffffffffffffffff0483118215151615612da257612da1612ed3565b5b828202905092915050565b6000612db882612e5d565b9150612dc383612e5d565b925082821015612dd657612dd5612ed3565b5b828203905092915050565b6000612dec82612e67565b9150612df783612e67565b925082821015612e0a57612e09612ed3565b5b828203905092915050565b6000612e2082612e3d565b9050919050565b60008115159050919050565b6000819050919050565b600073ffffffffffffffffffffffffffffffffffffffff82169050919050565b6000819050919050565b600060ff82169050919050565b600069ffffffffffffffffffff82169050919050565b6000612e9582612e5d565b91507fffffffffffffffffffffffffffffffffffffffffffffffffffffffffffffffff821415612ec857612ec7612ed3565b5b600182019050919050565b7f4e487b7100000000000000000000000000000000000000000000000000000000600052601160045260246000fd5b7f4e487b7100000000000000000000000000000000000000000000000000000000600052601260045260246000fd5b60008160011c9050919050565b612f4781612e15565b8114612f5257600080fd5b50565b612f5e81612e27565b8114612f6957600080fd5b50565b612f7581612e33565b8114612f8057600080fd5b50565b612f8c81612e5d565b8114612f9757600080fd5b50565b612fa381612e67565b8114612fae57600080fd5b50565b612fba81612e74565b8114612fc557600080fd5b5056fea26469706673582212208d4993c3d42a50e12f99d9da4c4a2d12bad0c2f55d0f7c5050623222ee26871e64736f6c63430008040033",
  "linkReferences": {},
  "deployedLinkReferences": {}
}