{
  "_format": "hh-sol-artifact-1",
  "contractName": "sbLending",
  "sourceName": "contracts/sbLending-V0.sol",
  "abi": [
    {
      "inputs": [],
      "stateMutability": "nonpayable",
      "type": "constructor"
    },
    {
      "inputs": [
        {
          "internalType": "address",
          "name": "",
          "type": "address"
        },
        {
          "internalType": "address",
          "name": "",
          "type": "address"
        }
      ],
      "name": "ERC20BorrowList",
      "outputs": [
        {
          "internalType": "uint256",
          "name": "",
          "type": "uint256"
        }
      ],
      "stateMutability": "view",
      "type": "function"
    },
    {
      "inputs": [
        {
          "internalType": "uint256",
          "name": "",
          "type": "uint256"
        }
      ],
      "name": "ERC20BorrowTokens",
      "outputs": [
        {
          "internalType": "address",
          "name": "",
          "type": "address"
        }
      ],
      "stateMutability": "view",
      "type": "function"
    },
    {
      "inputs": [
        {
          "internalType": "address",
          "name": "",
          "type": "address"
        },
        {
          "internalType": "address",
          "name": "",
          "type": "address"
        }
      ],
      "name": "ERC20DepositList",
      "outputs": [
        {
          "internalType": "uint256",
          "name": "",
          "type": "uint256"
        }
      ],
      "stateMutability": "view",
      "type": "function"
    },
    {
      "inputs": [
        {
          "internalType": "uint256",
          "name": "",
          "type": "uint256"
        }
      ],
      "name": "ERC20DepositTokens",
      "outputs": [
        {
          "internalType": "address",
          "name": "",
          "type": "address"
        }
      ],
      "stateMutability": "view",
      "type": "function"
    },
    {
      "inputs": [
        {
          "internalType": "address",
          "name": "",
          "type": "address"
        }
      ],
      "name": "ERC20Oracles",
      "outputs": [
        {
          "internalType": "address",
          "name": "",
          "type": "address"
        }
      ],
      "stateMutability": "view",
      "type": "function"
    },
    {
      "inputs": [
        {
          "internalType": "address",
          "name": "_token",
          "type": "address"
        }
      ],
      "name": "addBorrowToken",
      "outputs": [],
      "stateMutability": "nonpayable",
      "type": "function"
    },
    {
      "inputs": [
        {
          "internalType": "address",
          "name": "_token",
          "type": "address"
        }
      ],
      "name": "addDepositToken",
      "outputs": [],
      "stateMutability": "nonpayable",
      "type": "function"
    },
    {
      "inputs": [
        {
          "internalType": "address",
          "name": "_token",
          "type": "address"
        },
        {
          "internalType": "address",
          "name": "_oracle",
          "type": "address"
        }
      ],
      "name": "addOracle",
      "outputs": [],
      "stateMutability": "nonpayable",
      "type": "function"
    },
    {
      "inputs": [
        {
          "internalType": "address",
          "name": "_token",
          "type": "address"
        },
        {
          "internalType": "uint8",
          "name": "_category",
          "type": "uint8"
        },
        {
          "internalType": "uint256",
          "name": "_power",
          "type": "uint256"
        }
      ],
      "name": "addSoulBondToken",
      "outputs": [],
      "stateMutability": "nonpayable",
      "type": "function"
    },
    {
      "inputs": [
        {
          "internalType": "address",
          "name": "_token",
          "type": "address"
        },
        {
          "internalType": "uint256",
          "name": "_interestRate",
          "type": "uint256"
        }
      ],
      "name": "addTokenInterestFixedInterestRate",
      "outputs": [],
      "stateMutability": "nonpayable",
      "type": "function"
    },
    {
      "inputs": [
        {
          "internalType": "address",
          "name": "",
          "type": "address"
        }
      ],
      "name": "allowedBorrowedTokens",
      "outputs": [
        {
          "internalType": "bool",
          "name": "",
          "type": "bool"
        }
      ],
      "stateMutability": "view",
      "type": "function"
    },
    {
      "inputs": [
        {
          "internalType": "address",
          "name": "",
          "type": "address"
        }
      ],
      "name": "allowedDepositTokens",
      "outputs": [
        {
          "internalType": "bool",
          "name": "",
          "type": "bool"
        }
      ],
      "stateMutability": "view",
      "type": "function"
    },
    {
      "inputs": [],
      "name": "baseMaxBorrow",
      "outputs": [
        {
          "internalType": "uint256",
          "name": "",
          "type": "uint256"
        }
      ],
      "stateMutability": "view",
      "type": "function"
    },
    {
      "inputs": [
        {
          "internalType": "address",
          "name": "_token",
          "type": "address"
        },
        {
          "internalType": "uint256",
          "name": "_value",
          "type": "uint256"
        }
      ],
      "name": "borrowERC20",
      "outputs": [],
      "stateMutability": "nonpayable",
      "type": "function"
    },
    {
      "inputs": [
        {
          "internalType": "address",
          "name": "_user",
          "type": "address"
        }
      ],
      "name": "calculateMaxBorrow",
      "outputs": [
        {
          "internalType": "uint256",
          "name": "",
          "type": "uint256"
        }
      ],
      "stateMutability": "view",
      "type": "function"
    },
    {
      "inputs": [
        {
          "internalType": "address",
          "name": "_user",
          "type": "address"
        }
      ],
      "name": "calculateMaxBorrowPercentage",
      "outputs": [
        {
          "internalType": "uint256",
          "name": "",
          "type": "uint256"
        }
      ],
      "stateMutability": "view",
      "type": "function"
    },
    {
      "inputs": [
        {
          "internalType": "address",
          "name": "_user",
          "type": "address"
        }
      ],
      "name": "calculateTotalBorrowed",
      "outputs": [
        {
          "internalType": "uint256",
          "name": "",
          "type": "uint256"
        }
      ],
      "stateMutability": "view",
      "type": "function"
    },
    {
      "inputs": [
        {
          "internalType": "address",
          "name": "_user",
          "type": "address"
        }
      ],
      "name": "calculateTotalDeposit",
      "outputs": [
        {
          "internalType": "uint256",
          "name": "",
          "type": "uint256"
        }
      ],
      "stateMutability": "view",
      "type": "function"
    },
    {
      "inputs": [
        {
          "internalType": "uint8",
          "name": "",
          "type": "uint8"
        }
      ],
      "name": "categoryPower",
      "outputs": [
        {
          "internalType": "uint256",
          "name": "",
          "type": "uint256"
        }
      ],
      "stateMutability": "view",
      "type": "function"
    },
    {
      "inputs": [],
      "name": "decimals",
      "outputs": [
        {
          "internalType": "uint8",
          "name": "",
          "type": "uint8"
        }
      ],
      "stateMutability": "view",
      "type": "function"
    },
    {
      "inputs": [
        {
          "internalType": "address",
          "name": "_token",
          "type": "address"
        },
        {
          "internalType": "uint256",
          "name": "_value",
          "type": "uint256"
        }
      ],
      "name": "depositERC20",
      "outputs": [],
      "stateMutability": "nonpayable",
      "type": "function"
    },
    {
      "inputs": [
        {
          "internalType": "address",
          "name": "_token",
          "type": "address"
        }
      ],
      "name": "getInterestRate",
      "outputs": [
        {
          "internalType": "uint256",
          "name": "",
          "type": "uint256"
        }
      ],
      "stateMutability": "view",
      "type": "function"
    },
    {
      "inputs": [
        {
          "internalType": "address",
          "name": "_token",
          "type": "address"
        }
      ],
      "name": "getLatestPrice",
      "outputs": [
        {
          "internalType": "uint256",
          "name": "",
          "type": "uint256"
        }
      ],
      "stateMutability": "view",
      "type": "function"
    },
    {
      "inputs": [
        {
          "internalType": "address",
          "name": "collateralAsset",
          "type": "address"
        },
        {
          "internalType": "address",
          "name": "debtAsset",
          "type": "address"
        },
        {
          "internalType": "address",
          "name": "user",
          "type": "address"
        },
        {
          "internalType": "uint256",
          "name": "debtToCover",
          "type": "uint256"
        }
      ],
      "name": "liquidationCall",
      "outputs": [],
      "stateMutability": "nonpayable",
      "type": "function"
    },
    {
      "inputs": [
        {
          "internalType": "address",
          "name": "_token",
          "type": "address"
        },
        {
          "internalType": "uint256",
          "name": "_value",
          "type": "uint256"
        }
      ],
      "name": "payBackERC20",
      "outputs": [],
      "stateMutability": "nonpayable",
      "type": "function"
    },
    {
      "inputs": [
        {
          "internalType": "uint256",
          "name": "_value",
          "type": "uint256"
        }
      ],
      "name": "setBaseMaxBorrow",
      "outputs": [],
      "stateMutability": "nonpayable",
      "type": "function"
    },
    {
      "inputs": [
        {
          "internalType": "address",
          "name": "",
          "type": "address"
        }
      ],
      "name": "soulBondCategories",
      "outputs": [
        {
          "internalType": "uint8",
          "name": "",
          "type": "uint8"
        }
      ],
      "stateMutability": "view",
      "type": "function"
    },
    {
      "inputs": [
        {
          "internalType": "uint256",
          "name": "",
          "type": "uint256"
        }
      ],
      "name": "soulBondList",
      "outputs": [
        {
          "internalType": "address",
          "name": "",
          "type": "address"
        }
      ],
      "stateMutability": "view",
      "type": "function"
    },
    {
      "inputs": [
        {
          "internalType": "address",
          "name": "",
          "type": "address"
        }
      ],
      "name": "tokenFixedInterestRate",
      "outputs": [
        {
          "internalType": "uint256",
          "name": "",
          "type": "uint256"
        }
      ],
      "stateMutability": "view",
      "type": "function"
    },
    {
      "inputs": [
        {
          "internalType": "address",
          "name": "",
          "type": "address"
        }
      ],
      "name": "tokenToOracleToken",
      "outputs": [
        {
          "internalType": "address",
          "name": "",
          "type": "address"
        }
      ],
      "stateMutability": "view",
      "type": "function"
    },
    {
      "inputs": [],
      "name": "updateAllBalances",
      "outputs": [],
      "stateMutability": "nonpayable",
      "type": "function"
    },
    {
      "inputs": [
        {
          "internalType": "address",
          "name": "_token",
          "type": "address"
        }
      ],
      "name": "updateBalanceWithInterestRate",
      "outputs": [],
      "stateMutability": "nonpayable",
      "type": "function"
    },
    {
      "inputs": [
        {
          "internalType": "address",
          "name": "",
          "type": "address"
        },
        {
          "internalType": "address",
          "name": "",
          "type": "address"
        }
      ],
      "name": "userLastTokenUpdate",
      "outputs": [
        {
          "internalType": "uint256",
          "name": "",
          "type": "uint256"
        }
      ],
      "stateMutability": "view",
      "type": "function"
    },
    {
      "inputs": [
        {
          "internalType": "address",
          "name": "_token",
          "type": "address"
        },
        {
          "internalType": "uint256",
          "name": "_value",
          "type": "uint256"
        }
      ],
      "name": "withdrawERC20",
      "outputs": [],
      "stateMutability": "nonpayable",
      "type": "function"
    }
  ],
  "bytecode": "0x60806040526046600c5534801561001557600080fd5b5033600e60006101000a81548173ffffffffffffffffffffffffffffffffffffffff021916908373ffffffffffffffffffffffffffffffffffffffff160217905550612f39806100666000396000f3fe608060405234801561001057600080fd5b50600436106102065760003560e01c8063909046c81161011a578063bc8b67ca116100ad578063dfa811ba1161007c578063dfa811ba1461068f578063eac9168b14610699578063f0ca4adb146106c9578063f35ffb63146106e5578063f84228d11461071557610206565b8063bc8b67ca146105e1578063c8ce4d0e14610611578063c9e1fbf614610641578063d3ea0f891461065f57610206565b8063a1db9782116100e9578063a1db978214610535578063a24a7c3014610551578063a9c51c0414610581578063b8c5c793146105b157610206565b8063909046c81461048957806397feb926146104b95780639a0325bb146104d55780639ff0fbe91461050557610206565b80634c879f851161019d5780636102b7071161016c5780636102b707146103d557806371ab7785146103f157806379e40cba146104215780638e827bde1461043d5780638f7c25101461046d57610206565b80634c879f85146103295780634ddb38df146103595780634ec4d2d31461037557806355c81369146103a557610206565b8063267c3542116101d9578063267c35421461028f578063313ce567146102ab5780633ab5f744146102c95780633bb22811146102f957610206565b80630567d9e61461020b57806316345f1814610227578063186f926314610257578063240a51be14610273575b600080fd5b610225600480360381019061022091906126ce565b610731565b005b610241600480360381019061023c91906126ce565b610849565b60405161024e9190612a60565b60405180910390f35b610271600480360381019061026c91906126ce565b610a44565b005b61028d60048036038101906102889190612796565b610e51565b005b6102a960048036038101906102a49190612796565b61109f565b005b6102b36110e7565b6040516102c09190612a7b565b60405180910390f35b6102e360048036038101906102de91906126ce565b6110ec565b6040516102f091906129a1565b60405180910390f35b610313600480360381019061030e919061284a565b61111f565b60405161032091906129a1565b60405180910390f35b610343600480360381019061033e91906126ce565b61115e565b6040516103509190612a60565b60405180910390f35b610373600480360381019061036e919061284a565b61145a565b005b61038f600480360381019061038a91906126ce565b611464565b60405161039c9190612a60565b60405180910390f35b6103bf60048036038101906103ba91906126ce565b6115f9565b6040516103cc9190612a60565b60405180910390f35b6103ef60048036038101906103ea91906127d2565b611636565b005b61040b600480360381019061040691906126f7565b61177e565b6040516104189190612a60565b60405180910390f35b61043b600480360381019061043691906126ce565b6117a3565b005b610457600480360381019061045291906126f7565b611861565b6040516104649190612a60565b60405180910390f35b61048760048036038101906104829190612733565b611886565b005b6104a3600480360381019061049e91906126ce565b611ba0565b6040516104b09190612a7b565b60405180910390f35b6104d360048036038101906104ce9190612796565b611bc0565b005b6104ef60048036038101906104ea919061284a565b611e1a565b6040516104fc91906129a1565b60405180910390f35b61051f600480360381019061051a919061289c565b611e59565b60405161052c9190612a60565b60405180910390f35b61054f600480360381019061054a9190612796565b611e71565b005b61056b600480360381019061056691906126ce565b612029565b6040516105789190612a60565b60405180910390f35b61059b600480360381019061059691906126ce565b612041565b6040516105a89190612a60565b60405180910390f35b6105cb60048036038101906105c691906126ce565b6121d6565b6040516105d891906129a1565b60405180910390f35b6105fb60048036038101906105f6919061284a565b612209565b60405161060891906129a1565b60405180910390f35b61062b600480360381019061062691906126f7565b612248565b6040516106389190612a60565b60405180910390f35b61064961226d565b6040516106569190612a60565b60405180910390f35b610679600480360381019061067491906126ce565b612273565b6040516106869190612a60565b60405180910390f35b6106976122bc565b005b6106b360048036038101906106ae91906126ce565b61234f565b6040516106c09190612a45565b60405180910390f35b6106e360048036038101906106de91906126f7565b61236f565b005b6106ff60048036038101906106fa91906126ce565b6123f1565b60405161070c9190612a45565b60405180910390f35b61072f600480360381019061072a9190612796565b612411565b005b600e60009054906101000a900473ffffffffffffffffffffffffffffffffffffffff1673ffffffffffffffffffffffffffffffffffffffff163373ffffffffffffffffffffffffffffffffffffffff161461078b57600080fd5b600a819080600181540180825580915050600190039060005260206000200160009091909190916101000a81548173ffffffffffffffffffffffffffffffffffffffff021916908373ffffffffffffffffffffffffffffffffffffffff1602179055506001600760008373ffffffffffffffffffffffffffffffffffffffff1673ffffffffffffffffffffffffffffffffffffffff16815260200190815260200160002060006101000a81548160ff02191690831515021790555050565b600080600360008473ffffffffffffffffffffffffffffffffffffffff1673ffffffffffffffffffffffffffffffffffffffff16815260200190815260200160002060009054906101000a900473ffffffffffffffffffffffffffffffffffffffff1673ffffffffffffffffffffffffffffffffffffffff1663feaf968c6040518163ffffffff1660e01b815260040160a06040518083038186803b1580156108f157600080fd5b505afa158015610905573d6000803e3d6000fd5b505050506040513d601f19601f8201168201806040525081019061092991906128c5565b5050509150506000600360008573ffffffffffffffffffffffffffffffffffffffff1673ffffffffffffffffffffffffffffffffffffffff16815260200190815260200160002060009054906101000a900473ffffffffffffffffffffffffffffffffffffffff1673ffffffffffffffffffffffffffffffffffffffff1663313ce5676040518163ffffffff1660e01b815260040160206040518083038186803b1580156109d657600080fd5b505afa1580156109ea573d6000803e3d6000fd5b505050506040513d601f19601f82011682018060405250810190610a0e919061293c565b9050610a3b816012610a209190612d1c565b600a610a2c9190612b70565b836125fa90919063ffffffff16565b92505050919050565b6000600960003373ffffffffffffffffffffffffffffffffffffffff1673ffffffffffffffffffffffffffffffffffffffff16815260200190815260200160002060008373ffffffffffffffffffffffffffffffffffffffff1673ffffffffffffffffffffffffffffffffffffffff16815260200190815260200160002054905042600960003373ffffffffffffffffffffffffffffffffffffffff1673ffffffffffffffffffffffffffffffffffffffff16815260200190815260200160002060008473ffffffffffffffffffffffffffffffffffffffff1673ffffffffffffffffffffffffffffffffffffffff168152602001908152602001600020819055506000610b6a6301e133808342610b5c9190612ce8565b61261090919063ffffffff16565b90506000600660008573ffffffffffffffffffffffffffffffffffffffff1673ffffffffffffffffffffffffffffffffffffffff16815260200190815260200160002060003373ffffffffffffffffffffffffffffffffffffffff1673ffffffffffffffffffffffffffffffffffffffff16815260200190815260200160002054600d60008673ffffffffffffffffffffffffffffffffffffffff1673ffffffffffffffffffffffffffffffffffffffff1681526020019081526020016000205483610c369190612c8e565b610c409190612c8e565b90506000600660008673ffffffffffffffffffffffffffffffffffffffff1673ffffffffffffffffffffffffffffffffffffffff16815260200190815260200160002060003373ffffffffffffffffffffffffffffffffffffffff1673ffffffffffffffffffffffffffffffffffffffff168152602001908152602001600020546002600d60008873ffffffffffffffffffffffffffffffffffffffff1673ffffffffffffffffffffffffffffffffffffffff16815260200190815260200160002054610d0d9190612a96565b84610d189190612c8e565b610d229190612c8e565b905081600660008773ffffffffffffffffffffffffffffffffffffffff1673ffffffffffffffffffffffffffffffffffffffff16815260200190815260200160002060003373ffffffffffffffffffffffffffffffffffffffff1673ffffffffffffffffffffffffffffffffffffffff1681526020019081526020016000206000828254610db09190612a96565b9250508190555081600560008773ffffffffffffffffffffffffffffffffffffffff1673ffffffffffffffffffffffffffffffffffffffff16815260200190815260200160002060003373ffffffffffffffffffffffffffffffffffffffff1673ffffffffffffffffffffffffffffffffffffffff1681526020019081526020016000206000828254610e439190612a96565b925050819055505050505050565b808273ffffffffffffffffffffffffffffffffffffffff1663dd62ed3e33306040518363ffffffff1660e01b8152600401610e8d9291906129bc565b60206040518083038186803b158015610ea557600080fd5b505afa158015610eb9573d6000803e3d6000fd5b505050506040513d601f19601f82011682018060405250810190610edd9190612873565b11610ee757600080fd5b610eef6122bc565b80600560008473ffffffffffffffffffffffffffffffffffffffff1673ffffffffffffffffffffffffffffffffffffffff16815260200190815260200160002060003373ffffffffffffffffffffffffffffffffffffffff1673ffffffffffffffffffffffffffffffffffffffff168152602001908152602001600020541015610f7857600080fd5b8173ffffffffffffffffffffffffffffffffffffffff166323b872dd3330846040518463ffffffff1660e01b8152600401610fb5939291906129e5565b602060405180830381600087803b158015610fcf57600080fd5b505af1158015610fe3573d6000803e3d6000fd5b505050506040513d601f19601f820116820180604052508101906110079190612821565b5080600560008473ffffffffffffffffffffffffffffffffffffffff1673ffffffffffffffffffffffffffffffffffffffff16815260200190815260200160002060003373ffffffffffffffffffffffffffffffffffffffff1673ffffffffffffffffffffffffffffffffffffffff16815260200190815260200160002060008282546110949190612ce8565b925050819055505050565b80600d60008473ffffffffffffffffffffffffffffffffffffffff1673ffffffffffffffffffffffffffffffffffffffff168152602001908152602001600020819055505050565b601281565b60036020528060005260406000206000915054906101000a900473ffffffffffffffffffffffffffffffffffffffff1681565b600b818154811061112f57600080fd5b906000526020600020016000915054906101000a900473ffffffffffffffffffffffffffffffffffffffff1681565b600080600c54905060005b6000805490508110156114505760008082815481106111b1577f4e487b7100000000000000000000000000000000000000000000000000000000600052603260045260246000fd5b9060005260206000200160009054906101000a900473ffffffffffffffffffffffffffffffffffffffff1673ffffffffffffffffffffffffffffffffffffffff166370a08231866040518263ffffffff1660e01b815260040161121491906129a1565b60206040518083038186803b15801561122c57600080fd5b505afa158015611240573d6000803e3d6000fd5b505050506040513d601f19601f820116820180604052508101906112649190612873565b905060008083815481106112a1577f4e487b7100000000000000000000000000000000000000000000000000000000600052603260045260246000fd5b9060005260206000200160009054906101000a900473ffffffffffffffffffffffffffffffffffffffff1673ffffffffffffffffffffffffffffffffffffffff166370a08231876040518263ffffffff1660e01b815260040161130491906129a1565b60206040518083038186803b15801561131c57600080fd5b505afa158015611330573d6000803e3d6000fd5b505050506040513d601f19601f820116820180604052508101906113549190612873565b111561143c5780600260006001600080878154811061139c577f4e487b7100000000000000000000000000000000000000000000000000000000600052603260045260246000fd5b9060005260206000200160009054906101000a900473ffffffffffffffffffffffffffffffffffffffff1673ffffffffffffffffffffffffffffffffffffffff1673ffffffffffffffffffffffffffffffffffffffff16815260200190815260200160002060009054906101000a900460ff1660ff1660ff1681526020019081526020016000205461142e9190612c8e565b836114399190612a96565b92505b50808061144890612dc5565b915050611169565b5080915050919050565b80600c8190555050565b60008060005b600b805490508110156115ef576114e4600b82815481106114b4577f4e487b7100000000000000000000000000000000000000000000000000000000600052603260045260246000fd5b9060005260206000200160009054906101000a900473ffffffffffffffffffffffffffffffffffffffff16610849565b60066000600b8481548110611522577f4e487b7100000000000000000000000000000000000000000000000000000000600052603260045260246000fd5b9060005260206000200160009054906101000a900473ffffffffffffffffffffffffffffffffffffffff1673ffffffffffffffffffffffffffffffffffffffff1673ffffffffffffffffffffffffffffffffffffffff16815260200190815260200160002060008673ffffffffffffffffffffffffffffffffffffffff1673ffffffffffffffffffffffffffffffffffffffff168152602001908152602001600020546115cf9190612c8e565b826115da9190612a96565b915080806115e790612dc5565b91505061146a565b5080915050919050565b6000806116058361115e565b905061162e606461161585611464565b836116209190612c8e565b61261090919063ffffffff16565b915050919050565b600e60009054906101000a900473ffffffffffffffffffffffffffffffffffffffff1673ffffffffffffffffffffffffffffffffffffffff163373ffffffffffffffffffffffffffffffffffffffff161461169057600080fd5b60008260ff16116116a057600080fd5b6000839080600181540180825580915050600190039060005260206000200160009091909190916101000a81548173ffffffffffffffffffffffffffffffffffffffff021916908373ffffffffffffffffffffffffffffffffffffffff16021790555081600160008573ffffffffffffffffffffffffffffffffffffffff1673ffffffffffffffffffffffffffffffffffffffff16815260200190815260200160002060006101000a81548160ff021916908360ff16021790555080600260008460ff1660ff16815260200190815260200160002081905550505050565b6009602052816000526040600020602052806000526040600020600091509150505481565b600b819080600181540180825580915050600190039060005260206000200160009091909190916101000a81548173ffffffffffffffffffffffffffffffffffffffff021916908373ffffffffffffffffffffffffffffffffffffffff1602179055506001600860008373ffffffffffffffffffffffffffffffffffffffff1673ffffffffffffffffffffffffffffffffffffffff16815260200190815260200160002060006101000a81548160ff02191690831515021790555050565b6005602052816000526040600020602052806000526040600020600091509150505481565b61188e6122bc565b808373ffffffffffffffffffffffffffffffffffffffff1663dd62ed3e33306040518363ffffffff1660e01b81526004016118ca9291906129bc565b60206040518083038186803b1580156118e257600080fd5b505afa1580156118f6573d6000803e3d6000fd5b505050506040513d601f19601f8201168201806040525081019061191a9190612873565b1161192457600080fd5b80600560008573ffffffffffffffffffffffffffffffffffffffff1673ffffffffffffffffffffffffffffffffffffffff16815260200190815260200160002060008473ffffffffffffffffffffffffffffffffffffffff1673ffffffffffffffffffffffffffffffffffffffff16815260200190815260200160002060008282546119b09190612ce8565b925050819055508273ffffffffffffffffffffffffffffffffffffffff166323b872dd3330846040518463ffffffff1660e01b81526004016119f4939291906129e5565b602060405180830381600087803b158015611a0e57600080fd5b505af1158015611a22573d6000803e3d6000fd5b505050506040513d601f19601f82011682018060405250810190611a469190612821565b5060008190506000611a756064611a676069856125fa90919063ffffffff16565b61261090919063ffffffff16565b905080600660008873ffffffffffffffffffffffffffffffffffffffff1673ffffffffffffffffffffffffffffffffffffffff16815260200190815260200160002060008673ffffffffffffffffffffffffffffffffffffffff1673ffffffffffffffffffffffffffffffffffffffff1681526020019081526020016000206000828254611b039190612ce8565b925050819055508573ffffffffffffffffffffffffffffffffffffffff1663a9059cbb33836040518363ffffffff1660e01b8152600401611b45929190612a1c565b602060405180830381600087803b158015611b5f57600080fd5b505af1158015611b73573d6000803e3d6000fd5b505050506040513d601f19601f82011682018060405250810190611b979190612821565b50505050505050565b60016020528060005260406000206000915054906101000a900460ff1681565b808273ffffffffffffffffffffffffffffffffffffffff1663dd62ed3e33306040518363ffffffff1660e01b8152600401611bfc9291906129bc565b60206040518083038186803b158015611c1457600080fd5b505afa158015611c28573d6000803e3d6000fd5b505050506040513d601f19601f82011682018060405250810190611c4c9190612873565b11611c5657600080fd5b808273ffffffffffffffffffffffffffffffffffffffff166370a08231336040518263ffffffff1660e01b8152600401611c9091906129a1565b60206040518083038186803b158015611ca857600080fd5b505afa158015611cbc573d6000803e3d6000fd5b505050506040513d601f19601f82011682018060405250810190611ce09190612873565b1015611ceb57600080fd5b611cf36122bc565b8173ffffffffffffffffffffffffffffffffffffffff166323b872dd3330846040518463ffffffff1660e01b8152600401611d30939291906129e5565b602060405180830381600087803b158015611d4a57600080fd5b505af1158015611d5e573d6000803e3d6000fd5b505050506040513d601f19601f82011682018060405250810190611d829190612821565b5080600660008473ffffffffffffffffffffffffffffffffffffffff1673ffffffffffffffffffffffffffffffffffffffff16815260200190815260200160002060003373ffffffffffffffffffffffffffffffffffffffff1673ffffffffffffffffffffffffffffffffffffffff1681526020019081526020016000206000828254611e0f9190612a96565b925050819055505050565b600a8181548110611e2a57600080fd5b906000526020600020016000915054906101000a900473ffffffffffffffffffffffffffffffffffffffff1681565b60026020528060005260406000206000915090505481565b611e796122bc565b80600660008473ffffffffffffffffffffffffffffffffffffffff1673ffffffffffffffffffffffffffffffffffffffff16815260200190815260200160002060003373ffffffffffffffffffffffffffffffffffffffff1673ffffffffffffffffffffffffffffffffffffffff168152602001908152602001600020541015611f0257600080fd5b80600660008473ffffffffffffffffffffffffffffffffffffffff1673ffffffffffffffffffffffffffffffffffffffff16815260200190815260200160002060003373ffffffffffffffffffffffffffffffffffffffff1673ffffffffffffffffffffffffffffffffffffffff1681526020019081526020016000206000828254611f8e9190612ce8565b925050819055508173ffffffffffffffffffffffffffffffffffffffff166323b872dd3330846040518463ffffffff1660e01b8152600401611fd2939291906129e5565b602060405180830381600087803b158015611fec57600080fd5b505af1158015612000573d6000803e3d6000fd5b505050506040513d601f19601f820116820180604052508101906120249190612821565b505050565b600d6020528060005260406000206000915090505481565b60008060005b600a805490508110156121cc576120c1600a8281548110612091577f4e487b7100000000000000000000000000000000000000000000000000000000600052603260045260246000fd5b9060005260206000200160009054906101000a900473ffffffffffffffffffffffffffffffffffffffff16610849565b60056000600a84815481106120ff577f4e487b7100000000000000000000000000000000000000000000000000000000600052603260045260246000fd5b9060005260206000200160009054906101000a900473ffffffffffffffffffffffffffffffffffffffff1673ffffffffffffffffffffffffffffffffffffffff1673ffffffffffffffffffffffffffffffffffffffff16815260200190815260200160002060008673ffffffffffffffffffffffffffffffffffffffff1673ffffffffffffffffffffffffffffffffffffffff168152602001908152602001600020546121ac9190612c8e565b826121b79190612a96565b915080806121c490612dc5565b915050612047565b5080915050919050565b60046020528060005260406000206000915054906101000a900473ffffffffffffffffffffffffffffffffffffffff1681565b6000818154811061221957600080fd5b906000526020600020016000915054906101000a900473ffffffffffffffffffffffffffffffffffffffff1681565b6006602052816000526040600020602052806000526040600020600091509150505481565b600c5481565b6000600d60008373ffffffffffffffffffffffffffffffffffffffff1673ffffffffffffffffffffffffffffffffffffffff168152602001908152602001600020549050919050565b60005b600a8054905081101561234c57612339600a8281548110612309577f4e487b7100000000000000000000000000000000000000000000000000000000600052603260045260246000fd5b9060005260206000200160009054906101000a900473ffffffffffffffffffffffffffffffffffffffff16610a44565b808061234490612dc5565b9150506122bf565b50565b60086020528060005260406000206000915054906101000a900460ff1681565b80600360008473ffffffffffffffffffffffffffffffffffffffff1673ffffffffffffffffffffffffffffffffffffffff16815260200190815260200160002060006101000a81548173ffffffffffffffffffffffffffffffffffffffff021916908373ffffffffffffffffffffffffffffffffffffffff1602179055505050565b60076020528060005260406000206000915054906101000a900460ff1681565b808273ffffffffffffffffffffffffffffffffffffffff166370a08231306040518263ffffffff1660e01b815260040161244b91906129a1565b60206040518083038186803b15801561246357600080fd5b505afa158015612477573d6000803e3d6000fd5b505050506040513d601f19601f8201168201806040525081019061249b9190612873565b116124a557600080fd5b6124ad6122bc565b6124b6336115f9565b816124c033612041565b6124ca9190612a96565b11156124d557600080fd5b80600560008473ffffffffffffffffffffffffffffffffffffffff1673ffffffffffffffffffffffffffffffffffffffff16815260200190815260200160002060003373ffffffffffffffffffffffffffffffffffffffff1673ffffffffffffffffffffffffffffffffffffffff16815260200190815260200160002060008282546125619190612a96565b925050819055508173ffffffffffffffffffffffffffffffffffffffff1663a9059cbb33836040518363ffffffff1660e01b81526004016125a3929190612a1c565b602060405180830381600087803b1580156125bd57600080fd5b505af11580156125d1573d6000803e3d6000fd5b505050506040513d601f19601f820116820180604052508101906125f59190612821565b505050565b600081836126089190612c8e565b905092915050565b6000818361261e9190612aec565b905092915050565b60008135905061263581612e79565b92915050565b60008151905061264a81612e90565b92915050565b60008151905061265f81612ea7565b92915050565b60008135905061267481612ebe565b92915050565b60008151905061268981612ebe565b92915050565b60008135905061269e81612ed5565b92915050565b6000815190506126b381612eec565b92915050565b6000815190506126c881612ed5565b92915050565b6000602082840312156126e057600080fd5b60006126ee84828501612626565b91505092915050565b6000806040838503121561270a57600080fd5b600061271885828601612626565b925050602061272985828601612626565b9150509250929050565b6000806000806080858703121561274957600080fd5b600061275787828801612626565b945050602061276887828801612626565b935050604061277987828801612626565b925050606061278a87828801612665565b91505092959194509250565b600080604083850312156127a957600080fd5b60006127b785828601612626565b92505060206127c885828601612665565b9150509250929050565b6000806000606084860312156127e757600080fd5b60006127f586828701612626565b93505060206128068682870161268f565b925050604061281786828701612665565b9150509250925092565b60006020828403121561283357600080fd5b60006128418482850161263b565b91505092915050565b60006020828403121561285c57600080fd5b600061286a84828501612665565b91505092915050565b60006020828403121561288557600080fd5b60006128938482850161267a565b91505092915050565b6000602082840312156128ae57600080fd5b60006128bc8482850161268f565b91505092915050565b600080600080600060a086880312156128dd57600080fd5b60006128eb888289016126a4565b95505060206128fc88828901612650565b945050604061290d8882890161267a565b935050606061291e8882890161267a565b925050608061292f888289016126a4565b9150509295509295909350565b60006020828403121561294e57600080fd5b600061295c848285016126b9565b91505092915050565b61296e81612d50565b82525050565b61297d81612d62565b82525050565b61298c81612d98565b82525050565b61299b81612da2565b82525050565b60006020820190506129b66000830184612965565b92915050565b60006040820190506129d16000830185612965565b6129de6020830184612965565b9392505050565b60006060820190506129fa6000830186612965565b612a076020830185612965565b612a146040830184612983565b949350505050565b6000604082019050612a316000830185612965565b612a3e6020830184612983565b9392505050565b6000602082019050612a5a6000830184612974565b92915050565b6000602082019050612a756000830184612983565b92915050565b6000602082019050612a906000830184612992565b92915050565b6000612aa182612d98565b9150612aac83612d98565b9250827fffffffffffffffffffffffffffffffffffffffffffffffffffffffffffffffff03821115612ae157612ae0612e0e565b5b828201905092915050565b6000612af782612d98565b9150612b0283612d98565b925082612b1257612b11612e3d565b5b828204905092915050565b6000808291508390505b6001851115612b6757808604811115612b4357612b42612e0e565b5b6001851615612b525780820291505b8081029050612b6085612e6c565b9450612b27565b94509492505050565b6000612b7b82612d98565b9150612b8683612da2565b9250612bb37fffffffffffffffffffffffffffffffffffffffffffffffffffffffffffffffff8484612bbb565b905092915050565b600082612bcb5760019050612c87565b81612bd95760009050612c87565b8160018114612bef5760028114612bf957612c28565b6001915050612c87565b60ff841115612c0b57612c0a612e0e565b5b8360020a915084821115612c2257612c21612e0e565b5b50612c87565b5060208310610133831016604e8410600b8410161715612c5d5782820a905083811115612c5857612c57612e0e565b5b612c87565b612c6a8484846001612b1d565b92509050818404811115612c8157612c80612e0e565b5b81810290505b9392505050565b6000612c9982612d98565b9150612ca483612d98565b9250817fffffffffffffffffffffffffffffffffffffffffffffffffffffffffffffffff0483118215151615612cdd57612cdc612e0e565b5b828202905092915050565b6000612cf382612d98565b9150612cfe83612d98565b925082821015612d1157612d10612e0e565b5b828203905092915050565b6000612d2782612da2565b9150612d3283612da2565b925082821015612d4557612d44612e0e565b5b828203905092915050565b6000612d5b82612d78565b9050919050565b60008115159050919050565b6000819050919050565b600073ffffffffffffffffffffffffffffffffffffffff82169050919050565b6000819050919050565b600060ff82169050919050565b600069ffffffffffffffffffff82169050919050565b6000612dd082612d98565b91507fffffffffffffffffffffffffffffffffffffffffffffffffffffffffffffffff821415612e0357612e02612e0e565b5b600182019050919050565b7f4e487b7100000000000000000000000000000000000000000000000000000000600052601160045260246000fd5b7f4e487b7100000000000000000000000000000000000000000000000000000000600052601260045260246000fd5b60008160011c9050919050565b612e8281612d50565b8114612e8d57600080fd5b50565b612e9981612d62565b8114612ea457600080fd5b50565b612eb081612d6e565b8114612ebb57600080fd5b50565b612ec781612d98565b8114612ed257600080fd5b50565b612ede81612da2565b8114612ee957600080fd5b50565b612ef581612daf565b8114612f0057600080fd5b5056fea264697066735822122041ab5c5dc041ea747f435471fcd638f27ffc8213ed38ad047b81a0bc5217675e64736f6c63430008040033",
  "linkReferences": {},
  "deployedLinkReferences": {}
}