{
  "_format": "hh-sol-artifact-1",
  "contractName": "sbLending",
  "sourceName": "contracts/sbLending-V0.sol",
  "abi": [
    {
      "inputs": [],
      "stateMutability": "nonpayable",
      "type": "constructor"
    },
    {
      "inputs": [
        {
          "internalType": "address",
          "name": "",
          "type": "address"
        },
        {
          "internalType": "address",
          "name": "",
          "type": "address"
        }
      ],
      "name": "ERC20BorrowList",
      "outputs": [
        {
          "internalType": "uint256",
          "name": "",
          "type": "uint256"
        }
      ],
      "stateMutability": "view",
      "type": "function"
    },
    {
      "inputs": [
        {
          "internalType": "uint256",
          "name": "",
          "type": "uint256"
        }
      ],
      "name": "ERC20BorrowTokens",
      "outputs": [
        {
          "internalType": "address",
          "name": "",
          "type": "address"
        }
      ],
      "stateMutability": "view",
      "type": "function"
    },
    {
      "inputs": [
        {
          "internalType": "address",
          "name": "",
          "type": "address"
        },
        {
          "internalType": "address",
          "name": "",
          "type": "address"
        }
      ],
      "name": "ERC20DepositList",
      "outputs": [
        {
          "internalType": "uint256",
          "name": "",
          "type": "uint256"
        }
      ],
      "stateMutability": "view",
      "type": "function"
    },
    {
      "inputs": [
        {
          "internalType": "uint256",
          "name": "",
          "type": "uint256"
        }
      ],
      "name": "ERC20DepositTokens",
      "outputs": [
        {
          "internalType": "address",
          "name": "",
          "type": "address"
        }
      ],
      "stateMutability": "view",
      "type": "function"
    },
    {
      "inputs": [
        {
          "internalType": "address",
          "name": "",
          "type": "address"
        }
      ],
      "name": "ERC20Oracles",
      "outputs": [
        {
          "internalType": "address",
          "name": "",
          "type": "address"
        }
      ],
      "stateMutability": "view",
      "type": "function"
    },
    {
      "inputs": [
        {
          "internalType": "address",
          "name": "_token",
          "type": "address"
        }
      ],
      "name": "addBorrowToken",
      "outputs": [],
      "stateMutability": "nonpayable",
      "type": "function"
    },
    {
      "inputs": [
        {
          "internalType": "address",
          "name": "_token",
          "type": "address"
        }
      ],
      "name": "addDepositToken",
      "outputs": [],
      "stateMutability": "nonpayable",
      "type": "function"
    },
    {
      "inputs": [
        {
          "internalType": "address",
          "name": "_token",
          "type": "address"
        },
        {
          "internalType": "address",
          "name": "_oracle",
          "type": "address"
        }
      ],
      "name": "addOracle",
      "outputs": [],
      "stateMutability": "nonpayable",
      "type": "function"
    },
    {
      "inputs": [
        {
          "internalType": "address",
          "name": "_token",
          "type": "address"
        },
        {
          "internalType": "uint8",
          "name": "_category",
          "type": "uint8"
        },
        {
          "internalType": "uint256",
          "name": "_power",
          "type": "uint256"
        }
      ],
      "name": "addSoulBondToken",
      "outputs": [],
      "stateMutability": "nonpayable",
      "type": "function"
    },
    {
      "inputs": [
        {
          "internalType": "address",
          "name": "_token",
          "type": "address"
        },
        {
          "internalType": "uint256",
          "name": "_interestRate",
          "type": "uint256"
        }
      ],
      "name": "addTokenInterestFixedInterestRate",
      "outputs": [],
      "stateMutability": "nonpayable",
      "type": "function"
    },
    {
      "inputs": [
        {
          "internalType": "address",
          "name": "",
          "type": "address"
        }
      ],
      "name": "allowedBorrowedTokens",
      "outputs": [
        {
          "internalType": "bool",
          "name": "",
          "type": "bool"
        }
      ],
      "stateMutability": "view",
      "type": "function"
    },
    {
      "inputs": [
        {
          "internalType": "address",
          "name": "",
          "type": "address"
        }
      ],
      "name": "allowedDepositTokens",
      "outputs": [
        {
          "internalType": "bool",
          "name": "",
          "type": "bool"
        }
      ],
      "stateMutability": "view",
      "type": "function"
    },
    {
      "inputs": [],
      "name": "baseMaxBorrow",
      "outputs": [
        {
          "internalType": "uint256",
          "name": "",
          "type": "uint256"
        }
      ],
      "stateMutability": "view",
      "type": "function"
    },
    {
      "inputs": [
        {
          "internalType": "address",
          "name": "_token",
          "type": "address"
        },
        {
          "internalType": "uint256",
          "name": "_value",
          "type": "uint256"
        }
      ],
      "name": "borrowERC20",
      "outputs": [],
      "stateMutability": "nonpayable",
      "type": "function"
    },
    {
      "inputs": [
        {
          "internalType": "address",
          "name": "_user",
          "type": "address"
        }
      ],
      "name": "calculateMaxBorrow",
      "outputs": [
        {
          "internalType": "uint256",
          "name": "",
          "type": "uint256"
        }
      ],
      "stateMutability": "view",
      "type": "function"
    },
    {
      "inputs": [
        {
          "internalType": "address",
          "name": "_user",
          "type": "address"
        }
      ],
      "name": "calculateTotalBorrowed",
      "outputs": [
        {
          "internalType": "uint256",
          "name": "",
          "type": "uint256"
        }
      ],
      "stateMutability": "view",
      "type": "function"
    },
    {
      "inputs": [
        {
          "internalType": "address",
          "name": "_user",
          "type": "address"
        }
      ],
      "name": "calculateTotalDeposit",
      "outputs": [
        {
          "internalType": "uint256",
          "name": "",
          "type": "uint256"
        }
      ],
      "stateMutability": "view",
      "type": "function"
    },
    {
      "inputs": [
        {
          "internalType": "uint8",
          "name": "",
          "type": "uint8"
        }
      ],
      "name": "categoryPower",
      "outputs": [
        {
          "internalType": "uint256",
          "name": "",
          "type": "uint256"
        }
      ],
      "stateMutability": "view",
      "type": "function"
    },
    {
      "inputs": [
        {
          "internalType": "address",
          "name": "_token",
          "type": "address"
        },
        {
          "internalType": "uint256",
          "name": "_value",
          "type": "uint256"
        }
      ],
      "name": "depositERC20",
      "outputs": [],
      "stateMutability": "nonpayable",
      "type": "function"
    },
    {
      "inputs": [
        {
          "internalType": "address",
          "name": "_token",
          "type": "address"
        }
      ],
      "name": "getInterestRate",
      "outputs": [
        {
          "internalType": "uint256",
          "name": "",
          "type": "uint256"
        }
      ],
      "stateMutability": "view",
      "type": "function"
    },
    {
      "inputs": [
        {
          "internalType": "address",
          "name": "_token",
          "type": "address"
        }
      ],
      "name": "getLatestPrice",
      "outputs": [
        {
          "internalType": "uint256",
          "name": "",
          "type": "uint256"
        }
      ],
      "stateMutability": "view",
      "type": "function"
    },
    {
      "inputs": [
        {
          "internalType": "address",
          "name": "collateralAsset",
          "type": "address"
        },
        {
          "internalType": "address",
          "name": "debtAsset",
          "type": "address"
        },
        {
          "internalType": "address",
          "name": "user",
          "type": "address"
        },
        {
          "internalType": "uint256",
          "name": "debtToCover",
          "type": "uint256"
        }
      ],
      "name": "liquidationCall",
      "outputs": [],
      "stateMutability": "nonpayable",
      "type": "function"
    },
    {
      "inputs": [
        {
          "internalType": "address",
          "name": "_token",
          "type": "address"
        },
        {
          "internalType": "uint256",
          "name": "_value",
          "type": "uint256"
        }
      ],
      "name": "payBackERC20",
      "outputs": [],
      "stateMutability": "nonpayable",
      "type": "function"
    },
    {
      "inputs": [
        {
          "internalType": "uint256",
          "name": "_value",
          "type": "uint256"
        }
      ],
      "name": "setBaseMaxBorrow",
      "outputs": [],
      "stateMutability": "nonpayable",
      "type": "function"
    },
    {
      "inputs": [
        {
          "internalType": "address",
          "name": "",
          "type": "address"
        }
      ],
      "name": "soulBondCategories",
      "outputs": [
        {
          "internalType": "uint8",
          "name": "",
          "type": "uint8"
        }
      ],
      "stateMutability": "view",
      "type": "function"
    },
    {
      "inputs": [
        {
          "internalType": "uint256",
          "name": "",
          "type": "uint256"
        }
      ],
      "name": "soulBondList",
      "outputs": [
        {
          "internalType": "address",
          "name": "",
          "type": "address"
        }
      ],
      "stateMutability": "view",
      "type": "function"
    },
    {
      "inputs": [
        {
          "internalType": "address",
          "name": "",
          "type": "address"
        }
      ],
      "name": "tokenFixedInterestRate",
      "outputs": [
        {
          "internalType": "uint256",
          "name": "",
          "type": "uint256"
        }
      ],
      "stateMutability": "view",
      "type": "function"
    },
    {
      "inputs": [
        {
          "internalType": "address",
          "name": "",
          "type": "address"
        }
      ],
      "name": "tokenToOracleToken",
      "outputs": [
        {
          "internalType": "address",
          "name": "",
          "type": "address"
        }
      ],
      "stateMutability": "view",
      "type": "function"
    },
    {
      "inputs": [],
      "name": "updateAllBalances",
      "outputs": [],
      "stateMutability": "nonpayable",
      "type": "function"
    },
    {
      "inputs": [
        {
          "internalType": "address",
          "name": "_token",
          "type": "address"
        }
      ],
      "name": "updateBalanceWithInterestRate",
      "outputs": [],
      "stateMutability": "nonpayable",
      "type": "function"
    },
    {
      "inputs": [
        {
          "internalType": "address",
          "name": "",
          "type": "address"
        },
        {
          "internalType": "address",
          "name": "",
          "type": "address"
        }
      ],
      "name": "userLastTokenUpdate",
      "outputs": [
        {
          "internalType": "uint256",
          "name": "",
          "type": "uint256"
        }
      ],
      "stateMutability": "view",
      "type": "function"
    },
    {
      "inputs": [
        {
          "internalType": "address",
          "name": "_token",
          "type": "address"
        },
        {
          "internalType": "uint256",
          "name": "_value",
          "type": "uint256"
        }
      ],
      "name": "withdrawERC20",
      "outputs": [],
      "stateMutability": "nonpayable",
      "type": "function"
    }
  ],
  "bytecode": "0x60806040526046600c5534801561001557600080fd5b5033600e60006101000a81548173ffffffffffffffffffffffffffffffffffffffff021916908373ffffffffffffffffffffffffffffffffffffffff160217905550612c88806100666000396000f3fe608060405234801561001057600080fd5b50600436106101f05760003560e01c806397feb9261161010f578063c8ce4d0e116100a2578063eac9168b11610071578063eac9168b14610635578063f0ca4adb14610665578063f35ffb6314610681578063f84228d1146106b1576101f0565b8063c8ce4d0e146105ad578063c9e1fbf6146105dd578063d3ea0f89146105fb578063dfa811ba1461062b576101f0565b8063a24a7c30116100de578063a24a7c30146104ed578063a9c51c041461051d578063b8c5c7931461054d578063bc8b67ca1461057d576101f0565b806397feb926146104555780639a0325bb146104715780639ff0fbe9146104a1578063a1db9782146104d1576101f0565b80634ec4d2d31161018757806379e40cba1161015657806379e40cba146103bd5780638e827bde146103d95780638f7c251014610409578063909046c814610425576101f0565b80634ec4d2d31461031157806355c81369146103415780636102b7071461037157806371ab77851461038d576101f0565b8063267c3542116101c3578063267c3542146102795780633ab5f744146102955780633bb22811146102c55780634ddb38df146102f5576101f0565b80630567d9e6146101f557806316345f1814610211578063186f926314610241578063240a51be1461025d575b600080fd5b61020f600480360381019061020a919061253d565b6106cd565b005b61022b6004803603810190610226919061253d565b6107e5565b6040516102389190612901565b60405180910390f35b61025b6004803603810190610256919061253d565b6108d4565b005b61027760048036038101906102729190612605565b610ac8565b005b610293600480360381019061028e9190612605565b610d16565b005b6102af60048036038101906102aa919061253d565b610d5e565b6040516102bc9190612820565b60405180910390f35b6102df60048036038101906102da91906126b9565b610d91565b6040516102ec9190612820565b60405180910390f35b61030f600480360381019061030a91906126b9565b610dd0565b005b61032b6004803603810190610326919061253d565b610dda565b6040516103389190612901565b60405180910390f35b61035b6004803603810190610356919061253d565b610f6f565b6040516103689190612901565b60405180910390f35b61038b60048036038101906103869190612641565b6112ac565b005b6103a760048036038101906103a29190612566565b6113f4565b6040516103b49190612901565b60405180910390f35b6103d760048036038101906103d2919061253d565b611419565b005b6103f360048036038101906103ee9190612566565b6114d7565b6040516104009190612901565b60405180910390f35b610423600480360381019061041e91906125a2565b6114fc565b005b61043f600480360381019061043a919061253d565b611816565b60405161044c919061291c565b60405180910390f35b61046f600480360381019061046a9190612605565b611836565b005b61048b600480360381019061048691906126b9565b611a90565b6040516104989190612820565b60405180910390f35b6104bb60048036038101906104b6919061270b565b611acf565b6040516104c89190612901565b60405180910390f35b6104eb60048036038101906104e69190612605565b611ae7565b005b6105076004803603810190610502919061253d565b611c9f565b6040516105149190612901565b60405180910390f35b6105376004803603810190610532919061253d565b611cb7565b6040516105449190612901565b60405180910390f35b6105676004803603810190610562919061253d565b611eff565b6040516105749190612820565b60405180910390f35b610597600480360381019061059291906126b9565b611f32565b6040516105a49190612820565b60405180910390f35b6105c760048036038101906105c29190612566565b611f71565b6040516105d49190612901565b60405180910390f35b6105e5611f96565b6040516105f29190612901565b60405180910390f35b6106156004803603810190610610919061253d565b611f9c565b6040516106229190612901565b60405180910390f35b610633611fe5565b005b61064f600480360381019061064a919061253d565b612078565b60405161065c91906128c4565b60405180910390f35b61067f600480360381019061067a9190612566565b612098565b005b61069b6004803603810190610696919061253d565b61211a565b6040516106a891906128c4565b60405180910390f35b6106cb60048036038101906106c69190612605565b61213a565b005b600e60009054906101000a900473ffffffffffffffffffffffffffffffffffffffff1673ffffffffffffffffffffffffffffffffffffffff163373ffffffffffffffffffffffffffffffffffffffff161461072757600080fd5b600a819080600181540180825580915050600190039060005260206000200160009091909190916101000a81548173ffffffffffffffffffffffffffffffffffffffff021916908373ffffffffffffffffffffffffffffffffffffffff1602179055506001600760008373ffffffffffffffffffffffffffffffffffffffff1673ffffffffffffffffffffffffffffffffffffffff16815260200190815260200160002060006101000a81548160ff02191690831515021790555050565b600080600360008473ffffffffffffffffffffffffffffffffffffffff1673ffffffffffffffffffffffffffffffffffffffff16815260200190815260200160002060009054906101000a900473ffffffffffffffffffffffffffffffffffffffff1673ffffffffffffffffffffffffffffffffffffffff1663feaf968c6040518163ffffffff1660e01b815260040160a06040518083038186803b15801561088d57600080fd5b505afa1580156108a1573d6000803e3d6000fd5b505050506040513d601f19601f820116820180604052508101906108c59190612734565b50505091505080915050919050565b6000600960003373ffffffffffffffffffffffffffffffffffffffff1673ffffffffffffffffffffffffffffffffffffffff16815260200190815260200160002060008373ffffffffffffffffffffffffffffffffffffffff1673ffffffffffffffffffffffffffffffffffffffff16815260200190815260200160002054905042600960003373ffffffffffffffffffffffffffffffffffffffff1673ffffffffffffffffffffffffffffffffffffffff16815260200190815260200160002060008473ffffffffffffffffffffffffffffffffffffffff1673ffffffffffffffffffffffffffffffffffffffff168152602001908152602001600020819055506000600d60008473ffffffffffffffffffffffffffffffffffffffff1673ffffffffffffffffffffffffffffffffffffffff168152602001908152602001600020548242610a249190612a34565b610a2e91906129da565b905080600660008573ffffffffffffffffffffffffffffffffffffffff1673ffffffffffffffffffffffffffffffffffffffff16815260200190815260200160002060003373ffffffffffffffffffffffffffffffffffffffff1673ffffffffffffffffffffffffffffffffffffffff1681526020019081526020016000206000828254610abc9190612953565b92505081905550505050565b808273ffffffffffffffffffffffffffffffffffffffff1663dd62ed3e33306040518363ffffffff1660e01b8152600401610b0492919061283b565b60206040518083038186803b158015610b1c57600080fd5b505afa158015610b30573d6000803e3d6000fd5b505050506040513d601f19601f82011682018060405250810190610b5491906126e2565b11610b5e57600080fd5b610b66611fe5565b80600560008473ffffffffffffffffffffffffffffffffffffffff1673ffffffffffffffffffffffffffffffffffffffff16815260200190815260200160002060003373ffffffffffffffffffffffffffffffffffffffff1673ffffffffffffffffffffffffffffffffffffffff168152602001908152602001600020541015610bef57600080fd5b8173ffffffffffffffffffffffffffffffffffffffff166323b872dd3330846040518463ffffffff1660e01b8152600401610c2c93929190612864565b602060405180830381600087803b158015610c4657600080fd5b505af1158015610c5a573d6000803e3d6000fd5b505050506040513d601f19601f82011682018060405250810190610c7e9190612690565b5080600560008473ffffffffffffffffffffffffffffffffffffffff1673ffffffffffffffffffffffffffffffffffffffff16815260200190815260200160002060003373ffffffffffffffffffffffffffffffffffffffff1673ffffffffffffffffffffffffffffffffffffffff1681526020019081526020016000206000828254610d0b9190612a34565b925050819055505050565b80600d60008473ffffffffffffffffffffffffffffffffffffffff1673ffffffffffffffffffffffffffffffffffffffff168152602001908152602001600020819055505050565b60036020528060005260406000206000915054906101000a900473ffffffffffffffffffffffffffffffffffffffff1681565b600b8181548110610da157600080fd5b906000526020600020016000915054906101000a900473ffffffffffffffffffffffffffffffffffffffff1681565b80600c8190555050565b60008060005b600b80549050811015610f6557610e5a600b8281548110610e2a577f4e487b7100000000000000000000000000000000000000000000000000000000600052603260045260246000fd5b9060005260206000200160009054906101000a900473ffffffffffffffffffffffffffffffffffffffff166107e5565b60066000600b8481548110610e98577f4e487b7100000000000000000000000000000000000000000000000000000000600052603260045260246000fd5b9060005260206000200160009054906101000a900473ffffffffffffffffffffffffffffffffffffffff1673ffffffffffffffffffffffffffffffffffffffff1673ffffffffffffffffffffffffffffffffffffffff16815260200190815260200160002060008673ffffffffffffffffffffffffffffffffffffffff1673ffffffffffffffffffffffffffffffffffffffff16815260200190815260200160002054610f4591906129da565b82610f509190612953565b91508080610f5d90612b10565b915050610de0565b5080915050919050565b600080600c54905060005b60008054905081101561127c576000611090670de0b6b3a764000060008481548110610fcf577f4e487b7100000000000000000000000000000000000000000000000000000000600052603260045260246000fd5b9060005260206000200160009054906101000a900473ffffffffffffffffffffffffffffffffffffffff1673ffffffffffffffffffffffffffffffffffffffff166370a08231886040518263ffffffff1660e01b81526004016110329190612820565b60206040518083038186803b15801561104a57600080fd5b505afa15801561105e573d6000803e3d6000fd5b505050506040513d601f19601f8201168201806040525081019061108291906126e2565b61232390919063ffffffff16565b905060008083815481106110cd577f4e487b7100000000000000000000000000000000000000000000000000000000600052603260045260246000fd5b9060005260206000200160009054906101000a900473ffffffffffffffffffffffffffffffffffffffff1673ffffffffffffffffffffffffffffffffffffffff166370a08231876040518263ffffffff1660e01b81526004016111309190612820565b60206040518083038186803b15801561114857600080fd5b505afa15801561115c573d6000803e3d6000fd5b505050506040513d601f19601f8201168201806040525081019061118091906126e2565b1115611268578060026000600160008087815481106111c8577f4e487b7100000000000000000000000000000000000000000000000000000000600052603260045260246000fd5b9060005260206000200160009054906101000a900473ffffffffffffffffffffffffffffffffffffffff1673ffffffffffffffffffffffffffffffffffffffff1673ffffffffffffffffffffffffffffffffffffffff16815260200190815260200160002060009054906101000a900460ff1660ff1660ff1681526020019081526020016000205461125a91906129da565b836112659190612953565b92505b50808061127490612b10565b915050610f7a565b506112a4606461128b85610dda565b8361129691906129da565b61232390919063ffffffff16565b915050919050565b600e60009054906101000a900473ffffffffffffffffffffffffffffffffffffffff1673ffffffffffffffffffffffffffffffffffffffff163373ffffffffffffffffffffffffffffffffffffffff161461130657600080fd5b60008260ff161161131657600080fd5b6000839080600181540180825580915050600190039060005260206000200160009091909190916101000a81548173ffffffffffffffffffffffffffffffffffffffff021916908373ffffffffffffffffffffffffffffffffffffffff16021790555081600160008573ffffffffffffffffffffffffffffffffffffffff1673ffffffffffffffffffffffffffffffffffffffff16815260200190815260200160002060006101000a81548160ff021916908360ff16021790555080600260008460ff1660ff16815260200190815260200160002081905550505050565b6009602052816000526040600020602052806000526040600020600091509150505481565b600b819080600181540180825580915050600190039060005260206000200160009091909190916101000a81548173ffffffffffffffffffffffffffffffffffffffff021916908373ffffffffffffffffffffffffffffffffffffffff1602179055506001600860008373ffffffffffffffffffffffffffffffffffffffff1673ffffffffffffffffffffffffffffffffffffffff16815260200190815260200160002060006101000a81548160ff02191690831515021790555050565b6005602052816000526040600020602052806000526040600020600091509150505481565b611504611fe5565b808373ffffffffffffffffffffffffffffffffffffffff1663dd62ed3e33306040518363ffffffff1660e01b815260040161154092919061283b565b60206040518083038186803b15801561155857600080fd5b505afa15801561156c573d6000803e3d6000fd5b505050506040513d601f19601f8201168201806040525081019061159091906126e2565b1161159a57600080fd5b80600560008573ffffffffffffffffffffffffffffffffffffffff1673ffffffffffffffffffffffffffffffffffffffff16815260200190815260200160002060008473ffffffffffffffffffffffffffffffffffffffff1673ffffffffffffffffffffffffffffffffffffffff16815260200190815260200160002060008282546116269190612a34565b925050819055508273ffffffffffffffffffffffffffffffffffffffff166323b872dd3330846040518463ffffffff1660e01b815260040161166a93929190612864565b602060405180830381600087803b15801561168457600080fd5b505af1158015611698573d6000803e3d6000fd5b505050506040513d601f19601f820116820180604052508101906116bc9190612690565b50600081905060006116eb60646116dd60698561233990919063ffffffff16565b61232390919063ffffffff16565b905080600660008873ffffffffffffffffffffffffffffffffffffffff1673ffffffffffffffffffffffffffffffffffffffff16815260200190815260200160002060008673ffffffffffffffffffffffffffffffffffffffff1673ffffffffffffffffffffffffffffffffffffffff16815260200190815260200160002060008282546117799190612a34565b925050819055508573ffffffffffffffffffffffffffffffffffffffff1663a9059cbb33836040518363ffffffff1660e01b81526004016117bb92919061289b565b602060405180830381600087803b1580156117d557600080fd5b505af11580156117e9573d6000803e3d6000fd5b505050506040513d601f19601f8201168201806040525081019061180d9190612690565b50505050505050565b60016020528060005260406000206000915054906101000a900460ff1681565b808273ffffffffffffffffffffffffffffffffffffffff1663dd62ed3e33306040518363ffffffff1660e01b815260040161187292919061283b565b60206040518083038186803b15801561188a57600080fd5b505afa15801561189e573d6000803e3d6000fd5b505050506040513d601f19601f820116820180604052508101906118c291906126e2565b116118cc57600080fd5b808273ffffffffffffffffffffffffffffffffffffffff166370a08231336040518263ffffffff1660e01b81526004016119069190612820565b60206040518083038186803b15801561191e57600080fd5b505afa158015611932573d6000803e3d6000fd5b505050506040513d601f19601f8201168201806040525081019061195691906126e2565b101561196157600080fd5b611969611fe5565b8173ffffffffffffffffffffffffffffffffffffffff166323b872dd3330846040518463ffffffff1660e01b81526004016119a693929190612864565b602060405180830381600087803b1580156119c057600080fd5b505af11580156119d4573d6000803e3d6000fd5b505050506040513d601f19601f820116820180604052508101906119f89190612690565b5080600660008473ffffffffffffffffffffffffffffffffffffffff1673ffffffffffffffffffffffffffffffffffffffff16815260200190815260200160002060003373ffffffffffffffffffffffffffffffffffffffff1673ffffffffffffffffffffffffffffffffffffffff1681526020019081526020016000206000828254611a859190612953565b925050819055505050565b600a8181548110611aa057600080fd5b906000526020600020016000915054906101000a900473ffffffffffffffffffffffffffffffffffffffff1681565b60026020528060005260406000206000915090505481565b611aef611fe5565b80600660008473ffffffffffffffffffffffffffffffffffffffff1673ffffffffffffffffffffffffffffffffffffffff16815260200190815260200160002060003373ffffffffffffffffffffffffffffffffffffffff1673ffffffffffffffffffffffffffffffffffffffff168152602001908152602001600020541015611b7857600080fd5b80600660008473ffffffffffffffffffffffffffffffffffffffff1673ffffffffffffffffffffffffffffffffffffffff16815260200190815260200160002060003373ffffffffffffffffffffffffffffffffffffffff1673ffffffffffffffffffffffffffffffffffffffff1681526020019081526020016000206000828254611c049190612a34565b925050819055508173ffffffffffffffffffffffffffffffffffffffff166323b872dd3330846040518463ffffffff1660e01b8152600401611c4893929190612864565b602060405180830381600087803b158015611c6257600080fd5b505af1158015611c76573d6000803e3d6000fd5b505050506040513d601f19601f82011682018060405250810190611c9a9190612690565b505050565b600d6020528060005260406000206000915090505481565b60008060005b600a80549050811015611ef557611d086040518060400160405280601081526020017f436861696e204c696e6b2050726963650000000000000000000000000000000081525061234f565b611d7d611d78600a8381548110611d48577f4e487b7100000000000000000000000000000000000000000000000000000000600052603260045260246000fd5b9060005260206000200160009054906101000a900473ffffffffffffffffffffffffffffffffffffffff166107e5565b6123e8565b611dea600a8281548110611dba577f4e487b7100000000000000000000000000000000000000000000000000000000600052603260045260246000fd5b9060005260206000200160009054906101000a900473ffffffffffffffffffffffffffffffffffffffff166107e5565b60056000600a8481548110611e28577f4e487b7100000000000000000000000000000000000000000000000000000000600052603260045260246000fd5b9060005260206000200160009054906101000a900473ffffffffffffffffffffffffffffffffffffffff1673ffffffffffffffffffffffffffffffffffffffff1673ffffffffffffffffffffffffffffffffffffffff16815260200190815260200160002060008673ffffffffffffffffffffffffffffffffffffffff1673ffffffffffffffffffffffffffffffffffffffff16815260200190815260200160002054611ed591906129da565b82611ee09190612953565b91508080611eed90612b10565b915050611cbd565b5080915050919050565b60046020528060005260406000206000915054906101000a900473ffffffffffffffffffffffffffffffffffffffff1681565b60008181548110611f4257600080fd5b906000526020600020016000915054906101000a900473ffffffffffffffffffffffffffffffffffffffff1681565b6006602052816000526040600020602052806000526040600020600091509150505481565b600c5481565b6000600d60008373ffffffffffffffffffffffffffffffffffffffff1673ffffffffffffffffffffffffffffffffffffffff168152602001908152602001600020549050919050565b60005b600a8054905081101561207557612062600a8281548110612032577f4e487b7100000000000000000000000000000000000000000000000000000000600052603260045260246000fd5b9060005260206000200160009054906101000a900473ffffffffffffffffffffffffffffffffffffffff166108d4565b808061206d90612b10565b915050611fe8565b50565b60086020528060005260406000206000915054906101000a900460ff1681565b80600360008473ffffffffffffffffffffffffffffffffffffffff1673ffffffffffffffffffffffffffffffffffffffff16815260200190815260200160002060006101000a81548173ffffffffffffffffffffffffffffffffffffffff021916908373ffffffffffffffffffffffffffffffffffffffff1602179055505050565b60076020528060005260406000206000915054906101000a900460ff1681565b808273ffffffffffffffffffffffffffffffffffffffff166370a08231306040518263ffffffff1660e01b81526004016121749190612820565b60206040518083038186803b15801561218c57600080fd5b505afa1580156121a0573d6000803e3d6000fd5b505050506040513d601f19601f820116820180604052508101906121c491906126e2565b116121ce57600080fd5b6121d6611fe5565b6121df33610f6f565b816121e933611cb7565b6121f39190612953565b11156121fe57600080fd5b80600560008473ffffffffffffffffffffffffffffffffffffffff1673ffffffffffffffffffffffffffffffffffffffff16815260200190815260200160002060003373ffffffffffffffffffffffffffffffffffffffff1673ffffffffffffffffffffffffffffffffffffffff168152602001908152602001600020600082825461228a9190612953565b925050819055508173ffffffffffffffffffffffffffffffffffffffff1663a9059cbb33836040518363ffffffff1660e01b81526004016122cc92919061289b565b602060405180830381600087803b1580156122e657600080fd5b505af11580156122fa573d6000803e3d6000fd5b505050506040513d601f19601f8201168201806040525081019061231e9190612690565b505050565b6000818361233191906129a9565b905092915050565b6000818361234791906129da565b905092915050565b6123e58160405160240161236391906128df565b6040516020818303038152906040527f41304fac000000000000000000000000000000000000000000000000000000007bffffffffffffffffffffffffffffffffffffffffffffffffffffffff19166020820180517bffffffffffffffffffffffffffffffffffffffffffffffffffffffff8381831617835250505050612481565b50565b61247e816040516024016123fc9190612901565b6040516020818303038152906040527ff5b1bba9000000000000000000000000000000000000000000000000000000007bffffffffffffffffffffffffffffffffffffffffffffffffffffffff19166020820180517bffffffffffffffffffffffffffffffffffffffffffffffffffffffff8381831617835250505050612481565b50565b60008151905060006a636f6e736f6c652e6c6f679050602083016000808483855afa5050505050565b6000813590506124b981612bc8565b92915050565b6000815190506124ce81612bdf565b92915050565b6000815190506124e381612bf6565b92915050565b6000813590506124f881612c0d565b92915050565b60008151905061250d81612c0d565b92915050565b60008135905061252281612c24565b92915050565b60008151905061253781612c3b565b92915050565b60006020828403121561254f57600080fd5b600061255d848285016124aa565b91505092915050565b6000806040838503121561257957600080fd5b6000612587858286016124aa565b9250506020612598858286016124aa565b9150509250929050565b600080600080608085870312156125b857600080fd5b60006125c6878288016124aa565b94505060206125d7878288016124aa565b93505060406125e8878288016124aa565b92505060606125f9878288016124e9565b91505092959194509250565b6000806040838503121561261857600080fd5b6000612626858286016124aa565b9250506020612637858286016124e9565b9150509250929050565b60008060006060848603121561265657600080fd5b6000612664868287016124aa565b935050602061267586828701612513565b9250506040612686868287016124e9565b9150509250925092565b6000602082840312156126a257600080fd5b60006126b0848285016124bf565b91505092915050565b6000602082840312156126cb57600080fd5b60006126d9848285016124e9565b91505092915050565b6000602082840312156126f457600080fd5b6000612702848285016124fe565b91505092915050565b60006020828403121561271d57600080fd5b600061272b84828501612513565b91505092915050565b600080600080600060a0868803121561274c57600080fd5b600061275a88828901612528565b955050602061276b888289016124d4565b945050604061277c888289016124fe565b935050606061278d888289016124fe565b925050608061279e88828901612528565b9150509295509295909350565b6127b481612a68565b82525050565b6127c381612a7a565b82525050565b60006127d482612937565b6127de8185612942565b93506127ee818560208601612add565b6127f781612bb7565b840191505092915050565b61280b81612ab0565b82525050565b61281a81612aba565b82525050565b600060208201905061283560008301846127ab565b92915050565b600060408201905061285060008301856127ab565b61285d60208301846127ab565b9392505050565b600060608201905061287960008301866127ab565b61288660208301856127ab565b6128936040830184612802565b949350505050565b60006040820190506128b060008301856127ab565b6128bd6020830184612802565b9392505050565b60006020820190506128d960008301846127ba565b92915050565b600060208201905081810360008301526128f981846127c9565b905092915050565b60006020820190506129166000830184612802565b92915050565b60006020820190506129316000830184612811565b92915050565b600081519050919050565b600082825260208201905092915050565b600061295e82612ab0565b915061296983612ab0565b9250827fffffffffffffffffffffffffffffffffffffffffffffffffffffffffffffffff0382111561299e5761299d612b59565b5b828201905092915050565b60006129b482612ab0565b91506129bf83612ab0565b9250826129cf576129ce612b88565b5b828204905092915050565b60006129e582612ab0565b91506129f083612ab0565b9250817fffffffffffffffffffffffffffffffffffffffffffffffffffffffffffffffff0483118215151615612a2957612a28612b59565b5b828202905092915050565b6000612a3f82612ab0565b9150612a4a83612ab0565b925082821015612a5d57612a5c612b59565b5b828203905092915050565b6000612a7382612a90565b9050919050565b60008115159050919050565b6000819050919050565b600073ffffffffffffffffffffffffffffffffffffffff82169050919050565b6000819050919050565b600060ff82169050919050565b600069ffffffffffffffffffff82169050919050565b60005b83811015612afb578082015181840152602081019050612ae0565b83811115612b0a576000848401525b50505050565b6000612b1b82612ab0565b91507fffffffffffffffffffffffffffffffffffffffffffffffffffffffffffffffff821415612b4e57612b4d612b59565b5b600182019050919050565b7f4e487b7100000000000000000000000000000000000000000000000000000000600052601160045260246000fd5b7f4e487b7100000000000000000000000000000000000000000000000000000000600052601260045260246000fd5b6000601f19601f8301169050919050565b612bd181612a68565b8114612bdc57600080fd5b50565b612be881612a7a565b8114612bf357600080fd5b50565b612bff81612a86565b8114612c0a57600080fd5b50565b612c1681612ab0565b8114612c2157600080fd5b50565b612c2d81612aba565b8114612c3857600080fd5b50565b612c4481612ac7565b8114612c4f57600080fd5b5056fea2646970667358221220db0bfa3d39f6f98758fdd6de839a0b7412e6fd9fc132554c0d7e0cc7c2c7dfc964736f6c63430008040033",
  "linkReferences": {},
  "deployedLinkReferences": {}
}