{
  "_format": "hh-sol-artifact-1",
  "contractName": "SoulBondS",
  "sourceName": "contracts/SoulBondS.sol",
  "abi": [
    {
      "inputs": [],
      "stateMutability": "nonpayable",
      "type": "constructor"
    },
    {
      "anonymous": false,
      "inputs": [
        {
          "indexed": true,
          "internalType": "address",
          "name": "owner",
          "type": "address"
        },
        {
          "indexed": true,
          "internalType": "address",
          "name": "approved",
          "type": "address"
        },
        {
          "indexed": true,
          "internalType": "uint256",
          "name": "tokenId",
          "type": "uint256"
        }
      ],
      "name": "Approval",
      "type": "event"
    },
    {
      "anonymous": false,
      "inputs": [
        {
          "indexed": true,
          "internalType": "address",
          "name": "owner",
          "type": "address"
        },
        {
          "indexed": true,
          "internalType": "address",
          "name": "operator",
          "type": "address"
        },
        {
          "indexed": false,
          "internalType": "bool",
          "name": "approved",
          "type": "bool"
        }
      ],
      "name": "ApprovalForAll",
      "type": "event"
    },
    {
      "anonymous": false,
      "inputs": [
        {
          "indexed": true,
          "internalType": "address",
          "name": "from",
          "type": "address"
        },
        {
          "indexed": true,
          "internalType": "address",
          "name": "to",
          "type": "address"
        },
        {
          "indexed": true,
          "internalType": "uint256",
          "name": "tokenId",
          "type": "uint256"
        }
      ],
      "name": "Transfer",
      "type": "event"
    },
    {
      "inputs": [
        {
          "internalType": "address",
          "name": "to",
          "type": "address"
        },
        {
          "internalType": "uint256",
          "name": "tokenId",
          "type": "uint256"
        }
      ],
      "name": "approve",
      "outputs": [],
      "stateMutability": "nonpayable",
      "type": "function"
    },
    {
      "inputs": [
        {
          "internalType": "address",
          "name": "owner",
          "type": "address"
        }
      ],
      "name": "balanceOf",
      "outputs": [
        {
          "internalType": "uint256",
          "name": "",
          "type": "uint256"
        }
      ],
      "stateMutability": "view",
      "type": "function"
    },
    {
      "inputs": [],
      "name": "counter",
      "outputs": [
        {
          "internalType": "uint256",
          "name": "",
          "type": "uint256"
        }
      ],
      "stateMutability": "view",
      "type": "function"
    },
    {
      "inputs": [
        {
          "internalType": "uint256",
          "name": "tokenId",
          "type": "uint256"
        }
      ],
      "name": "getApproved",
      "outputs": [
        {
          "internalType": "address",
          "name": "",
          "type": "address"
        }
      ],
      "stateMutability": "view",
      "type": "function"
    },
    {
      "inputs": [
        {
          "internalType": "address",
          "name": "owner",
          "type": "address"
        },
        {
          "internalType": "address",
          "name": "operator",
          "type": "address"
        }
      ],
      "name": "isApprovedForAll",
      "outputs": [
        {
          "internalType": "bool",
          "name": "",
          "type": "bool"
        }
      ],
      "stateMutability": "view",
      "type": "function"
    },
    {
      "inputs": [
        {
          "internalType": "address",
          "name": "_user",
          "type": "address"
        }
      ],
      "name": "mint",
      "outputs": [],
      "stateMutability": "nonpayable",
      "type": "function"
    },
    {
      "inputs": [],
      "name": "name",
      "outputs": [
        {
          "internalType": "string",
          "name": "",
          "type": "string"
        }
      ],
      "stateMutability": "view",
      "type": "function"
    },
    {
      "inputs": [
        {
          "internalType": "uint256",
          "name": "tokenId",
          "type": "uint256"
        }
      ],
      "name": "ownerOf",
      "outputs": [
        {
          "internalType": "address",
          "name": "",
          "type": "address"
        }
      ],
      "stateMutability": "view",
      "type": "function"
    },
    {
      "inputs": [
        {
          "internalType": "address",
          "name": "from",
          "type": "address"
        },
        {
          "internalType": "address",
          "name": "to",
          "type": "address"
        },
        {
          "internalType": "uint256",
          "name": "tokenId",
          "type": "uint256"
        }
      ],
      "name": "safeTransferFrom",
      "outputs": [],
      "stateMutability": "nonpayable",
      "type": "function"
    },
    {
      "inputs": [
        {
          "internalType": "address",
          "name": "from",
          "type": "address"
        },
        {
          "internalType": "address",
          "name": "to",
          "type": "address"
        },
        {
          "internalType": "uint256",
          "name": "tokenId",
          "type": "uint256"
        },
        {
          "internalType": "bytes",
          "name": "_data",
          "type": "bytes"
        }
      ],
      "name": "safeTransferFrom",
      "outputs": [],
      "stateMutability": "nonpayable",
      "type": "function"
    },
    {
      "inputs": [
        {
          "internalType": "address",
          "name": "operator",
          "type": "address"
        },
        {
          "internalType": "bool",
          "name": "approved",
          "type": "bool"
        }
      ],
      "name": "setApprovalForAll",
      "outputs": [],
      "stateMutability": "nonpayable",
      "type": "function"
    },
    {
      "inputs": [
        {
          "internalType": "bytes4",
          "name": "interfaceId",
          "type": "bytes4"
        }
      ],
      "name": "supportsInterface",
      "outputs": [
        {
          "internalType": "bool",
          "name": "",
          "type": "bool"
        }
      ],
      "stateMutability": "view",
      "type": "function"
    },
    {
      "inputs": [],
      "name": "symbol",
      "outputs": [
        {
          "internalType": "string",
          "name": "",
          "type": "string"
        }
      ],
      "stateMutability": "view",
      "type": "function"
    },
    {
      "inputs": [
        {
          "internalType": "uint256",
          "name": "tokenId",
          "type": "uint256"
        }
      ],
      "name": "tokenURI",
      "outputs": [
        {
          "internalType": "string",
          "name": "",
          "type": "string"
        }
      ],
      "stateMutability": "view",
      "type": "function"
    },
    {
      "inputs": [
        {
          "internalType": "address",
          "name": "from",
          "type": "address"
        },
        {
          "internalType": "address",
          "name": "to",
          "type": "address"
        },
        {
          "internalType": "uint256",
          "name": "tokenId",
          "type": "uint256"
        }
      ],
      "name": "transferFrom",
      "outputs": [],
      "stateMutability": "nonpayable",
      "type": "function"
    }
  ],
  "bytecode": "0x60806040523480156200001157600080fd5b506040518060400160405280600981526020017f536f756c426f6e645300000000000000000000000000000000000000000000008152506040518060400160405280600481526020017f53422d53000000000000000000000000000000000000000000000000000000008152508160009080519060200190620000969291906200045d565b508060019080519060200190620000af9291906200045d565b50505033600660006101000a81548173ffffffffffffffffffffffffffffffffffffffff021916908373ffffffffffffffffffffffffffffffffffffffff16021790555062000126600660009054906101000a900473ffffffffffffffffffffffffffffffffffffffff166200015f60201b60201c565b62000159600660009054906101000a900473ffffffffffffffffffffffffffffffffffffffff166200015f60201b60201c565b620006fd565b3373ffffffffffffffffffffffffffffffffffffffff16600660009054906101000a900473ffffffffffffffffffffffffffffffffffffffff1673ffffffffffffffffffffffffffffffffffffffff1614620001ba57600080fd5b620001ce81600754620001ed60201b60201c565b600160076000828254620001e39190620005b0565b9250508190555050565b600073ffffffffffffffffffffffffffffffffffffffff168273ffffffffffffffffffffffffffffffffffffffff16141562000260576040517f08c379a000000000000000000000000000000000000000000000000000000000815260040162000257906200057d565b60405180910390fd5b6200027181620003e760201b60201c565b15620002b4576040517f08c379a0000000000000000000000000000000000000000000000000000000008152600401620002ab906200055b565b60405180910390fd5b620002c8600083836200045360201b60201c565b6001600360008473ffffffffffffffffffffffffffffffffffffffff1673ffffffffffffffffffffffffffffffffffffffff16815260200190815260200160002060008282546200031a9190620005b0565b92505081905550816002600083815260200190815260200160002060006101000a81548173ffffffffffffffffffffffffffffffffffffffff021916908373ffffffffffffffffffffffffffffffffffffffff160217905550808273ffffffffffffffffffffffffffffffffffffffff16600073ffffffffffffffffffffffffffffffffffffffff167fddf252ad1be2c89b69c2b068fc378daa952ba7f163c4a11628f55a4df523b3ef60405160405180910390a4620003e3600083836200045860201b60201c565b5050565b60008073ffffffffffffffffffffffffffffffffffffffff166002600084815260200190815260200160002060009054906101000a900473ffffffffffffffffffffffffffffffffffffffff1673ffffffffffffffffffffffffffffffffffffffff1614159050919050565b505050565b505050565b8280546200046b9062000617565b90600052602060002090601f0160209004810192826200048f5760008555620004db565b82601f10620004aa57805160ff1916838001178555620004db565b82800160010185558215620004db579182015b82811115620004da578251825591602001919060010190620004bd565b5b509050620004ea9190620004ee565b5090565b5b8082111562000509576000816000905550600101620004ef565b5090565b60006200051c601c836200059f565b91506200052982620006ab565b602082019050919050565b6000620005436020836200059f565b91506200055082620006d4565b602082019050919050565b6000602082019050818103600083015262000576816200050d565b9050919050565b60006020820190508181036000830152620005988162000534565b9050919050565b600082825260208201905092915050565b6000620005bd826200060d565b9150620005ca836200060d565b9250827fffffffffffffffffffffffffffffffffffffffffffffffffffffffffffffffff038211156200060257620006016200064d565b5b828201905092915050565b6000819050919050565b600060028204905060018216806200063057607f821691505b602082108114156200064757620006466200067c565b5b50919050565b7f4e487b7100000000000000000000000000000000000000000000000000000000600052601160045260246000fd5b7f4e487b7100000000000000000000000000000000000000000000000000000000600052602260045260246000fd5b7f4552433732313a20746f6b656e20616c7265616479206d696e74656400000000600082015250565b7f4552433732313a206d696e7420746f20746865207a65726f2061646472657373600082015250565b611d96806200070d6000396000f3fe608060405234801561001057600080fd5b50600436106100f55760003560e01c80636352211e11610097578063a22cb46511610066578063a22cb46514610284578063b88d4fde146102a0578063c87b56dd146102bc578063e985e9c5146102ec576100f5565b80636352211e146101ea5780636a6278421461021a57806370a082311461023657806395d89b4114610266576100f5565b8063095ea7b3116100d3578063095ea7b31461017857806323b872dd1461019457806342842e0e146101b057806361bc221a146101cc576100f5565b806301ffc9a7146100fa57806306fdde031461012a578063081812fc14610148575b600080fd5b610114600480360381019061010f919061133c565b61031c565b604051610121919061159f565b60405180910390f35b6101326103fe565b60405161013f91906115ba565b60405180910390f35b610162600480360381019061015d9190611365565b610490565b60405161016f9190611584565b60405180910390f35b610192600480360381019061018d9190611300565b610515565b005b6101ae60048036038101906101a991906111fa565b61062d565b005b6101ca60048036038101906101c591906111fa565b610632565b005b6101d4610652565b6040516101e191906116fc565b60405180910390f35b61020460048036038101906101ff9190611365565b610658565b6040516102119190611584565b60405180910390f35b610234600480360381019061022f9190611195565b61070a565b005b610250600480360381019061024b9190611195565b61078d565b60405161025d91906116fc565b60405180910390f35b61026e610845565b60405161027b91906115ba565b60405180910390f35b61029e600480360381019061029991906112c4565b6108d7565b005b6102ba60048036038101906102b59190611249565b6108ed565b005b6102d660048036038101906102d19190611365565b6108f2565b6040516102e391906115ba565b60405180910390f35b610306600480360381019061030191906111be565b610999565b604051610313919061159f565b60405180910390f35b60007f80ac58cd000000000000000000000000000000000000000000000000000000007bffffffffffffffffffffffffffffffffffffffffffffffffffffffff1916827bffffffffffffffffffffffffffffffffffffffffffffffffffffffff191614806103e757507f5b5e139f000000000000000000000000000000000000000000000000000000007bffffffffffffffffffffffffffffffffffffffffffffffffffffffff1916827bffffffffffffffffffffffffffffffffffffffffffffffffffffffff1916145b806103f757506103f682610a2d565b5b9050919050565b60606000805461040d90611905565b80601f016020809104026020016040519081016040528092919081815260200182805461043990611905565b80156104865780601f1061045b57610100808354040283529160200191610486565b820191906000526020600020905b81548152906001019060200180831161046957829003601f168201915b5050505050905090565b600061049b82610a97565b6104da576040517f08c379a00000000000000000000000000000000000000000000000000000000081526004016104d19061169c565b60405180910390fd5b6004600083815260200190815260200160002060009054906101000a900473ffffffffffffffffffffffffffffffffffffffff169050919050565b600061052082610658565b90508073ffffffffffffffffffffffffffffffffffffffff168373ffffffffffffffffffffffffffffffffffffffff161415610591576040517f08c379a0000000000000000000000000000000000000000000000000000000008152600401610588906116dc565b60405180910390fd5b8073ffffffffffffffffffffffffffffffffffffffff166105b0610b03565b73ffffffffffffffffffffffffffffffffffffffff1614806105df57506105de816105d9610b03565b610999565b5b61061e576040517f08c379a00000000000000000000000000000000000000000000000000000000081526004016106159061161c565b60405180910390fd5b6106288383610b0b565b505050565b600080fd5b61064d838383604051806020016040528060008152506108ed565b505050565b60075481565b6000806002600084815260200190815260200160002060009054906101000a900473ffffffffffffffffffffffffffffffffffffffff169050600073ffffffffffffffffffffffffffffffffffffffff168173ffffffffffffffffffffffffffffffffffffffff161415610701576040517f08c379a00000000000000000000000000000000000000000000000000000000081526004016106f89061165c565b60405180910390fd5b80915050919050565b3373ffffffffffffffffffffffffffffffffffffffff16600660009054906101000a900473ffffffffffffffffffffffffffffffffffffffff1673ffffffffffffffffffffffffffffffffffffffff161461076457600080fd5b61077081600754610bc4565b6001600760008282546107839190611794565b9250508190555050565b60008073ffffffffffffffffffffffffffffffffffffffff168273ffffffffffffffffffffffffffffffffffffffff1614156107fe576040517f08c379a00000000000000000000000000000000000000000000000000000000081526004016107f59061163c565b60405180910390fd5b600360008373ffffffffffffffffffffffffffffffffffffffff1673ffffffffffffffffffffffffffffffffffffffff168152602001908152602001600020549050919050565b60606001805461085490611905565b80601f016020809104026020016040519081016040528092919081815260200182805461088090611905565b80156108cd5780601f106108a2576101008083540402835291602001916108cd565b820191906000526020600020905b8154815290600101906020018083116108b057829003601f168201915b5050505050905090565b6108e96108e2610b03565b8383610d9e565b5050565b600080fd5b60606108fd82610a97565b61093c576040517f08c379a0000000000000000000000000000000000000000000000000000000008152600401610933906116bc565b60405180910390fd5b6000610946610f0b565b905060008151116109665760405180602001604052806000815250610991565b8061097084610f22565b604051602001610981929190611560565b6040516020818303038152906040525b915050919050565b6000600560008473ffffffffffffffffffffffffffffffffffffffff1673ffffffffffffffffffffffffffffffffffffffff16815260200190815260200160002060008373ffffffffffffffffffffffffffffffffffffffff1673ffffffffffffffffffffffffffffffffffffffff16815260200190815260200160002060009054906101000a900460ff16905092915050565b60007f01ffc9a7000000000000000000000000000000000000000000000000000000007bffffffffffffffffffffffffffffffffffffffffffffffffffffffff1916827bffffffffffffffffffffffffffffffffffffffffffffffffffffffff1916149050919050565b60008073ffffffffffffffffffffffffffffffffffffffff166002600084815260200190815260200160002060009054906101000a900473ffffffffffffffffffffffffffffffffffffffff1673ffffffffffffffffffffffffffffffffffffffff1614159050919050565b600033905090565b816004600083815260200190815260200160002060006101000a81548173ffffffffffffffffffffffffffffffffffffffff021916908373ffffffffffffffffffffffffffffffffffffffff160217905550808273ffffffffffffffffffffffffffffffffffffffff16610b7e83610658565b73ffffffffffffffffffffffffffffffffffffffff167f8c5be1e5ebec7d5bd14f71427d1e84f3dd0314c0f7b2291e5b200ac8c7c3b92560405160405180910390a45050565b600073ffffffffffffffffffffffffffffffffffffffff168273ffffffffffffffffffffffffffffffffffffffff161415610c34576040517f08c379a0000000000000000000000000000000000000000000000000000000008152600401610c2b9061167c565b60405180910390fd5b610c3d81610a97565b15610c7d576040517f08c379a0000000000000000000000000000000000000000000000000000000008152600401610c74906115dc565b60405180910390fd5b610c89600083836110cf565b6001600360008473ffffffffffffffffffffffffffffffffffffffff1673ffffffffffffffffffffffffffffffffffffffff1681526020019081526020016000206000828254610cd99190611794565b92505081905550816002600083815260200190815260200160002060006101000a81548173ffffffffffffffffffffffffffffffffffffffff021916908373ffffffffffffffffffffffffffffffffffffffff160217905550808273ffffffffffffffffffffffffffffffffffffffff16600073ffffffffffffffffffffffffffffffffffffffff167fddf252ad1be2c89b69c2b068fc378daa952ba7f163c4a11628f55a4df523b3ef60405160405180910390a4610d9a600083836110d4565b5050565b8173ffffffffffffffffffffffffffffffffffffffff168373ffffffffffffffffffffffffffffffffffffffff161415610e0d576040517f08c379a0000000000000000000000000000000000000000000000000000000008152600401610e04906115fc565b60405180910390fd5b80600560008573ffffffffffffffffffffffffffffffffffffffff1673ffffffffffffffffffffffffffffffffffffffff16815260200190815260200160002060008473ffffffffffffffffffffffffffffffffffffffff1673ffffffffffffffffffffffffffffffffffffffff16815260200190815260200160002060006101000a81548160ff0219169083151502179055508173ffffffffffffffffffffffffffffffffffffffff168373ffffffffffffffffffffffffffffffffffffffff167f17307eab39ab6107e8899845ad3d59bd9653f200f220920489ca2b5937696c3183604051610efe919061159f565b60405180910390a3505050565b606060405180602001604052806000815250905090565b60606000821415610f6a576040518060400160405280600181526020017f300000000000000000000000000000000000000000000000000000000000000081525090506110ca565b600082905060005b60008214610f9c578080610f8590611968565b915050600a82610f9591906117ea565b9150610f72565b60008167ffffffffffffffff811115610fde577f4e487b7100000000000000000000000000000000000000000000000000000000600052604160045260246000fd5b6040519080825280601f01601f1916602001820160405280156110105781602001600182028036833780820191505090505b5090505b600085146110c357600182611029919061181b565b9150600a8561103891906119b1565b60306110449190611794565b60f81b818381518110611080577f4e487b7100000000000000000000000000000000000000000000000000000000600052603260045260246000fd5b60200101907effffffffffffffffffffffffffffffffffffffffffffffffffffffffffffff1916908160001a905350600a856110bc91906117ea565b9450611014565b8093505050505b919050565b505050565b505050565b60006110ec6110e78461173c565b611717565b90508281526020810184848401111561110457600080fd5b61110f8482856118c3565b509392505050565b60008135905061112681611d04565b92915050565b60008135905061113b81611d1b565b92915050565b60008135905061115081611d32565b92915050565b600082601f83011261116757600080fd5b81356111778482602086016110d9565b91505092915050565b60008135905061118f81611d49565b92915050565b6000602082840312156111a757600080fd5b60006111b584828501611117565b91505092915050565b600080604083850312156111d157600080fd5b60006111df85828601611117565b92505060206111f085828601611117565b9150509250929050565b60008060006060848603121561120f57600080fd5b600061121d86828701611117565b935050602061122e86828701611117565b925050604061123f86828701611180565b9150509250925092565b6000806000806080858703121561125f57600080fd5b600061126d87828801611117565b945050602061127e87828801611117565b935050604061128f87828801611180565b925050606085013567ffffffffffffffff8111156112ac57600080fd5b6112b887828801611156565b91505092959194509250565b600080604083850312156112d757600080fd5b60006112e585828601611117565b92505060206112f68582860161112c565b9150509250929050565b6000806040838503121561131357600080fd5b600061132185828601611117565b925050602061133285828601611180565b9150509250929050565b60006020828403121561134e57600080fd5b600061135c84828501611141565b91505092915050565b60006020828403121561137757600080fd5b600061138584828501611180565b91505092915050565b6113978161184f565b82525050565b6113a681611861565b82525050565b60006113b78261176d565b6113c18185611778565b93506113d18185602086016118d2565b6113da81611a9e565b840191505092915050565b60006113f08261176d565b6113fa8185611789565b935061140a8185602086016118d2565b80840191505092915050565b6000611423601c83611778565b915061142e82611aaf565b602082019050919050565b6000611446601983611778565b915061145182611ad8565b602082019050919050565b6000611469603883611778565b915061147482611b01565b604082019050919050565b600061148c602a83611778565b915061149782611b50565b604082019050919050565b60006114af602983611778565b91506114ba82611b9f565b604082019050919050565b60006114d2602083611778565b91506114dd82611bee565b602082019050919050565b60006114f5602c83611778565b915061150082611c17565b604082019050919050565b6000611518602f83611778565b915061152382611c66565b604082019050919050565b600061153b602183611778565b915061154682611cb5565b604082019050919050565b61155a816118b9565b82525050565b600061156c82856113e5565b915061157882846113e5565b91508190509392505050565b6000602082019050611599600083018461138e565b92915050565b60006020820190506115b4600083018461139d565b92915050565b600060208201905081810360008301526115d481846113ac565b905092915050565b600060208201905081810360008301526115f581611416565b9050919050565b6000602082019050818103600083015261161581611439565b9050919050565b600060208201905081810360008301526116358161145c565b9050919050565b600060208201905081810360008301526116558161147f565b9050919050565b60006020820190508181036000830152611675816114a2565b9050919050565b60006020820190508181036000830152611695816114c5565b9050919050565b600060208201905081810360008301526116b5816114e8565b9050919050565b600060208201905081810360008301526116d58161150b565b9050919050565b600060208201905081810360008301526116f58161152e565b9050919050565b60006020820190506117116000830184611551565b92915050565b6000611721611732565b905061172d8282611937565b919050565b6000604051905090565b600067ffffffffffffffff82111561175757611756611a6f565b5b61176082611a9e565b9050602081019050919050565b600081519050919050565b600082825260208201905092915050565b600081905092915050565b600061179f826118b9565b91506117aa836118b9565b9250827fffffffffffffffffffffffffffffffffffffffffffffffffffffffffffffffff038211156117df576117de6119e2565b5b828201905092915050565b60006117f5826118b9565b9150611800836118b9565b9250826118105761180f611a11565b5b828204905092915050565b6000611826826118b9565b9150611831836118b9565b925082821015611844576118436119e2565b5b828203905092915050565b600061185a82611899565b9050919050565b60008115159050919050565b60007fffffffff0000000000000000000000000000000000000000000000000000000082169050919050565b600073ffffffffffffffffffffffffffffffffffffffff82169050919050565b6000819050919050565b82818337600083830152505050565b60005b838110156118f05780820151818401526020810190506118d5565b838111156118ff576000848401525b50505050565b6000600282049050600182168061191d57607f821691505b6020821081141561193157611930611a40565b5b50919050565b61194082611a9e565b810181811067ffffffffffffffff8211171561195f5761195e611a6f565b5b80604052505050565b6000611973826118b9565b91507fffffffffffffffffffffffffffffffffffffffffffffffffffffffffffffffff8214156119a6576119a56119e2565b5b600182019050919050565b60006119bc826118b9565b91506119c7836118b9565b9250826119d7576119d6611a11565b5b828206905092915050565b7f4e487b7100000000000000000000000000000000000000000000000000000000600052601160045260246000fd5b7f4e487b7100000000000000000000000000000000000000000000000000000000600052601260045260246000fd5b7f4e487b7100000000000000000000000000000000000000000000000000000000600052602260045260246000fd5b7f4e487b7100000000000000000000000000000000000000000000000000000000600052604160045260246000fd5b6000601f19601f8301169050919050565b7f4552433732313a20746f6b656e20616c7265616479206d696e74656400000000600082015250565b7f4552433732313a20617070726f766520746f2063616c6c657200000000000000600082015250565b7f4552433732313a20617070726f76652063616c6c6572206973206e6f74206f7760008201527f6e6572206e6f7220617070726f76656420666f7220616c6c0000000000000000602082015250565b7f4552433732313a2062616c616e636520717565727920666f7220746865207a6560008201527f726f206164647265737300000000000000000000000000000000000000000000602082015250565b7f4552433732313a206f776e657220717565727920666f72206e6f6e657869737460008201527f656e7420746f6b656e0000000000000000000000000000000000000000000000602082015250565b7f4552433732313a206d696e7420746f20746865207a65726f2061646472657373600082015250565b7f4552433732313a20617070726f76656420717565727920666f72206e6f6e657860008201527f697374656e7420746f6b656e0000000000000000000000000000000000000000602082015250565b7f4552433732314d657461646174613a2055524920717565727920666f72206e6f60008201527f6e6578697374656e7420746f6b656e0000000000000000000000000000000000602082015250565b7f4552433732313a20617070726f76616c20746f2063757272656e74206f776e6560008201527f7200000000000000000000000000000000000000000000000000000000000000602082015250565b611d0d8161184f565b8114611d1857600080fd5b50565b611d2481611861565b8114611d2f57600080fd5b50565b611d3b8161186d565b8114611d4657600080fd5b50565b611d52816118b9565b8114611d5d57600080fd5b5056fea26469706673582212204513291a41d93840b5ba4c04b99c0f44485c833387f43eac80c1619d5a20241064736f6c63430008040033",
  "linkReferences": {},
  "deployedLinkReferences": {}
}