{
  "_format": "hh-sol-artifact-1",
  "contractName": "sbLending",
  "sourceName": "contracts/sbLending-V0.sol",
  "abi": [
    {
      "inputs": [],
      "stateMutability": "nonpayable",
      "type": "constructor"
    },
    {
      "inputs": [
        {
          "internalType": "address",
          "name": "",
          "type": "address"
        },
        {
          "internalType": "address",
          "name": "",
          "type": "address"
        }
      ],
      "name": "ERC20BorrowList",
      "outputs": [
        {
          "internalType": "uint256",
          "name": "",
          "type": "uint256"
        }
      ],
      "stateMutability": "view",
      "type": "function"
    },
    {
      "inputs": [
        {
          "internalType": "uint256",
          "name": "",
          "type": "uint256"
        }
      ],
      "name": "ERC20BorrowTokens",
      "outputs": [
        {
          "internalType": "address",
          "name": "",
          "type": "address"
        }
      ],
      "stateMutability": "view",
      "type": "function"
    },
    {
      "inputs": [
        {
          "internalType": "address",
          "name": "",
          "type": "address"
        },
        {
          "internalType": "address",
          "name": "",
          "type": "address"
        }
      ],
      "name": "ERC20DepositList",
      "outputs": [
        {
          "internalType": "uint256",
          "name": "",
          "type": "uint256"
        }
      ],
      "stateMutability": "view",
      "type": "function"
    },
    {
      "inputs": [
        {
          "internalType": "uint256",
          "name": "",
          "type": "uint256"
        }
      ],
      "name": "ERC20DepositTokens",
      "outputs": [
        {
          "internalType": "address",
          "name": "",
          "type": "address"
        }
      ],
      "stateMutability": "view",
      "type": "function"
    },
    {
      "inputs": [
        {
          "internalType": "address",
          "name": "_token",
          "type": "address"
        }
      ],
      "name": "addBorrowToken",
      "outputs": [],
      "stateMutability": "nonpayable",
      "type": "function"
    },
    {
      "inputs": [
        {
          "internalType": "address",
          "name": "_token",
          "type": "address"
        }
      ],
      "name": "addDepositToken",
      "outputs": [],
      "stateMutability": "nonpayable",
      "type": "function"
    },
    {
      "inputs": [
        {
          "internalType": "address",
          "name": "_token",
          "type": "address"
        },
        {
          "internalType": "uint8",
          "name": "category",
          "type": "uint8"
        }
      ],
      "name": "addSoulBondToken",
      "outputs": [],
      "stateMutability": "nonpayable",
      "type": "function"
    },
    {
      "inputs": [
        {
          "internalType": "address",
          "name": "_token",
          "type": "address"
        },
        {
          "internalType": "uint256",
          "name": "_interestRate",
          "type": "uint256"
        }
      ],
      "name": "addTokenInteresFixedInterestRate",
      "outputs": [],
      "stateMutability": "nonpayable",
      "type": "function"
    },
    {
      "inputs": [
        {
          "internalType": "address",
          "name": "_token",
          "type": "address"
        },
        {
          "internalType": "uint256",
          "name": "_fixedPrice",
          "type": "uint256"
        }
      ],
      "name": "addTokenInteresFixedPrice",
      "outputs": [],
      "stateMutability": "nonpayable",
      "type": "function"
    },
    {
      "inputs": [
        {
          "internalType": "address",
          "name": "",
          "type": "address"
        }
      ],
      "name": "allowedBorrowedTokens",
      "outputs": [
        {
          "internalType": "bool",
          "name": "",
          "type": "bool"
        }
      ],
      "stateMutability": "view",
      "type": "function"
    },
    {
      "inputs": [
        {
          "internalType": "address",
          "name": "",
          "type": "address"
        }
      ],
      "name": "allowedDepositTokens",
      "outputs": [
        {
          "internalType": "bool",
          "name": "",
          "type": "bool"
        }
      ],
      "stateMutability": "view",
      "type": "function"
    },
    {
      "inputs": [],
      "name": "baseMaxBorrow",
      "outputs": [
        {
          "internalType": "uint256",
          "name": "",
          "type": "uint256"
        }
      ],
      "stateMutability": "view",
      "type": "function"
    },
    {
      "inputs": [
        {
          "internalType": "address",
          "name": "_token",
          "type": "address"
        },
        {
          "internalType": "uint256",
          "name": "_value",
          "type": "uint256"
        }
      ],
      "name": "borrowERC20",
      "outputs": [],
      "stateMutability": "nonpayable",
      "type": "function"
    },
    {
      "inputs": [
        {
          "internalType": "address",
          "name": "_user",
          "type": "address"
        }
      ],
      "name": "calculateMaxBorrow",
      "outputs": [
        {
          "internalType": "uint256",
          "name": "",
          "type": "uint256"
        }
      ],
      "stateMutability": "view",
      "type": "function"
    },
    {
      "inputs": [
        {
          "internalType": "address",
          "name": "_user",
          "type": "address"
        }
      ],
      "name": "calculateTotalBorrowed",
      "outputs": [
        {
          "internalType": "uint256",
          "name": "",
          "type": "uint256"
        }
      ],
      "stateMutability": "view",
      "type": "function"
    },
    {
      "inputs": [
        {
          "internalType": "address",
          "name": "_user",
          "type": "address"
        }
      ],
      "name": "calculateTotalDeposit",
      "outputs": [
        {
          "internalType": "uint256",
          "name": "",
          "type": "uint256"
        }
      ],
      "stateMutability": "view",
      "type": "function"
    },
    {
      "inputs": [
        {
          "internalType": "uint8",
          "name": "",
          "type": "uint8"
        }
      ],
      "name": "categoryPower",
      "outputs": [
        {
          "internalType": "uint256",
          "name": "",
          "type": "uint256"
        }
      ],
      "stateMutability": "view",
      "type": "function"
    },
    {
      "inputs": [
        {
          "internalType": "address",
          "name": "_token",
          "type": "address"
        },
        {
          "internalType": "uint256",
          "name": "_value",
          "type": "uint256"
        }
      ],
      "name": "depositERC20",
      "outputs": [],
      "stateMutability": "nonpayable",
      "type": "function"
    },
    {
      "inputs": [
        {
          "internalType": "uint8",
          "name": "_category",
          "type": "uint8"
        },
        {
          "internalType": "uint256",
          "name": "_power",
          "type": "uint256"
        }
      ],
      "name": "editCategories",
      "outputs": [],
      "stateMutability": "nonpayable",
      "type": "function"
    },
    {
      "inputs": [
        {
          "internalType": "address",
          "name": "_token",
          "type": "address"
        }
      ],
      "name": "getInterestRate",
      "outputs": [
        {
          "internalType": "uint256",
          "name": "",
          "type": "uint256"
        }
      ],
      "stateMutability": "view",
      "type": "function"
    },
    {
      "inputs": [
        {
          "internalType": "address",
          "name": "_token",
          "type": "address"
        }
      ],
      "name": "getTokenPrice",
      "outputs": [
        {
          "internalType": "uint256",
          "name": "",
          "type": "uint256"
        }
      ],
      "stateMutability": "view",
      "type": "function"
    },
    {
      "inputs": [
        {
          "internalType": "address",
          "name": "collateralAsset",
          "type": "address"
        },
        {
          "internalType": "address",
          "name": "debtAsset",
          "type": "address"
        },
        {
          "internalType": "address",
          "name": "user",
          "type": "address"
        },
        {
          "internalType": "uint256",
          "name": "debtToCover",
          "type": "uint256"
        }
      ],
      "name": "liquidationCall",
      "outputs": [],
      "stateMutability": "nonpayable",
      "type": "function"
    },
    {
      "inputs": [
        {
          "internalType": "address",
          "name": "_token",
          "type": "address"
        },
        {
          "internalType": "uint256",
          "name": "_value",
          "type": "uint256"
        }
      ],
      "name": "payBackERC20",
      "outputs": [],
      "stateMutability": "nonpayable",
      "type": "function"
    },
    {
      "inputs": [
        {
          "internalType": "address",
          "name": "",
          "type": "address"
        }
      ],
      "name": "soulBondCategories",
      "outputs": [
        {
          "internalType": "uint8",
          "name": "",
          "type": "uint8"
        }
      ],
      "stateMutability": "view",
      "type": "function"
    },
    {
      "inputs": [
        {
          "internalType": "uint256",
          "name": "",
          "type": "uint256"
        }
      ],
      "name": "soulBondList",
      "outputs": [
        {
          "internalType": "address",
          "name": "",
          "type": "address"
        }
      ],
      "stateMutability": "view",
      "type": "function"
    },
    {
      "inputs": [
        {
          "internalType": "address",
          "name": "",
          "type": "address"
        }
      ],
      "name": "tokenFixedInterestRate",
      "outputs": [
        {
          "internalType": "uint256",
          "name": "",
          "type": "uint256"
        }
      ],
      "stateMutability": "view",
      "type": "function"
    },
    {
      "inputs": [
        {
          "internalType": "address",
          "name": "",
          "type": "address"
        }
      ],
      "name": "tokenOraclePrice",
      "outputs": [
        {
          "internalType": "uint256",
          "name": "",
          "type": "uint256"
        }
      ],
      "stateMutability": "view",
      "type": "function"
    },
    {
      "inputs": [],
      "name": "updateAllBalances",
      "outputs": [],
      "stateMutability": "nonpayable",
      "type": "function"
    },
    {
      "inputs": [
        {
          "internalType": "address",
          "name": "_token",
          "type": "address"
        }
      ],
      "name": "updateBalanceWithInterestRate",
      "outputs": [],
      "stateMutability": "nonpayable",
      "type": "function"
    },
    {
      "inputs": [
        {
          "internalType": "address",
          "name": "",
          "type": "address"
        },
        {
          "internalType": "address",
          "name": "",
          "type": "address"
        }
      ],
      "name": "userLastTokenUpdate",
      "outputs": [
        {
          "internalType": "uint256",
          "name": "",
          "type": "uint256"
        }
      ],
      "stateMutability": "view",
      "type": "function"
    },
    {
      "inputs": [
        {
          "internalType": "address",
          "name": "_token",
          "type": "address"
        },
        {
          "internalType": "uint256",
          "name": "_value",
          "type": "uint256"
        }
      ],
      "name": "withdrawERC20",
      "outputs": [],
      "stateMutability": "nonpayable",
      "type": "function"
    }
  ],
  "bytecode": "0x60806040526046600a5534801561001557600080fd5b5033600d60006101000a81548173ffffffffffffffffffffffffffffffffffffffff021916908373ffffffffffffffffffffffffffffffffffffffff1602179055506124a1806100666000396000f3fe608060405234801561001057600080fd5b50600436106101e55760003560e01c806397feb9261161010f578063c9e1fbf6116100a2578063e94e739c11610071578063e94e739c146105fa578063eac9168b14610616578063f35ffb6314610646578063f84228d114610676576101e5565b8063c9e1fbf614610572578063d02641a014610590578063d3ea0f89146105c0578063dfa811ba146105f0576101e5565b8063a24a7c30116100de578063a24a7c30146104b2578063a9c51c04146104e2578063bc8b67ca14610512578063c8ce4d0e14610542576101e5565b806397feb9261461041a5780639a0325bb146104365780639ff0fbe914610466578063a1db978214610496576101e5565b80634ec4d2d31161018757806379e40cba1161015657806379e40cba146103825780638e827bde1461039e5780638f7c2510146103ce578063909046c8146103ea576101e5565b80634ec4d2d3146102d657806355c8136914610306578063681232c41461033657806371ab778514610352576101e5565b8063240a51be116101c3578063240a51be146102525780632675cef11461026e57806329fafc371461028a5780633bb22811146102a6576101e5565b80630567d9e6146101ea578063186f9263146102065780631f98491914610222575b600080fd5b61020460048036038101906101ff9190611ead565b610692565b005b610220600480360381019061021b9190611ead565b610747565b005b61023c60048036038101906102379190611ead565b61093b565b60405161024991906121c8565b60405180910390f35b61026c60048036038101906102679190611f75565b610953565b005b61028860048036038101906102839190611f75565b610ba1565b005b6102a4600480360381019061029f9190612091565b610be9565b005b6102c060048036038101906102bb9190612016565b610c65565b6040516102cd9190612109565b60405180910390f35b6102f060048036038101906102eb9190611ead565b610ca4565b6040516102fd91906121c8565b60405180910390f35b610320600480360381019061031b9190611ead565b610dc2565b60405161032d91906121c8565b60405180910390f35b610350600480360381019061034b9190611fb1565b610fe1565b005b61036c60048036038101906103679190611ed6565b61110a565b60405161037991906121c8565b60405180910390f35b61039c60048036038101906103979190611ead565b61112f565b005b6103b860048036038101906103b39190611ed6565b61118a565b6040516103c591906121c8565b60405180910390f35b6103e860048036038101906103e39190611f12565b6111af565b005b61040460048036038101906103ff9190611ead565b61151b565b60405161041191906121e3565b60405180910390f35b610434600480360381019061042f9190611f75565b61153b565b005b610450600480360381019061044b9190612016565b611700565b60405161045d9190612109565b60405180910390f35b610480600480360381019061047b9190612068565b61173f565b60405161048d91906121c8565b60405180910390f35b6104b060048036038101906104ab9190611f75565b611757565b005b6104cc60048036038101906104c79190611ead565b61190f565b6040516104d991906121c8565b60405180910390f35b6104fc60048036038101906104f79190611ead565b611927565b60405161050991906121c8565b60405180910390f35b61052c60048036038101906105279190612016565b611a45565b6040516105399190612109565b60405180910390f35b61055c60048036038101906105579190611ed6565b611a84565b60405161056991906121c8565b60405180910390f35b61057a611aa9565b60405161058791906121c8565b60405180910390f35b6105aa60048036038101906105a59190611ead565b611aaf565b6040516105b791906121c8565b60405180910390f35b6105da60048036038101906105d59190611ead565b611af8565b6040516105e791906121c8565b60405180910390f35b6105f8611b41565b005b610614600480360381019061060f9190611f75565b611bd4565b005b610630600480360381019061062b9190611ead565b611c1c565b60405161063d91906121ad565b60405180910390f35b610660600480360381019061065b9190611ead565b611c3c565b60405161066d91906121ad565b60405180910390f35b610690600480360381019061068b9190611f75565b611c5c565b005b600d60009054906101000a900473ffffffffffffffffffffffffffffffffffffffff1673ffffffffffffffffffffffffffffffffffffffff163373ffffffffffffffffffffffffffffffffffffffff16146106ec57600080fd5b6001600560008373ffffffffffffffffffffffffffffffffffffffff1673ffffffffffffffffffffffffffffffffffffffff16815260200190815260200160002060006101000a81548160ff02191690831515021790555050565b6000600760003373ffffffffffffffffffffffffffffffffffffffff1673ffffffffffffffffffffffffffffffffffffffff16815260200190815260200160002060008373ffffffffffffffffffffffffffffffffffffffff1673ffffffffffffffffffffffffffffffffffffffff16815260200190815260200160002054905042600760003373ffffffffffffffffffffffffffffffffffffffff1673ffffffffffffffffffffffffffffffffffffffff16815260200190815260200160002060008473ffffffffffffffffffffffffffffffffffffffff1673ffffffffffffffffffffffffffffffffffffffff168152602001908152602001600020819055506000600b60008473ffffffffffffffffffffffffffffffffffffffff1673ffffffffffffffffffffffffffffffffffffffff16815260200190815260200160002054824261089791906122df565b6108a19190612285565b905080600460008573ffffffffffffffffffffffffffffffffffffffff1673ffffffffffffffffffffffffffffffffffffffff16815260200190815260200160002060003373ffffffffffffffffffffffffffffffffffffffff1673ffffffffffffffffffffffffffffffffffffffff168152602001908152602001600020600082825461092f91906121fe565b92505081905550505050565b600c6020528060005260406000206000915090505481565b808273ffffffffffffffffffffffffffffffffffffffff1663dd62ed3e33306040518363ffffffff1660e01b815260040161098f929190612124565b60206040518083038186803b1580156109a757600080fd5b505afa1580156109bb573d6000803e3d6000fd5b505050506040513d601f19601f820116820180604052508101906109df919061203f565b116109e957600080fd5b6109f1611b41565b80600360008473ffffffffffffffffffffffffffffffffffffffff1673ffffffffffffffffffffffffffffffffffffffff16815260200190815260200160002060003373ffffffffffffffffffffffffffffffffffffffff1673ffffffffffffffffffffffffffffffffffffffff168152602001908152602001600020541015610a7a57600080fd5b8173ffffffffffffffffffffffffffffffffffffffff166323b872dd3330846040518463ffffffff1660e01b8152600401610ab79392919061214d565b602060405180830381600087803b158015610ad157600080fd5b505af1158015610ae5573d6000803e3d6000fd5b505050506040513d601f19601f82011682018060405250810190610b099190611fed565b5080600360008473ffffffffffffffffffffffffffffffffffffffff1673ffffffffffffffffffffffffffffffffffffffff16815260200190815260200160002060003373ffffffffffffffffffffffffffffffffffffffff1673ffffffffffffffffffffffffffffffffffffffff1681526020019081526020016000206000828254610b9691906122df565b925050819055505050565b80600b60008473ffffffffffffffffffffffffffffffffffffffff1673ffffffffffffffffffffffffffffffffffffffff168152602001908152602001600020819055505050565b600d60009054906101000a900473ffffffffffffffffffffffffffffffffffffffff1673ffffffffffffffffffffffffffffffffffffffff163373ffffffffffffffffffffffffffffffffffffffff1614610c4357600080fd5b80600260008460ff1660ff168152602001908152602001600020819055505050565b60098181548110610c7557600080fd5b906000526020600020016000915054906101000a900473ffffffffffffffffffffffffffffffffffffffff1681565b60008060005b600980549050811015610db8576004600060098381548110610cf5577f4e487b7100000000000000000000000000000000000000000000000000000000600052603260045260246000fd5b9060005260206000200160009054906101000a900473ffffffffffffffffffffffffffffffffffffffff1673ffffffffffffffffffffffffffffffffffffffff1673ffffffffffffffffffffffffffffffffffffffff16815260200190815260200160002060008573ffffffffffffffffffffffffffffffffffffffff1673ffffffffffffffffffffffffffffffffffffffff1681526020019081526020016000205482610da391906121fe565b91508080610db090612368565b915050610caa565b5080915050919050565b600080600a54905060005b600080549050811015610fb8576000808281548110610e15577f4e487b7100000000000000000000000000000000000000000000000000000000600052603260045260246000fd5b9060005260206000200160009054906101000a900473ffffffffffffffffffffffffffffffffffffffff1673ffffffffffffffffffffffffffffffffffffffff166370a08231866040518263ffffffff1660e01b8152600401610e789190612109565b60206040518083038186803b158015610e9057600080fd5b505afa158015610ea4573d6000803e3d6000fd5b505050506040513d601f19601f82011682018060405250810190610ec8919061203f565b1115610fa5576002600060016000808581548110610f0f577f4e487b7100000000000000000000000000000000000000000000000000000000600052603260045260246000fd5b9060005260206000200160009054906101000a900473ffffffffffffffffffffffffffffffffffffffff1673ffffffffffffffffffffffffffffffffffffffff1673ffffffffffffffffffffffffffffffffffffffff16815260200190815260200160002060009054906101000a900460ff1660ff1660ff1681526020019081526020016000205482610fa291906121fe565b91505b8080610fb090612368565b915050610dcd565b50610fc283610ca4565b606482610fcf9190612254565b610fd99190612285565b915050919050565b600d60009054906101000a900473ffffffffffffffffffffffffffffffffffffffff1673ffffffffffffffffffffffffffffffffffffffff163373ffffffffffffffffffffffffffffffffffffffff161461103b57600080fd5b60008160ff161161104b57600080fd5b6000829080600181540180825580915050600190039060005260206000200160009091909190916101000a81548173ffffffffffffffffffffffffffffffffffffffff021916908373ffffffffffffffffffffffffffffffffffffffff16021790555080600160008473ffffffffffffffffffffffffffffffffffffffff1673ffffffffffffffffffffffffffffffffffffffff16815260200190815260200160002060006101000a81548160ff021916908360ff1602179055505050565b6007602052816000526040600020602052806000526040600020600091509150505481565b6001600660008373ffffffffffffffffffffffffffffffffffffffff1673ffffffffffffffffffffffffffffffffffffffff16815260200190815260200160002060006101000a81548160ff02191690831515021790555050565b6003602052816000526040600020602052806000526040600020600091509150505481565b6111b7611b41565b6111c082610dc2565b6111c983611927565b116111d357600080fd5b808373ffffffffffffffffffffffffffffffffffffffff1663dd62ed3e33306040518363ffffffff1660e01b815260040161120f929190612124565b60206040518083038186803b15801561122757600080fd5b505afa15801561123b573d6000803e3d6000fd5b505050506040513d601f19601f8201168201806040525081019061125f919061203f565b1161126957600080fd5b80600360008573ffffffffffffffffffffffffffffffffffffffff1673ffffffffffffffffffffffffffffffffffffffff16815260200190815260200160002060008473ffffffffffffffffffffffffffffffffffffffff1673ffffffffffffffffffffffffffffffffffffffff16815260200190815260200160002060008282546112f591906122df565b925050819055508273ffffffffffffffffffffffffffffffffffffffff166323b872dd3330846040518463ffffffff1660e01b81526004016113399392919061214d565b602060405180830381600087803b15801561135357600080fd5b505af1158015611367573d6000803e3d6000fd5b505050506040513d601f19601f8201168201806040525081019061138b9190611fed565b50600060646069600c60008873ffffffffffffffffffffffffffffffffffffffff1673ffffffffffffffffffffffffffffffffffffffff16815260200190815260200160002054846113dd9190612254565b6113e79190612285565b6113f19190612254565b905080600460008773ffffffffffffffffffffffffffffffffffffffff1673ffffffffffffffffffffffffffffffffffffffff16815260200190815260200160002060008573ffffffffffffffffffffffffffffffffffffffff1673ffffffffffffffffffffffffffffffffffffffff168152602001908152602001600020600082825461147f91906122df565b925050819055508473ffffffffffffffffffffffffffffffffffffffff1663a9059cbb33836040518363ffffffff1660e01b81526004016114c1929190612184565b602060405180830381600087803b1580156114db57600080fd5b505af11580156114ef573d6000803e3d6000fd5b505050506040513d601f19601f820116820180604052508101906115139190611fed565b505050505050565b60016020528060005260406000206000915054906101000a900460ff1681565b808273ffffffffffffffffffffffffffffffffffffffff1663dd62ed3e33306040518363ffffffff1660e01b8152600401611577929190612124565b60206040518083038186803b15801561158f57600080fd5b505afa1580156115a3573d6000803e3d6000fd5b505050506040513d601f19601f820116820180604052508101906115c7919061203f565b116115d157600080fd5b6115d9611b41565b8173ffffffffffffffffffffffffffffffffffffffff166323b872dd3330846040518463ffffffff1660e01b81526004016116169392919061214d565b602060405180830381600087803b15801561163057600080fd5b505af1158015611644573d6000803e3d6000fd5b505050506040513d601f19601f820116820180604052508101906116689190611fed565b5080600460008473ffffffffffffffffffffffffffffffffffffffff1673ffffffffffffffffffffffffffffffffffffffff16815260200190815260200160002060003373ffffffffffffffffffffffffffffffffffffffff1673ffffffffffffffffffffffffffffffffffffffff16815260200190815260200160002060008282546116f591906121fe565b925050819055505050565b6008818154811061171057600080fd5b906000526020600020016000915054906101000a900473ffffffffffffffffffffffffffffffffffffffff1681565b60026020528060005260406000206000915090505481565b61175f611b41565b80600460008473ffffffffffffffffffffffffffffffffffffffff1673ffffffffffffffffffffffffffffffffffffffff16815260200190815260200160002060003373ffffffffffffffffffffffffffffffffffffffff1673ffffffffffffffffffffffffffffffffffffffff1681526020019081526020016000205410156117e857600080fd5b80600460008473ffffffffffffffffffffffffffffffffffffffff1673ffffffffffffffffffffffffffffffffffffffff16815260200190815260200160002060003373ffffffffffffffffffffffffffffffffffffffff1673ffffffffffffffffffffffffffffffffffffffff168152602001908152602001600020600082825461187491906122df565b925050819055508173ffffffffffffffffffffffffffffffffffffffff166323b872dd3330846040518463ffffffff1660e01b81526004016118b89392919061214d565b602060405180830381600087803b1580156118d257600080fd5b505af11580156118e6573d6000803e3d6000fd5b505050506040513d601f19601f8201168201806040525081019061190a9190611fed565b505050565b600b6020528060005260406000206000915090505481565b60008060005b600880549050811015611a3b576003600060088381548110611978577f4e487b7100000000000000000000000000000000000000000000000000000000600052603260045260246000fd5b9060005260206000200160009054906101000a900473ffffffffffffffffffffffffffffffffffffffff1673ffffffffffffffffffffffffffffffffffffffff1673ffffffffffffffffffffffffffffffffffffffff16815260200190815260200160002060008573ffffffffffffffffffffffffffffffffffffffff1673ffffffffffffffffffffffffffffffffffffffff1681526020019081526020016000205482611a2691906121fe565b91508080611a3390612368565b91505061192d565b5080915050919050565b60008181548110611a5557600080fd5b906000526020600020016000915054906101000a900473ffffffffffffffffffffffffffffffffffffffff1681565b6004602052816000526040600020602052806000526040600020600091509150505481565b600a5481565b6000600c60008373ffffffffffffffffffffffffffffffffffffffff1673ffffffffffffffffffffffffffffffffffffffff168152602001908152602001600020549050919050565b6000600b60008373ffffffffffffffffffffffffffffffffffffffff1673ffffffffffffffffffffffffffffffffffffffff168152602001908152602001600020549050919050565b60005b600880549050811015611bd157611bbe60088281548110611b8e577f4e487b7100000000000000000000000000000000000000000000000000000000600052603260045260246000fd5b9060005260206000200160009054906101000a900473ffffffffffffffffffffffffffffffffffffffff16610747565b8080611bc990612368565b915050611b44565b50565b80600c60008473ffffffffffffffffffffffffffffffffffffffff1673ffffffffffffffffffffffffffffffffffffffff168152602001908152602001600020819055505050565b60066020528060005260406000206000915054906101000a900460ff1681565b60056020528060005260406000206000915054906101000a900460ff1681565b808273ffffffffffffffffffffffffffffffffffffffff166370a08231306040518263ffffffff1660e01b8152600401611c969190612109565b60206040518083038186803b158015611cae57600080fd5b505afa158015611cc2573d6000803e3d6000fd5b505050506040513d601f19601f82011682018060405250810190611ce6919061203f565b11611cf057600080fd5b611cf8611b41565b611d0133610dc2565b81611d0b33611927565b611d1591906121fe565b10611d1f57600080fd5b80600360008473ffffffffffffffffffffffffffffffffffffffff1673ffffffffffffffffffffffffffffffffffffffff16815260200190815260200160002060003373ffffffffffffffffffffffffffffffffffffffff1673ffffffffffffffffffffffffffffffffffffffff1681526020019081526020016000206000828254611dab91906121fe565b925050819055508173ffffffffffffffffffffffffffffffffffffffff1663a9059cbb33836040518363ffffffff1660e01b8152600401611ded929190612184565b602060405180830381600087803b158015611e0757600080fd5b505af1158015611e1b573d6000803e3d6000fd5b505050506040513d601f19601f82011682018060405250810190611e3f9190611fed565b505050565b600081359050611e538161240f565b92915050565b600081519050611e6881612426565b92915050565b600081359050611e7d8161243d565b92915050565b600081519050611e928161243d565b92915050565b600081359050611ea781612454565b92915050565b600060208284031215611ebf57600080fd5b6000611ecd84828501611e44565b91505092915050565b60008060408385031215611ee957600080fd5b6000611ef785828601611e44565b9250506020611f0885828601611e44565b9150509250929050565b60008060008060808587031215611f2857600080fd5b6000611f3687828801611e44565b9450506020611f4787828801611e44565b9350506040611f5887828801611e44565b9250506060611f6987828801611e6e565b91505092959194509250565b60008060408385031215611f8857600080fd5b6000611f9685828601611e44565b9250506020611fa785828601611e6e565b9150509250929050565b60008060408385031215611fc457600080fd5b6000611fd285828601611e44565b9250506020611fe385828601611e98565b9150509250929050565b600060208284031215611fff57600080fd5b600061200d84828501611e59565b91505092915050565b60006020828403121561202857600080fd5b600061203684828501611e6e565b91505092915050565b60006020828403121561205157600080fd5b600061205f84828501611e83565b91505092915050565b60006020828403121561207a57600080fd5b600061208884828501611e98565b91505092915050565b600080604083850312156120a457600080fd5b60006120b285828601611e98565b92505060206120c385828601611e6e565b9150509250929050565b6120d681612313565b82525050565b6120e581612325565b82525050565b6120f481612351565b82525050565b6121038161235b565b82525050565b600060208201905061211e60008301846120cd565b92915050565b600060408201905061213960008301856120cd565b61214660208301846120cd565b9392505050565b600060608201905061216260008301866120cd565b61216f60208301856120cd565b61217c60408301846120eb565b949350505050565b600060408201905061219960008301856120cd565b6121a660208301846120eb565b9392505050565b60006020820190506121c260008301846120dc565b92915050565b60006020820190506121dd60008301846120eb565b92915050565b60006020820190506121f860008301846120fa565b92915050565b600061220982612351565b915061221483612351565b9250827fffffffffffffffffffffffffffffffffffffffffffffffffffffffffffffffff03821115612249576122486123b1565b5b828201905092915050565b600061225f82612351565b915061226a83612351565b92508261227a576122796123e0565b5b828204905092915050565b600061229082612351565b915061229b83612351565b9250817fffffffffffffffffffffffffffffffffffffffffffffffffffffffffffffffff04831182151516156122d4576122d36123b1565b5b828202905092915050565b60006122ea82612351565b91506122f583612351565b925082821015612308576123076123b1565b5b828203905092915050565b600061231e82612331565b9050919050565b60008115159050919050565b600073ffffffffffffffffffffffffffffffffffffffff82169050919050565b6000819050919050565b600060ff82169050919050565b600061237382612351565b91507fffffffffffffffffffffffffffffffffffffffffffffffffffffffffffffffff8214156123a6576123a56123b1565b5b600182019050919050565b7f4e487b7100000000000000000000000000000000000000000000000000000000600052601160045260246000fd5b7f4e487b7100000000000000000000000000000000000000000000000000000000600052601260045260246000fd5b61241881612313565b811461242357600080fd5b50565b61242f81612325565b811461243a57600080fd5b50565b61244681612351565b811461245157600080fd5b50565b61245d8161235b565b811461246857600080fd5b5056fea2646970667358221220f385fe04decf084dde09b59231ca2a596a5e3ed232d1d89f749768a3df68037764736f6c63430008040033",
  "linkReferences": {},
  "deployedLinkReferences": {}
}