{
  "_format": "hh-sol-artifact-1",
  "contractName": "SoulBondD",
  "sourceName": "contracts/SoulBondD.sol",
  "abi": [
    {
      "inputs": [],
      "stateMutability": "nonpayable",
      "type": "constructor"
    },
    {
      "anonymous": false,
      "inputs": [
        {
          "indexed": true,
          "internalType": "address",
          "name": "owner",
          "type": "address"
        },
        {
          "indexed": true,
          "internalType": "address",
          "name": "approved",
          "type": "address"
        },
        {
          "indexed": true,
          "internalType": "uint256",
          "name": "tokenId",
          "type": "uint256"
        }
      ],
      "name": "Approval",
      "type": "event"
    },
    {
      "anonymous": false,
      "inputs": [
        {
          "indexed": true,
          "internalType": "address",
          "name": "owner",
          "type": "address"
        },
        {
          "indexed": true,
          "internalType": "address",
          "name": "operator",
          "type": "address"
        },
        {
          "indexed": false,
          "internalType": "bool",
          "name": "approved",
          "type": "bool"
        }
      ],
      "name": "ApprovalForAll",
      "type": "event"
    },
    {
      "anonymous": false,
      "inputs": [
        {
          "indexed": true,
          "internalType": "address",
          "name": "from",
          "type": "address"
        },
        {
          "indexed": true,
          "internalType": "address",
          "name": "to",
          "type": "address"
        },
        {
          "indexed": true,
          "internalType": "uint256",
          "name": "tokenId",
          "type": "uint256"
        }
      ],
      "name": "Transfer",
      "type": "event"
    },
    {
      "inputs": [
        {
          "internalType": "address",
          "name": "to",
          "type": "address"
        },
        {
          "internalType": "uint256",
          "name": "tokenId",
          "type": "uint256"
        }
      ],
      "name": "approve",
      "outputs": [],
      "stateMutability": "nonpayable",
      "type": "function"
    },
    {
      "inputs": [
        {
          "internalType": "address",
          "name": "owner",
          "type": "address"
        }
      ],
      "name": "balanceOf",
      "outputs": [
        {
          "internalType": "uint256",
          "name": "",
          "type": "uint256"
        }
      ],
      "stateMutability": "view",
      "type": "function"
    },
    {
      "inputs": [],
      "name": "counter",
      "outputs": [
        {
          "internalType": "uint256",
          "name": "",
          "type": "uint256"
        }
      ],
      "stateMutability": "view",
      "type": "function"
    },
    {
      "inputs": [
        {
          "internalType": "uint256",
          "name": "tokenId",
          "type": "uint256"
        }
      ],
      "name": "getApproved",
      "outputs": [
        {
          "internalType": "address",
          "name": "",
          "type": "address"
        }
      ],
      "stateMutability": "view",
      "type": "function"
    },
    {
      "inputs": [
        {
          "internalType": "address",
          "name": "owner",
          "type": "address"
        },
        {
          "internalType": "address",
          "name": "operator",
          "type": "address"
        }
      ],
      "name": "isApprovedForAll",
      "outputs": [
        {
          "internalType": "bool",
          "name": "",
          "type": "bool"
        }
      ],
      "stateMutability": "view",
      "type": "function"
    },
    {
      "inputs": [
        {
          "internalType": "address",
          "name": "player",
          "type": "address"
        }
      ],
      "name": "mint",
      "outputs": [],
      "stateMutability": "nonpayable",
      "type": "function"
    },
    {
      "inputs": [],
      "name": "name",
      "outputs": [
        {
          "internalType": "string",
          "name": "",
          "type": "string"
        }
      ],
      "stateMutability": "view",
      "type": "function"
    },
    {
      "inputs": [
        {
          "internalType": "uint256",
          "name": "tokenId",
          "type": "uint256"
        }
      ],
      "name": "ownerOf",
      "outputs": [
        {
          "internalType": "address",
          "name": "",
          "type": "address"
        }
      ],
      "stateMutability": "view",
      "type": "function"
    },
    {
      "inputs": [
        {
          "internalType": "address",
          "name": "from",
          "type": "address"
        },
        {
          "internalType": "address",
          "name": "to",
          "type": "address"
        },
        {
          "internalType": "uint256",
          "name": "tokenId",
          "type": "uint256"
        }
      ],
      "name": "safeTransferFrom",
      "outputs": [],
      "stateMutability": "nonpayable",
      "type": "function"
    },
    {
      "inputs": [
        {
          "internalType": "address",
          "name": "from",
          "type": "address"
        },
        {
          "internalType": "address",
          "name": "to",
          "type": "address"
        },
        {
          "internalType": "uint256",
          "name": "tokenId",
          "type": "uint256"
        },
        {
          "internalType": "bytes",
          "name": "_data",
          "type": "bytes"
        }
      ],
      "name": "safeTransferFrom",
      "outputs": [],
      "stateMutability": "nonpayable",
      "type": "function"
    },
    {
      "inputs": [
        {
          "internalType": "address",
          "name": "operator",
          "type": "address"
        },
        {
          "internalType": "bool",
          "name": "approved",
          "type": "bool"
        }
      ],
      "name": "setApprovalForAll",
      "outputs": [],
      "stateMutability": "nonpayable",
      "type": "function"
    },
    {
      "inputs": [
        {
          "internalType": "bytes4",
          "name": "interfaceId",
          "type": "bytes4"
        }
      ],
      "name": "supportsInterface",
      "outputs": [
        {
          "internalType": "bool",
          "name": "",
          "type": "bool"
        }
      ],
      "stateMutability": "view",
      "type": "function"
    },
    {
      "inputs": [],
      "name": "symbol",
      "outputs": [
        {
          "internalType": "string",
          "name": "",
          "type": "string"
        }
      ],
      "stateMutability": "view",
      "type": "function"
    },
    {
      "inputs": [
        {
          "internalType": "uint256",
          "name": "tokenId",
          "type": "uint256"
        }
      ],
      "name": "tokenURI",
      "outputs": [
        {
          "internalType": "string",
          "name": "",
          "type": "string"
        }
      ],
      "stateMutability": "view",
      "type": "function"
    },
    {
      "inputs": [
        {
          "internalType": "address",
          "name": "from",
          "type": "address"
        },
        {
          "internalType": "address",
          "name": "to",
          "type": "address"
        },
        {
          "internalType": "uint256",
          "name": "tokenId",
          "type": "uint256"
        }
      ],
      "name": "transferFrom",
      "outputs": [],
      "stateMutability": "nonpayable",
      "type": "function"
    }
  ],
  "bytecode": "0x60806040523480156200001157600080fd5b506040518060400160405280600981526020017f536f756c426f6e644400000000000000000000000000000000000000000000008152506040518060400160405280600481526020017f53422d440000000000000000000000000000000000000000000000000000000081525081600090805190602001906200009692919062000463565b508060019080519060200190620000af92919062000463565b50505033600660006101000a81548173ffffffffffffffffffffffffffffffffffffffff021916908373ffffffffffffffffffffffffffffffffffffffff16021790555062000126600660009054906101000a900473ffffffffffffffffffffffffffffffffffffffff166200012c60201b60201c565b62000703565b600660009054906101000a900473ffffffffffffffffffffffffffffffffffffffff1673ffffffffffffffffffffffffffffffffffffffff163373ffffffffffffffffffffffffffffffffffffffff16146200018757600080fd5b6200019e6008620001cf60201b62000a2a1760201c565b6000620001b76008620001e560201b62000a401760201c565b9050620001cb8282620001f360201b60201c565b5050565b6001816000016000828254019250508190555050565b600081600001549050919050565b600073ffffffffffffffffffffffffffffffffffffffff168273ffffffffffffffffffffffffffffffffffffffff16141562000266576040517f08c379a00000000000000000000000000000000000000000000000000000000081526004016200025d9062000583565b60405180910390fd5b6200027781620003ed60201b60201c565b15620002ba576040517f08c379a0000000000000000000000000000000000000000000000000000000008152600401620002b19062000561565b60405180910390fd5b620002ce600083836200045960201b60201c565b6001600360008473ffffffffffffffffffffffffffffffffffffffff1673ffffffffffffffffffffffffffffffffffffffff1681526020019081526020016000206000828254620003209190620005b6565b92505081905550816002600083815260200190815260200160002060006101000a81548173ffffffffffffffffffffffffffffffffffffffff021916908373ffffffffffffffffffffffffffffffffffffffff160217905550808273ffffffffffffffffffffffffffffffffffffffff16600073ffffffffffffffffffffffffffffffffffffffff167fddf252ad1be2c89b69c2b068fc378daa952ba7f163c4a11628f55a4df523b3ef60405160405180910390a4620003e9600083836200045e60201b60201c565b5050565b60008073ffffffffffffffffffffffffffffffffffffffff166002600084815260200190815260200160002060009054906101000a900473ffffffffffffffffffffffffffffffffffffffff1673ffffffffffffffffffffffffffffffffffffffff1614159050919050565b505050565b505050565b82805462000471906200061d565b90600052602060002090601f016020900481019282620004955760008555620004e1565b82601f10620004b057805160ff1916838001178555620004e1565b82800160010185558215620004e1579182015b82811115620004e0578251825591602001919060010190620004c3565b5b509050620004f09190620004f4565b5090565b5b808211156200050f576000816000905550600101620004f5565b5090565b600062000522601c83620005a5565b91506200052f82620006b1565b602082019050919050565b600062000549602083620005a5565b91506200055682620006da565b602082019050919050565b600060208201905081810360008301526200057c8162000513565b9050919050565b600060208201905081810360008301526200059e816200053a565b9050919050565b600082825260208201905092915050565b6000620005c38262000613565b9150620005d08362000613565b9250827fffffffffffffffffffffffffffffffffffffffffffffffffffffffffffffffff0382111562000608576200060762000653565b5b828201905092915050565b6000819050919050565b600060028204905060018216806200063657607f821691505b602082108114156200064d576200064c62000682565b5b50919050565b7f4e487b7100000000000000000000000000000000000000000000000000000000600052601160045260246000fd5b7f4e487b7100000000000000000000000000000000000000000000000000000000600052602260045260246000fd5b7f4552433732313a20746f6b656e20616c7265616479206d696e74656400000000600082015250565b7f4552433732313a206d696e7420746f20746865207a65726f2061646472657373600082015250565b611db780620007136000396000f3fe608060405234801561001057600080fd5b50600436106100f55760003560e01c80636352211e11610097578063a22cb46511610066578063a22cb46514610284578063b88d4fde146102a0578063c87b56dd146102bc578063e985e9c5146102ec576100f5565b80636352211e146101ea5780636a6278421461021a57806370a082311461023657806395d89b4114610266576100f5565b8063095ea7b3116100d3578063095ea7b31461017857806323b872dd1461019457806342842e0e146101b057806361bc221a146101cc576100f5565b806301ffc9a7146100fa57806306fdde031461012a578063081812fc14610148575b600080fd5b610114600480360381019061010f919061135d565b61031c565b60405161012191906115c0565b60405180910390f35b6101326103fe565b60405161013f91906115db565b60405180910390f35b610162600480360381019061015d9190611386565b610490565b60405161016f91906115a5565b60405180910390f35b610192600480360381019061018d9190611321565b610515565b005b6101ae60048036038101906101a9919061121b565b61062d565b005b6101ca60048036038101906101c5919061121b565b610632565b005b6101d4610652565b6040516101e1919061171d565b60405180910390f35b61020460048036038101906101ff9190611386565b610658565b60405161021191906115a5565b60405180910390f35b610234600480360381019061022f91906111b6565b61070a565b005b610250600480360381019061024b91906111b6565b61078a565b60405161025d919061171d565b60405180910390f35b61026e610842565b60405161027b91906115db565b60405180910390f35b61029e600480360381019061029991906112e5565b6108d4565b005b6102ba60048036038101906102b5919061126a565b6108ea565b005b6102d660048036038101906102d19190611386565b6108ef565b6040516102e391906115db565b60405180910390f35b610306600480360381019061030191906111df565b610996565b60405161031391906115c0565b60405180910390f35b60007f80ac58cd000000000000000000000000000000000000000000000000000000007bffffffffffffffffffffffffffffffffffffffffffffffffffffffff1916827bffffffffffffffffffffffffffffffffffffffffffffffffffffffff191614806103e757507f5b5e139f000000000000000000000000000000000000000000000000000000007bffffffffffffffffffffffffffffffffffffffffffffffffffffffff1916827bffffffffffffffffffffffffffffffffffffffffffffffffffffffff1916145b806103f757506103f682610a4e565b5b9050919050565b60606000805461040d90611926565b80601f016020809104026020016040519081016040528092919081815260200182805461043990611926565b80156104865780601f1061045b57610100808354040283529160200191610486565b820191906000526020600020905b81548152906001019060200180831161046957829003601f168201915b5050505050905090565b600061049b82610ab8565b6104da576040517f08c379a00000000000000000000000000000000000000000000000000000000081526004016104d1906116bd565b60405180910390fd5b6004600083815260200190815260200160002060009054906101000a900473ffffffffffffffffffffffffffffffffffffffff169050919050565b600061052082610658565b90508073ffffffffffffffffffffffffffffffffffffffff168373ffffffffffffffffffffffffffffffffffffffff161415610591576040517f08c379a0000000000000000000000000000000000000000000000000000000008152600401610588906116fd565b60405180910390fd5b8073ffffffffffffffffffffffffffffffffffffffff166105b0610b24565b73ffffffffffffffffffffffffffffffffffffffff1614806105df57506105de816105d9610b24565b610996565b5b61061e576040517f08c379a00000000000000000000000000000000000000000000000000000000081526004016106159061163d565b60405180910390fd5b6106288383610b2c565b505050565b600080fd5b61064d838383604051806020016040528060008152506108ea565b505050565b60075481565b6000806002600084815260200190815260200160002060009054906101000a900473ffffffffffffffffffffffffffffffffffffffff169050600073ffffffffffffffffffffffffffffffffffffffff168173ffffffffffffffffffffffffffffffffffffffff161415610701576040517f08c379a00000000000000000000000000000000000000000000000000000000081526004016106f89061167d565b60405180910390fd5b80915050919050565b600660009054906101000a900473ffffffffffffffffffffffffffffffffffffffff1673ffffffffffffffffffffffffffffffffffffffff163373ffffffffffffffffffffffffffffffffffffffff161461076457600080fd5b61076e6008610a2a565b600061077a6008610a40565b90506107868282610be5565b5050565b60008073ffffffffffffffffffffffffffffffffffffffff168273ffffffffffffffffffffffffffffffffffffffff1614156107fb576040517f08c379a00000000000000000000000000000000000000000000000000000000081526004016107f29061165d565b60405180910390fd5b600360008373ffffffffffffffffffffffffffffffffffffffff1673ffffffffffffffffffffffffffffffffffffffff168152602001908152602001600020549050919050565b60606001805461085190611926565b80601f016020809104026020016040519081016040528092919081815260200182805461087d90611926565b80156108ca5780601f1061089f576101008083540402835291602001916108ca565b820191906000526020600020905b8154815290600101906020018083116108ad57829003601f168201915b5050505050905090565b6108e66108df610b24565b8383610dbf565b5050565b600080fd5b60606108fa82610ab8565b610939576040517f08c379a0000000000000000000000000000000000000000000000000000000008152600401610930906116dd565b60405180910390fd5b6000610943610f2c565b90506000815111610963576040518060200160405280600081525061098e565b8061096d84610f43565b60405160200161097e929190611581565b6040516020818303038152906040525b915050919050565b6000600560008473ffffffffffffffffffffffffffffffffffffffff1673ffffffffffffffffffffffffffffffffffffffff16815260200190815260200160002060008373ffffffffffffffffffffffffffffffffffffffff1673ffffffffffffffffffffffffffffffffffffffff16815260200190815260200160002060009054906101000a900460ff16905092915050565b6001816000016000828254019250508190555050565b600081600001549050919050565b60007f01ffc9a7000000000000000000000000000000000000000000000000000000007bffffffffffffffffffffffffffffffffffffffffffffffffffffffff1916827bffffffffffffffffffffffffffffffffffffffffffffffffffffffff1916149050919050565b60008073ffffffffffffffffffffffffffffffffffffffff166002600084815260200190815260200160002060009054906101000a900473ffffffffffffffffffffffffffffffffffffffff1673ffffffffffffffffffffffffffffffffffffffff1614159050919050565b600033905090565b816004600083815260200190815260200160002060006101000a81548173ffffffffffffffffffffffffffffffffffffffff021916908373ffffffffffffffffffffffffffffffffffffffff160217905550808273ffffffffffffffffffffffffffffffffffffffff16610b9f83610658565b73ffffffffffffffffffffffffffffffffffffffff167f8c5be1e5ebec7d5bd14f71427d1e84f3dd0314c0f7b2291e5b200ac8c7c3b92560405160405180910390a45050565b600073ffffffffffffffffffffffffffffffffffffffff168273ffffffffffffffffffffffffffffffffffffffff161415610c55576040517f08c379a0000000000000000000000000000000000000000000000000000000008152600401610c4c9061169d565b60405180910390fd5b610c5e81610ab8565b15610c9e576040517f08c379a0000000000000000000000000000000000000000000000000000000008152600401610c95906115fd565b60405180910390fd5b610caa600083836110f0565b6001600360008473ffffffffffffffffffffffffffffffffffffffff1673ffffffffffffffffffffffffffffffffffffffff1681526020019081526020016000206000828254610cfa91906117b5565b92505081905550816002600083815260200190815260200160002060006101000a81548173ffffffffffffffffffffffffffffffffffffffff021916908373ffffffffffffffffffffffffffffffffffffffff160217905550808273ffffffffffffffffffffffffffffffffffffffff16600073ffffffffffffffffffffffffffffffffffffffff167fddf252ad1be2c89b69c2b068fc378daa952ba7f163c4a11628f55a4df523b3ef60405160405180910390a4610dbb600083836110f5565b5050565b8173ffffffffffffffffffffffffffffffffffffffff168373ffffffffffffffffffffffffffffffffffffffff161415610e2e576040517f08c379a0000000000000000000000000000000000000000000000000000000008152600401610e259061161d565b60405180910390fd5b80600560008573ffffffffffffffffffffffffffffffffffffffff1673ffffffffffffffffffffffffffffffffffffffff16815260200190815260200160002060008473ffffffffffffffffffffffffffffffffffffffff1673ffffffffffffffffffffffffffffffffffffffff16815260200190815260200160002060006101000a81548160ff0219169083151502179055508173ffffffffffffffffffffffffffffffffffffffff168373ffffffffffffffffffffffffffffffffffffffff167f17307eab39ab6107e8899845ad3d59bd9653f200f220920489ca2b5937696c3183604051610f1f91906115c0565b60405180910390a3505050565b606060405180602001604052806000815250905090565b60606000821415610f8b576040518060400160405280600181526020017f300000000000000000000000000000000000000000000000000000000000000081525090506110eb565b600082905060005b60008214610fbd578080610fa690611989565b915050600a82610fb6919061180b565b9150610f93565b60008167ffffffffffffffff811115610fff577f4e487b7100000000000000000000000000000000000000000000000000000000600052604160045260246000fd5b6040519080825280601f01601f1916602001820160405280156110315781602001600182028036833780820191505090505b5090505b600085146110e45760018261104a919061183c565b9150600a8561105991906119d2565b603061106591906117b5565b60f81b8183815181106110a1577f4e487b7100000000000000000000000000000000000000000000000000000000600052603260045260246000fd5b60200101907effffffffffffffffffffffffffffffffffffffffffffffffffffffffffffff1916908160001a905350600a856110dd919061180b565b9450611035565b8093505050505b919050565b505050565b505050565b600061110d6111088461175d565b611738565b90508281526020810184848401111561112557600080fd5b6111308482856118e4565b509392505050565b60008135905061114781611d25565b92915050565b60008135905061115c81611d3c565b92915050565b60008135905061117181611d53565b92915050565b600082601f83011261118857600080fd5b81356111988482602086016110fa565b91505092915050565b6000813590506111b081611d6a565b92915050565b6000602082840312156111c857600080fd5b60006111d684828501611138565b91505092915050565b600080604083850312156111f257600080fd5b600061120085828601611138565b925050602061121185828601611138565b9150509250929050565b60008060006060848603121561123057600080fd5b600061123e86828701611138565b935050602061124f86828701611138565b9250506040611260868287016111a1565b9150509250925092565b6000806000806080858703121561128057600080fd5b600061128e87828801611138565b945050602061129f87828801611138565b93505060406112b0878288016111a1565b925050606085013567ffffffffffffffff8111156112cd57600080fd5b6112d987828801611177565b91505092959194509250565b600080604083850312156112f857600080fd5b600061130685828601611138565b92505060206113178582860161114d565b9150509250929050565b6000806040838503121561133457600080fd5b600061134285828601611138565b9250506020611353858286016111a1565b9150509250929050565b60006020828403121561136f57600080fd5b600061137d84828501611162565b91505092915050565b60006020828403121561139857600080fd5b60006113a6848285016111a1565b91505092915050565b6113b881611870565b82525050565b6113c781611882565b82525050565b60006113d88261178e565b6113e28185611799565b93506113f28185602086016118f3565b6113fb81611abf565b840191505092915050565b60006114118261178e565b61141b81856117aa565b935061142b8185602086016118f3565b80840191505092915050565b6000611444601c83611799565b915061144f82611ad0565b602082019050919050565b6000611467601983611799565b915061147282611af9565b602082019050919050565b600061148a603883611799565b915061149582611b22565b604082019050919050565b60006114ad602a83611799565b91506114b882611b71565b604082019050919050565b60006114d0602983611799565b91506114db82611bc0565b604082019050919050565b60006114f3602083611799565b91506114fe82611c0f565b602082019050919050565b6000611516602c83611799565b915061152182611c38565b604082019050919050565b6000611539602f83611799565b915061154482611c87565b604082019050919050565b600061155c602183611799565b915061156782611cd6565b604082019050919050565b61157b816118da565b82525050565b600061158d8285611406565b91506115998284611406565b91508190509392505050565b60006020820190506115ba60008301846113af565b92915050565b60006020820190506115d560008301846113be565b92915050565b600060208201905081810360008301526115f581846113cd565b905092915050565b6000602082019050818103600083015261161681611437565b9050919050565b600060208201905081810360008301526116368161145a565b9050919050565b600060208201905081810360008301526116568161147d565b9050919050565b60006020820190508181036000830152611676816114a0565b9050919050565b60006020820190508181036000830152611696816114c3565b9050919050565b600060208201905081810360008301526116b6816114e6565b9050919050565b600060208201905081810360008301526116d681611509565b9050919050565b600060208201905081810360008301526116f68161152c565b9050919050565b600060208201905081810360008301526117168161154f565b9050919050565b60006020820190506117326000830184611572565b92915050565b6000611742611753565b905061174e8282611958565b919050565b6000604051905090565b600067ffffffffffffffff82111561177857611777611a90565b5b61178182611abf565b9050602081019050919050565b600081519050919050565b600082825260208201905092915050565b600081905092915050565b60006117c0826118da565b91506117cb836118da565b9250827fffffffffffffffffffffffffffffffffffffffffffffffffffffffffffffffff03821115611800576117ff611a03565b5b828201905092915050565b6000611816826118da565b9150611821836118da565b92508261183157611830611a32565b5b828204905092915050565b6000611847826118da565b9150611852836118da565b92508282101561186557611864611a03565b5b828203905092915050565b600061187b826118ba565b9050919050565b60008115159050919050565b60007fffffffff0000000000000000000000000000000000000000000000000000000082169050919050565b600073ffffffffffffffffffffffffffffffffffffffff82169050919050565b6000819050919050565b82818337600083830152505050565b60005b838110156119115780820151818401526020810190506118f6565b83811115611920576000848401525b50505050565b6000600282049050600182168061193e57607f821691505b6020821081141561195257611951611a61565b5b50919050565b61196182611abf565b810181811067ffffffffffffffff821117156119805761197f611a90565b5b80604052505050565b6000611994826118da565b91507fffffffffffffffffffffffffffffffffffffffffffffffffffffffffffffffff8214156119c7576119c6611a03565b5b600182019050919050565b60006119dd826118da565b91506119e8836118da565b9250826119f8576119f7611a32565b5b828206905092915050565b7f4e487b7100000000000000000000000000000000000000000000000000000000600052601160045260246000fd5b7f4e487b7100000000000000000000000000000000000000000000000000000000600052601260045260246000fd5b7f4e487b7100000000000000000000000000000000000000000000000000000000600052602260045260246000fd5b7f4e487b7100000000000000000000000000000000000000000000000000000000600052604160045260246000fd5b6000601f19601f8301169050919050565b7f4552433732313a20746f6b656e20616c7265616479206d696e74656400000000600082015250565b7f4552433732313a20617070726f766520746f2063616c6c657200000000000000600082015250565b7f4552433732313a20617070726f76652063616c6c6572206973206e6f74206f7760008201527f6e6572206e6f7220617070726f76656420666f7220616c6c0000000000000000602082015250565b7f4552433732313a2062616c616e636520717565727920666f7220746865207a6560008201527f726f206164647265737300000000000000000000000000000000000000000000602082015250565b7f4552433732313a206f776e657220717565727920666f72206e6f6e657869737460008201527f656e7420746f6b656e0000000000000000000000000000000000000000000000602082015250565b7f4552433732313a206d696e7420746f20746865207a65726f2061646472657373600082015250565b7f4552433732313a20617070726f76656420717565727920666f72206e6f6e657860008201527f697374656e7420746f6b656e0000000000000000000000000000000000000000602082015250565b7f4552433732314d657461646174613a2055524920717565727920666f72206e6f60008201527f6e6578697374656e7420746f6b656e0000000000000000000000000000000000602082015250565b7f4552433732313a20617070726f76616c20746f2063757272656e74206f776e6560008201527f7200000000000000000000000000000000000000000000000000000000000000602082015250565b611d2e81611870565b8114611d3957600080fd5b50565b611d4581611882565b8114611d5057600080fd5b50565b611d5c8161188e565b8114611d6757600080fd5b50565b611d73816118da565b8114611d7e57600080fd5b5056fea2646970667358221220f99e28cfbc902a433b4d6b3bfa1a2cfbbffd067c5075a55c4460c955632da41364736f6c63430008040033",
  "linkReferences": {},
  "deployedLinkReferences": {}
}